:020000000C945E
:10000200C7000C9445010C945E010C9400000C9402
:1000120000000C94F6000C9400000C9400000C9468
:1000220000000C9400000C9400000C9400000C944E
:1000320000000C9400000C9400000C9400000C943E
:1000420000000C9400000C9400000C9400000C942E
:1000520000001027E80364000A00010000100001FC
:10006200100001000000030072050064000000009F
:10007200173A01324D656C65632E697200506172E8
:100082006B696E67204142432000736176696E6737
:100092002064617461005A3D25642025642F256423
:1000A2002F25640025643A25643A25642020523DB8
:1000B200256420002046756C6C0020456D7000544C
:1000C200696D652053657474696E67203E3E004910
:1000D2004E264F555420536561726368203E3E00A0
:1000E200526573657276655F5061726B203E3E00A9
:1000F2005365742064617461203E3E005365742030
:100102006D696E3D256420203E0053657420686F42
:1001120075723D256420203E0025642F25642F251D
:10012200642000696E3D2564206F75743D2564006E
:1001320052657365727665643D256400536574206B
:100142006D6F6E74683D256420203E0053657420F7
:100152006461793D256420203E00536574207965F1
:1001620061723D256420203E000080C00100020033
:100172006600010060026800020061026A000A0073
:1001820004006C00020063026C010000F894EE2788
:10019200ECBBF1E0F5BFE5BFF8E1F1BDE1BD8DE0FB
:1001A200A2E0BB27ED938A95E9F780E098E0A0E60C
:1001B200ED930197E9F7EEE6F1E0859195910097CD
:1001C20061F0A591B59105901590BF01F0010590E0
:1001D2000D920197E1F7FB01F0CFEFE5EDBFE8E00B
:1001E200EEBFC0E6D2E00C947D010A92AA93BA93C4
:1001F200EA93FA93EFB7EA93EBE3ED1571F4DD249A
:10020200EB1549F4BB24E7E1EA1519F4AA24C394D7
:1002120001C0A39401C0B39401C0D394AC2DEEE10C
:100222000E9400070E943908E02111F00E9407078E
:10023200AC2DEFE10E9400070E943408E02111F08A
:100242000E940707AC2DEDE10E9439080E2EA09105
:100252006002ECE00E942F08E02111F00E940707E3
:10026200A0916002AD3044F0E1E0E09360020E94B0
:100272000F073196FE93EE93E991EFBFF991E99161
:10028200B991A991099018950E9414075394F40109
:1002920031964F010E941B072CF0E4E6E4195E2E12
:1002A200689401C0E89421F8E0E0E5151CF05524BB
:1002B200689401C0E89420F818C00E9414075A9468
:1002C200F30131963F01E0E0E5151CF055246894F6
:1002D20001C0E89420F80E941B072CF0E4E6E41920
:1002E2005E2E689401C0E89421F8E991EFBFF9917C
:1002F200E991B991A9911895A297EBB7E06CEBBF80
:10030200EBE0E5BFE0E0E4BFE0ECEABFA0E10E9481
:10031200B7060E946706A6E7B0E00E94A4060E9404
:100322002907AFE7B0E00E94A406ACE2B1E00E9468
:100332001208E8E0E2BDE5E0E5BDE0E0E4BDE3BDD2
:10034200E0E4E9BFEFE1EBBB0E942E07CE2E7894EA
:100352005418CA9903C0CA9BFECF76D00E943307B5
:1003620059F10E942E070E944307AE0FBF1FF301EF
:100372000E946A080E942E070E944907AE0FBF1F03
:10038200F4010E946A080E942E07EF5F0E94720821
:10039200E1500E942E07EF3128F0ACE7B0E0E0E038
:1003A2000E9472080E94330739F00E946706ACE887
:1003B200B0E00E94A406F6CFFE017196FA93EA938A
:1003C200E8E9F0E0FA93EA93E52D0E944F070E94D4
:1003D2005407E09160020E944F07EC2D0E944F07E4
:1003E20080E10E94F10564960E945D07E6EAF0E072
:1003F200FA93EA93EA2D0E944F07EB2D0E944F07D2
:10040200ED2D0E944F07E42D0E944F0780E10E94CC
:10041200F10564960E946706DE0151960E949506D8
:1004220020FE04C0A6EBB0E00E94A40621FE04C098
:10043200ACEBB0E00E94A4060E9429070E9461076B
:100442000E94640786CFFFCF1A9310E0103031F478
:100452000E946706A1ECB0E00E94A406113031F4BC
:100462000E946706A1EDB0E00E94A406123031F4AA
:100472000E946706A2EEB0E00E94A406133031F497
:100482000E946706A2EFB0E00E94A406CB9906C0C4
:10049200CB9BFECF1F5F143008F010E0CC9904C054
:1004A200CC9BFECFE0E025C00E9468070E94710746
:1004B20019F0CA9BFECF1FD00E9468070E947607E0
:1004C20019F0CA9BFECF78D00E9468070E947B0772
:1004D20019F0CA9BFECF37D10E946807E3E00E9461
:1004E2002F08E02119F0CA9BFECF57D10E94640762
:1004F200ADCF19910895FF926197FF24F0FC0BC0D4
:100502000E945D07EEEFF0E0FA93EA93EB2D0E9472
:100512004F070E948007F0FE0BC00E945D07ECE0CF
:10052200F1E0FA93EA93EA2D0E944F070E948007B6
:100532000E9487070E94710739F0C99BFECFB394CE
:10054200EBE3EB150CF4BB240E9492070E947107A7
:1005520041F0C89BFECFBA94E0E0BE1614F4EBE380
:10056200BE2E0E9487070E94760739F0C99BFECFF4
:10057200A394E7E1EA150CF4AA240E9492070E94D0
:10058200760741F0C89BFECFAA94E0E0AE1614F4C1
:10059200E7E1AE2ECB9904C0CB9BFECFE1E0FE2675
:1005A200CC9904C0CC9BFECFE0E003C00E9464075C
:1005B200A5CF6196FF900895FF92A2971A930A938E
:1005C200FF24109160020E942E070E2FC9993BC092
:1005D200C99BFECF0F5F0E942E07A02F0E944808E2
:1005E2000E949D0731F00E942E070E2F1150689431
:1005F200F0F8A12FE6E00E943E080E2EA02FEFE1B8
:100602000E94A20711F00E94A907A12FE6E00E9412
:1006120048080E2EA02FEEE10E94A20711F00E94C0
:10062200A907A12FECE00E942F080E2EA02FEDE1CA
:100632000E94A20711F00E94A907103009F41CE0E1
:100642001D3008F011E0C89934C0C89BFECF01509C
:10065200A02FE0E00E942F080E949D0791F0115008
:10066200103009F41CE01D3008F011E0173008F4D6
:100672000FE1173008F00EE11C3009F40DE1689427
:10068200F0F80E942E07A02F0E9443080E2EA0E031
:10069200F0FCA1E00E94760731F00E942E070E2F97
:1006A2001F5FE894F0F8103009F41CE01D3008F0E8
:1006B20011E0FE017396FA93EA93EBE1F1E0FA930B
:1006C200EA930E945407E12FFF27662777270E94AB
:1006D2005508E02FFF27662777270E9455088CE0F0
:1006E2000E94F1056096FE013296FA93EA93E5E2E2
:1006F200F1E0FA93EA93E02F0E9443070E94AE07CB
:10070200E02F0E9449070E94AE0788E00E94F1058F
:100712002C960E946706DE0153960E9495060E945F
:100722002907DE0112960E949506CC9904C0CC9B43
:10073200FECFE0E003C00E94640748CF1981088120
:10074200A496FF90089561970E945D07E2E3F1E0AD
:10075200FA93EA93E42D0E944F070E948007C999F9
:1007620003C0C99BFECF4394E4E64E1614F0E3E6C1
:100772004E2EC89903C0C89BFECF4A94E0E0E41510
:100782000CF04424CC9904C0CC9BFECFE0E003C023
:100792000E946407D9CF6196089561971A9310E079
:1007A200113061F40E94B707EEE3F1E0FA93EA93A5
:1007B200E09160020E944F070E94BC07103059F47A
:1007C2000E94B707EEE4F1E0FA93EA93EC2D0E945F
:1007D2004F070E94BC07123051F40E94B707ECE5A4
:1007E200F1E0FA93EA930E9454070E94BC070E9428
:1007F200C6070E94760771F0C99BFECFE0916002A6
:10080200EF5FE0936002A0916002AD301CF0E1E086
:10081200E09360020E94CF070E94760771F0C89BA6
:10082200FECFE0916002E150E0936002A09160028D
:10083200A1301CF4ECE0E09360020E94C6070E9423
:10084200710769F0C99BFECFC394EC2DACE7B0E011
:100852000E947208EFE1EC1514F4E1E0CE2E0E9442
:10086200CF070E94710769F0C89BFECFCA94EC2D96
:10087200ACE7B0E00E947208E1E0CE1614F4EFE1BA
:10088200CE2E0E94CF070E947B0799F0C89BFECF15
:100892000E940F073197FE93EE93A0916102B091EF
:1008A2006202119734F4E4E1F5E0E0936102F0931F
:1008B20062020E94C6070E947B0739F0C99BFECFE5
:1008C2000E940F073196FE93EE93CB9906C0CB9B05
:1008D200FECF1F5F133008F010E0CC9904C0CC9B10
:1008E200FECFE0E003C00E9464075ACF18816296EF
:1008F2000895BA93AA931A930A93AA81BB81129676
:100902000E944D08309759F1AA81BB8114960E942A
:100912004D088F01309761F00230E0E01E07F0F0E1
:10092200F80131978F01AA81BB811496ED93FC9354
:10093200AA81BB811296ED91FD913196FE93EE93C1
:100942003197AC81A083AA81BB810E944D08FF230D
:100952002AF0ED91FD913196FE93EE9306C0AA81A5
:10096200BB81EFEFFFEFED93FC9319810881259690
:100972000895BA93AA9326970E94830810E0AC8543
:10098200BD85E0E0F0E0ED93FC93EA89FB893196C6
:10099200EA8BFB8B3197E4912E2FE03011F40C940B
:1009A200E905E12FE03039F4253211F411E002C0FB
:1009B2000E94D8070CC1E130A9F4253219F40E9433
:1009C200D80704C112E040E000E02D3211F401E04A
:1009D200FEC02B3211F44BE2FAC0203211F440E295
:1009E200F6C002C0E23039F450E013E0203311F4D3
:1009F2000068EDC004C0E33011F00C94E805203328
:100A020010F02A3308F007C0AAE05A9F502DE22FB7
:100A1200E0535E0FDCC0E22FE33649F40E94DF07A9
:100A2200E889F989A481AA930E94E507CFC0E33738
:100A320041F40E94DF070E94EB070E94E7061E2F87
:100A42000AC0E03761F40E94DF070E94EB070E94B0
:100A5200F3061E2F086002600F7730E035C0E436DF
:100A620011F0E93611F4046002C0E53731F4E4E52F
:100A7200F0E0EE83FF8315E00DC0E83511F4086065
:100A820004C0E83711F00C94E705EEE5F0E0EE83E0
:100A9200FF8314E002FF14C00E94DF070E94F507E3
:100AA200AB85AA233AF4EA85FB850E942008EA87EF
:100AB200FB874DE2403011F01F5F01C00B7F04C085
:100AC2000E94DF070E94F50700FD11C0151778F498
:100AD20007FF08C002FF04C00B7F242F115001C082
:100AE20020E301C020E20E94D8075150EFCF312FFE
:100AF20001FF17C03030A1F003FF06C0EE81FF8175
:100B02002591EE83FF8305C0AE81BF812D91AE8317
:100B1200BF830E94D807503009F051503150EACFBC
:100B22004BC020E3EE81FF810E945108E887F987DC
:100B3200EE81FF813296EE83FF83E885F985AA85EF
:100B4200BB85AE17BF0750F02F5FA885B985EA8530
:100B5200FB85EA1BFB0BEA87FB87EFCF2A3328F0E2
:100B620003FF02C0295F01C0295D04FD1AC02133C1
:100B720020F4A885B985119709F409C0531710F01C
:100B820000FF01C013C020E207FF0BC020E3006199
:100B920002FF07C00B7F4A930E94E507503009F01D
:100BA20051500E94D807503009F051503150A88559
:100BB200B985129708F0B5CF00FF08C0503031F068
:100BC2005150E0E2EA930E94E507F8CF10E0DDCE53
:100BD200AC85BD850E944D080E948A0864960895DE
:100BE200FF92F82E26970E9485080E94FD073097F3
:100BF20019F4EFEFFFEF23C0DE0116960E941C08E6
:100C02008D010E94FD07EE83FF83E0E0E887E9871C
:100C1200DE011A960E941C080E944D08FA93EA937C
:100C22001A930A93EAE7F4E0FA93EA93DE011A963A
:100C3200A0DE9F01AE81BF81E0E0EC93F9010E944A
:100C42008C082A96FF900895AA93E881E07111F02A
:100C5200C39A01C0C398E881E07211F0C49A01C03E
:100C6200C498E881E07411F0C59A01C0C598E88182
:100C7200E07811F0C69A01C0C69885E08A95F1F72E
:100C8200C29A8DE08A95F1F7C2988DE08A95F1F7C4
:100C92009BC0AA93A881D8DFE881E295E883A88166
:100CA200D3DF85E88A95F1F78FC0AA93E881F0E057
:100CB200ED59FD4FE081A981AE0FEBDFE981E093B1
:100CC2006702E881E093680222960895A2E00E94FA
:100CD2000408ACE0DEDFA1E00E940408E0E0E0935B
:100CE2006802E09367020895AA93A881AA3031F0BE
:100CF200E0916902A0916702AE1760F0E0E0EA932A
:100D0200A0916802AF5FA0936802CFDFA881AA30EA
:100D120009F45AC0E0916702EF5FE0936702C09A5C
:100D2200A881B7DFC09850C0BA93AA931A93A98139
:100D3200BA81ED91A983BA831E2FE03019F0A12F59
:100D4200D3DFF5CF10C0BA93AA931A93E981FA813F
:100D52003196E983FA833197E4911E2FE03019F03E
:100D6200A12FC2DFF3CF188123960895AA93BB9ACD
:100D7200BC9ABD9ABE9ABA9AB89AB99AC298C098C1
:100D8200C198E881E0936902E058E0936502E88146
:100D9200E054E0936602A4E1B0E00E9412080E94CF
:100DA2000A080E940A080E940A08A0E24DDF88ECA5
:100DB20090E00197F1F7A8E26CDFA4E06ADFA5E812
:100DC20068DFA6E066DF82DF21960895BA93AA93D0
:100DD200A991B991EE27FF276D91662311F0319603
:100DE200FBCF0895BA93AA93AA27BB27E991F99159
:100DF2000590002011F01196FBCFFD0108950E948D
:100E020039080E2EA0916002E6E00895E1E0CE2EB0
:100E1200E0916002EF5FE09360020895A1E6B2E024
:100E2200ED91FD910895AA93BA93EA93FA93EFB7DD
:100E3200EA930895A52DB0E0A7FDBFEFE42DF0E001
:100E4200E7FDFFEFAE0FBF1FA436E0E0BE07089537
:100E5200E0E0EA93A1E00C945606ACE7B0E00E9411
:100E62005E080895AA2DE0E00E942F080E2EAB2DF9
:100E7200E0E00E942F080E22AD2DE0E00E942F0834
:100E8200E0210895A0E0B0E0F0E0EE0FFF1F08952A
:100E9200AEE3B0E0F0E0EE0FFF1F08950E942408D9
:100EA2000E9455080895E0916102F09162020E9449
:100EB2002A080E9455080895FE01FA93EA930895BC
:100EC200DE010C949506A9E1B0E00C941208A0E0B2
:100ED200CA99A1E0E0E00E942F080E2EA12F0895EA
:100EE200E0E00E942F08E0210895E1E00E942F082F
:100EF200E0210895E2E00E942F08E021089584E0B5
:100F02000E94F10528960E946706DACFA0E0C999EF
:100F1200A1E0E0E00E942F080E2EA0E0F0FCA1E08C
:100F22000895A0E0C899A1E0E0E00E942F080E2EEB
:100F3200A0E0F0FCA1E008950E2EA0E0F0FCA1E0FC
:100F4200CFCF0E9448080E22A0E0F0FCA1E0CDCF56
:100F520001E01F5FE894F0F80895AE0FBF1F0E94F2
:100F62005A08662777270E9455080895FE01319690
:100F7200FA93EA93089584E00E94F10528960E946C
:100F82006706DE0111960C949506A0E0C999A1E0CE
:100F9200E0E00E942F080E2EA12F0895A0E0C8992C
:100FA200A1E0E0E00E942F080E2EA12F08952A93BF
:100FB200AD85BE85EF85F88909950895E889F98997
:100FC2003497E88BF98B0895AD85BE85EF85F88956
:100FD20009950895A889B98914960E944D08EE834F
:100FE200FF83AE81BF810895A889B98914960E94B2
:100FF2004D08EA87FB870895DE011C960E941C08B3
:101002000E944D0808950E944A06A3E0B0E00C94A5
:101012001208A0E30E94250688EC90E00197F1F700
:101022000895109639F080ED97E00197F1F7A895B1
:101032001197C9F708950024AF0DB01D0895F195D9
:10104200E195F0400895FE2FFF0FFF0B6F2F7F2FCA
:1010520008956F2F660F660B762F0895EA17E1E069
:1010620009F0EE270895EA17E1E00CF4EE2708955F
:10107200EA17E1E00CF0EE270895EA17E1E008F440
:10108200EE270895AE17E1E008F0EE270895EA177B
:10109200E1E008F0EE270895ED91FC911197089593
:1010A2000590F491E02D08957A936A93FA93EA9366
:1010B2000895119602D0FE2F1197E199FECFFF936A
:1010C200FFB7F894AEBBBFBBE09AEDB3FFBFFF9191
:1010D200089507D01196EF93EF2F03D0EF91119758
:1010E2000895E19B02C0A895FCCF9FB7F894AEBBD0
:1010F200BFBBE09A8DB3E81719F0EDBBE29AE19A13
:101102009FBF08955A934A933A932A931A930A9344
:1011120008955D814C813B812A811981088108955E
:00000001FF
