:0E0000000C94D1000C945E010C9480010C94C1
:10000E0000000C9400000C9400010C9400000C9461
:10001E0000000C9400000C9400000C9400000C9452
:10002E0000000C9400000C9400000C9400000C9442
:10003E0000000C9400000C9400000C9400000C9432
:10004E0000000C9400001027E80364000A00010071
:10005E00001000011000010002000000000000006E
:10006E00000A32000A003B0017001D000C007A0542
:10007E00456D7074790046756C6C00736176696EAF
:10008E0067206461746100433D25642025642F253B
:10009E00642F25640025643A25643A256420205295
:1000AE003D2564200054696D652053657474696E36
:1000BE0067203E3E00494E264F55542053656172CF
:1000CE006368203E3E00526573657276655F5061CF
:1000DE00726B203E3E005365742064617465203E51
:1000EE003E00536574206D696E3D256420203E00F0
:1000FE0053657420686F75723D256420203E004F55
:10010E007574206F6620696E6465782E00696E3D89
:10011E002564206F75743D25640052657365727693
:10012E0065643D256400536574206D6F6E74683D83
:10013E00256420203E00536574206461793D25645A
:10014E0020203E0053657420796561723D25642040
:10015E00203E000080C00100020066000A0004007C
:10016E0068000100F80274000100FA027600010036
:10017E00FC0278000100FE027A00020000037C00FF
:10018E000E0060020D010E006E020D010200020350
:10019E0062010000F894EE27ECBBF1E0F5BFE5BF7D
:1001AE00F8E1F1BDE1BD8DE0A2E0BB27ED938A95AC
:1001BE00E9F780E098E0A0E6ED930197E9F7E4E631
:1001CE00F1E085919591009761F0A591B59105901B
:1001DE001590BF01F00105900D920197E1F7FB011B
:1001EE00F0CFEFE5EDBFE8E0EEBFC0E6D2E00C9455
:1001FE00AF01AA93BA93EA93FA93EFB7EA93EBE3BC
:10020E00F0E0EC15FD0511F5CC24DD240E94480725
:10021E00DB97C9F4E0E0E093F802E093F9020E9464
:10022E004D07579741F4E0E0E093FA02E093FB02AA
:10023E00ACEFB2E002C0AAEFB2E0ED91FD913196C3
:10024E00FE93EE9302C00E94520703C0F601319650
:10025E006F010E945A0717973CF40E945F07909710
:10026E0014F00E94640711C00E945A071C9739F4BB
:10027E000E945F075E9714F00E94640706C00E94FA
:10028E005F075F9714F00E9464070E945A071D973C
:10029E003CF00E9472070E9479073196FE93EE930E
:1002AE00E991EFBFF991E991B991A99118950E9441
:1002BE007E0721FE07C00E94B606AEE7B0E00E94A0
:1002CE008C0716C0B394F30131963F0131970E940B
:1002DE0092072CF0EAE0E819BE2E689401C0E8946B
:1002EE0021F8BB2019F4BB24689401C0E89420F8CF
:1002FE0021C00E947E0720FE07C00E94B606A4E819
:10030E00B0E00E948C0716C0BA94F20131962F010C
:10031E003197BB2019F4BB24689401C0E89420F8EF
:10032E000E9492072CF0EAE0E819BE2E689401C0F4
:10033E00E89421F8E991EFBFF991E991B991A9916A
:10034E009991899179916991F990199009901895DF
:10035E00A297E0ECEBBFE0E0E4BFE0ECEABF7894FC
:10036E00A0E10E94FF060E94B6060E949A070E9414
:10037E009F07E5E0E5BDE0E4E9BFE8E0E2BDEFE1BF
:10038E00EBBBB818CA9903C0CA9BFECF72D00E94AD
:10039E00A307D1F1E92D0E94B60740825182E92DC3
:1003AE000E94BE0760827182EFE19E1610F12197C6
:1003BE00E0E0E883A881AF31D0F4E8810E94B6076F
:1003CE000F01A881BB27AA0FBB1FA258BD4F0E94C9
:1003DE00C6070E94BE070F01A881BB27AA0FBB1F2D
:1003EE00A454BD4F0E94C607EF5FE883E3CF21966A
:1003FE0001C093940E94A30739F00E94B606A9E8A3
:10040E00B0E00E94EC06F6CFFE017196FA93EA93E5
:10041E00E5E9F0E0FA93EA93EB2D0E94CD070E94F6
:10042E00D3070E94DC070E94E50780E10E94420686
:10043E0064960E94EE07E3EAF0E00E94F2070E9443
:10044E00FD07F6010E940608E82D0E94CD0780E107
:10045E000E94420664960E94B606DE0151960E94E4
:10046E00DD060E949A070E940B080E940E088ACF92
:10047E00FFCF1A9310E0103031F40E94B606A3EBB2
:10048E00B0E00E94EC06113031F40E94B606A3ECE7
:10049E00B0E00E94EC06123031F40E94B606A4EDD4
:1004AE00B0E00E94EC06133031F40E94B606A4EEC2
:1004BE00B0E00E94EC06CB9906C0CB9BFECF1F5F2F
:1004CE00143008F010E0CC9904C0CC9BFECFE0E0D5
:1004DE0025C00E9412080E941B0819F0CA9BFECF6D
:1004EE001FD00E9412080E94200819F0CA9BFECF4E
:1004FE0098D00E9412080E94250819F0CA9BFECFC0
:10050E006ED10E941208E3E00E94D108E02119F09A
:10051E00CA9BFECF8FD10E940E08ADCF19910895C0
:10052E00FF926197FF24F0FC0AC00E94EE07E0EFF5
:10053E00F0E0FA93EA930E94FD070E942A08F0FE6B
:10054E0008C00E94EE07EEEFF0E00E94F2070E9454
:10055E002A080E9431080E941B0869F0C99BFECF31
:10056E000E9452070E944807DC972CF0E0E0E093CF
:10057E00F802E093F9020E943C080E941B0899F0D1
:10058E00C89BFECFE091F802F091F902309739F452
:10059E00EBE3F0E0E093F802F093F90204C0A8EF69
:1005AE00B2E00E9447080E9431080E94200879F0AC
:1005BE00C99BFECFAAEFB2E00E944D080E944D07E4
:1005CE0058972CF0E0E0E093FA02E093FB020E94D1
:1005DE003C080E94200899F0C89BFECFE091FA02D9
:1005EE00F091FB02309739F4E7E1F0E0E093FA0284
:1005FE00F093FB0204C0AAEFB2E00E944708CB9929
:10060E0004C0CB9BFECFE1E0FE26CC9904C0CC9B70
:10061E00FECFE0E003C00E940E0885CF6196FF90EA
:10062E000895A4970E94E908009100031091010318
:10063E002091FE023091FF024091FC025091FD028A
:10064E00E92DF0E0EE83FF83C9993EC0C99BFECF32
:10065E00E92DAE81BF81F0E0AE17BF074CF00E94CE
:10066E00B606A0E6B2E00E94DD060E949F072CC0EF
:10067E004F5F5F4FEE81FF813196EE83FF83273010
:10068E00E0E03E073CF44032E0E05E0714F00E94EA
:10069E00530812C0ECE0F0E0E217F30739F44E31E4
:1006AE00E0E05E0714F00E94530806C04F31E0E010
:1006BE005E0714F00E9453082D30E0E03E0724F050
:1006CE0021E030E00F5F1F4FC89943C0C89BFECF9B
:1006DE00EE81FF81309749F40E94B606AEE6B2E095
:1006EE000E94DD060E949F0734C0EE81FF81319784
:1006FE00EE83FF83E1E0F0E0E417F50741F5E21742
:10070E00F30729F42CE030E00150104002C02150D4
:10071E0030402130E0E03E0724F02730E0E03E0795
:10072E000CF002C04FE150E02730E0E03E0724F02D
:10073E002C30E0E03E070CF002C04EE150E0ECE061
:10074E00F0E0E217F30711F44DE150E002C0415022
:10075E005040FE017996FA93EA93EAE9F0E0FA93B3
:10076E00EA93F8010E940608F9010E940608FA01B0
:10077E000E9406088CE00E9442066096FE013896A2
:10078E00FA93EA93EBE1F1E0FA93EA93EA85FB85BB
:10079E00ACE7B2E00E945808EE85FF85AAEBB2E006
:1007AE000E94580888E00E9442062C960E94B606C7
:1007BE00DE0159960E94DD060E949A07DE01189608
:1007CE000E94DD06CC9904C0CC9BFECFE0E003C0B6
:1007DE000E940E0839CF0E94F008AA9608956197DC
:1007EE000E94EE07E8E2F1E0FA93EA93E82D0E9408
:1007FE00CD070E942A08C99904C0C99BFECF8394D5
:10080E00BA94EAE08E1610F0E9E08E2EC89904C074
:10081E00C89BFECF8A94B394882009F48824CC997F
:10082E0004C0CC9BFECFE0E003C00E940E08D8CFE0
:10083E006196089561971A9310E0113051F40E9459
:10084E005F08E4E3F1E0FA93EA930E94DC070E946A
:10085E006408103051F40E945F08E4E4F1E0FA936A
:10086E00EA930E94E5070E946408123051F40E9438
:10087E005F08E2E5F1E0FA93EA930E94D3070E9443
:10088E0064080E946E080E94200861F0C99BFECF8A
:10089E00AEEFB2E00E944D080E945A071D9714F069
:1008AE000E9472070E9477080E94200881F0C89B60
:1008BE00FECFAEEFB2E00E9447080E945A07119792
:1008CE0034F4ECE0F0E0E093FE02F093FF020E94BD
:1008DE006E080E941B0891F0C99BFECFACEFB2E0F0
:1008EE000E944D089090FC020E945F07909734F092
:1008FE00E1E0F0E0E093FC02F093FD020E94770845
:10090E000E941B0891F0C89BFECFACEFB2E00E9494
:10091E0047089090FC020E945F07119734F4EFE1B4
:10092E00F0E0E093FC02F093FD020E9477080E9433
:10093E00250899F0C89BFECF0E9479073197FE9348
:10094E00EE93A0910003B0910103119734F4E4E10A
:10095E00F5E0E0930003F09301030E946E080E94FD
:10096E00250839F0C99BFECF0E9479073196FE9378
:10097E00EE93CB9906C0CB9BFECF1F5F133008F0D2
:10098E0010E0CC9904C0CC9BFECFE0E003C00E94E7
:10099E000E0853CF188162960895BA93AA931A93AC
:1009AE000A93AA81BB8112960E94DC08309729F126
:1009BE00AA81BB8114960E94DC088F01309761F0EA
:1009CE000230E0E01E0780F0F80131978F01AA8116
:1009DE00BB811496ED93FC93AA81BB8112960E9463
:1009EE004D083197AC81A083AA81BB810E94DC089F
:1009FE00FF2312F00E944D0806C0AA81BB81EFEFC3
:100A0E00FFEFED93FC931981088125960895BA9313
:100A1E00AA9326970E94E90810E0AC85BD85E0E018
:100A2E00F0E0ED93FC93EA89FB893196EA8BFB8B20
:100A3E003197E4912E2FE03009F415C1E12FE0300B
:100A4E0039F4253211F411E002C00E9480080AC167
:100A5E00E130A9F4253219F40E94800802C112E097
:100A6E0040E000E02D3211F401E0FCC02B3211F415
:100A7E004BE2F8C0203211F440E2F4C002C0E23082
:100A8E0039F450E013E0203311F40068EBC003C0DA
:100A9E00E33009F0E7C0203310F02A3308F007C026
:100AAE00AAE05A9F502DE22FE0535E0FDBC0E22FDB
:100ABE00E33649F40E948708E889F989A481AA934C
:100ACE000E948D08CEC0E33741F40E9487080E9431
:100ADE0093080E942F071E2F0AC0E03761F40E9470
:100AEE0087080E9493080E943B071E2F0860026031
:100AFE000F7730E034C0E43611F0E93611F40460BB
:100B0E0002C0E53731F4E4E5F0E0EE83FF8315E053
:100B1E000CC0E83511F4086003C0E83709F0A1C035
:100B2E00EEE5F0E0EE83FF8314E002FF14C00E94B6
:100B3E0087080E949D08AB85AA233AF4EA85FB85B7
:100B4E000E94C808EA87FB874DE2403011F01F5F14
:100B5E0001C00B7F04C00E9487080E949D0800FD03
:100B6E0011C0151778F407FF08C002FF04C00B7FF1
:100B7E00242F115001C020E301C020E20E94800802
:100B8E005150EFCF312F01FF17C03030A1F003FFCE
:100B9E0006C0EE81FF812591EE83FF8305C0AE81F5
:100BAE00BF812D91AE83BF830E948008503009F023
:100BBE0051503150EACF4BC020E3EE81FF810E94AD
:100BCE00E008E887F987EE81FF813296EE83FF8396
:100BDE00E885F985AA85BB85AE17BF0750F02F5F54
:100BEE00A885B985EA85FB85EA1BFB0BEA87FB879F
:100BFE00EFCF2A3328F003FF02C0295F01C0295D21
:100C0E0004FD1AC0213320F4A885B985119709F483
:100C1E0009C0531710F000FF01C013C020E207FFF8
:100C2E000BC020E3006102FF07C00B7F4A930E94B6
:100C3E008D08503009F051500E948008503009F054
:100C4E0051503150A885B985129708F0B5CF00FFE5
:100C5E0008C0503031F05150E0E2EA930E948D0806
:100C6E00F8CF10E0E0CEAC85BD850E94DC080E9476
:100C7E00F00864960895FF92F82E26970E94EB08CE
:100C8E000E94A508309719F4EFEFFFEF23C0DE01A5
:100C9E0016960E94C4088D010E94A508EE83FF835C
:100CAE00E0E0E887E987DE011A960E94C4080E94F8
:100CBE00DC08FA93EA931A930A93E4EDF4E0FA93BC
:100CCE00EA93DE011A96A3DE9F01AE81BF81E0E0BA
:100CDE00EC93F9010E94F2082A96FF900895AA93C8
:100CEE00E881E07111F0C39A01C0C398E881E07207
:100CFE0011F0C49A01C0C498E881E07411F0C59A4D
:100D0E0001C0C598E881E07811F0C69A01C0C69876
:100D1E008DE08A95F1F7C29A8DE08A95F1F7C29827
:100D2E008DE08A95F1F792C0AA93A881D8DFE88169
:100D3E00E295E883A881D3DF85E88A95F1F786C02E
:100D4E00AA93E881F0E0EE5FFC4FE081A981AE0F3F
:100D5E00EBDFA980E881E093060322960895A2E0D6
:100D6E000E94AC08ACE0E0DFA1E00E94AC08E0E03D
:100D7E00E0930603AE2E0895AA93A881AA3021F01F
:100D8E00E0910703AE1660F0E0E0EA93A09106034F
:100D9E00AF5FA0930603D4DFA881AA3009F456C032
:100DAE00A394C09AA881C0DFC09850C0BA93AA93EA
:100DBE001A93A981BA81ED91A983BA831E2FE030CF
:100DCE0019F0A12FD9DFF5CF10C0BA93AA931A93B9
:100DDE00E981FA813196E983FA833197E4911E2FE6
:100DEE00E03019F0A12FC8DFF3CF188123960895B4
:100DFE00AA93BB9ABC9ABD9ABE9ABA9AB89AB99A55
:100E0E00C298C098C198E881E0930703E058E09338
:100E1E000403E881E054E0930503A4E1B0E00E94EE
:100E2E00BA080E94B2080E94B2080E94B208A0E25C
:100E3E0056DF88EC90E00197F1F7A8E275DFA4E0A9
:100E4E0073DFA5E871DFA6E06FDF89DF21960895D5
:100E5E00BA93AA93A991B991EE27FF276D916623B4
:100E6E0011F03196FBCF0895BA93AA93AA27BB2708
:100E7E00E991F9910590002011F01196FBCFFD013B
:100E8E000895A091F802B091F9020895A091FA0286
:100E9E00B091FB020895A8EFB2E0ED91FD9131966D
:100EAE00FE93EE930895A091FE02B091FF02089575
:100EBE00A091FC02B091FD020895E1E0F0E0E09314
:100ECE00FC02F093FD02AEEFB2E0ED91FD91319692
:100EDE00FE93EE930895E1E0F0E0E093FE02F093CE
:100EEE00FF020895A0E0B3E0ED91FD9108950A92FE
:100EFE001A92FA926A937A938A939A93AA93BA93CE
:100F0E00EA93FA93EFB7EA9308950E94EC06A4EFE2
:100F1E00B1E00C94BA08AB2DBB27E82DF0E0AE0F74
:100F2E00BF1F1A970895E0E0EA93A1E00C94A7067C
:100F3E00ACE2B1E00C94BA08A9DFE0E0F0E00E9468
:100F4E00D6080E2E9EDFE0E0F0E00E94D6080E22BC
:100F5E00D601E0E0F0E00E94D608E0210895ACE76B
:100F6E00B2E0F0E0EE0FFF1FEA0FFB1F0895AAEBB1
:100F7E00B2E0F0E0EE0FFF1FEA0FFB1F08950E9494
:100F8E00DC08D001ED93FC93E8810895FF276627D6
:100F9E0077270E94E4080895E0910003F091010381
:100FAE000E94CC080E94E4080895E091FE02F091A0
:100FBE00FF020E94CC080E94E4080895E091FC0212
:100FCE00F091FD020E94CC080E94E4080895FE01F3
:100FDE00FA93EA930895FA93EA93E091FA02F09164
:100FEE00FB020E94CC080E94E4080895E091F802EA
:100FFE00F091F9020E94CC080E94E40808950E9424
:10100E00CC080E94E4080895DE010C94DD06A9E1E7
:10101E00B0E00C94BA08A0E0CA99A1E0E0E00E940A
:10102E00D1080E2EA12F0895E0E00E94D108E021F4
:10103E000895E1E00E94D108E0210895E2E00E94C7
:10104E00D108E021089584E00E94420628960E946D
:10105E00B606DACFA0E0C999A1E0E0E00E94D1087F
:10106E000E2EA0E0F0FCA1E00895A0E0C899A1E04A
:10107E00E0E00E94D1080E2EA0E0F0FCA1E0089561
:10108E00ED91FD913197FE93EE930895ED91FD91C3
:10109E003196FE93EE93089541E050E02F5F3F4F5F
:1010AE000895EE0FFF1FAE0FBF1F0E94DC08A7CFE3
:1010BE00FE013196FA93EA93089584E00E94420667
:1010CE0028960E94B606DE0111960C94DD06A0E06D
:1010DE00C999A1E0E0E00E94D1080E2EA12F08953B
:1010EE00A0E0C899A1E0E0E00E94D1080E2EA12F49
:1010FE0008952A93AD85BE85EF85F88909950895E3
:10110E00E889F9893497E88BF98B0895AD85BE850A
:10111E00EF85F88909950895A889B98914960E94D2
:10112E00DC08EE83FF83AE81BF810895A889B9895B
:10113E0014960E94DC08EA87FB870895DE011C9650
:10114E000E94C4080E94DC0808950E949B06A3E03A
:10115E00B0E00C94BA08A0E30E94760688EC90E00A
:10116E000197F1F70895109639F0A89580ED97E064
:10117E000197F1F71197C9F708950024AF0DB01D2F
:10118E000895F195E195F04008956F2F660F660B67
:10119E00762F0895EA17E1E009F0EE270895EA1791
:1011AE00FB07E1E009F0EE270895ED91FC91119710
:1011BE0008950590F491E02D08957A936A93FA9329
:1011CE00EA9308955A934A933A932A931A930A9359
:1011DE0008955D814C813B812A8119810881089592
:00000001FF
