:0A0000000C94BC000C942F010C942A
:10000A0052010C9400000C9400000C94EB000C9428
:10001A0000000C9400000C9400000C9400000C9456
:10002A0000000C9400000C9400000C9400000C9446
:10003A0000000C9400000C9400000C9400000C9436
:10004A0000000C9400000C9400001027E8036400E0
:10005A000A00010000100001100001000200000A5D
:10006A00173B0C0A0A000C007A05456D70004675AC
:10007A006C6C00736176696E672064617461004319
:10008A0061703D25642025642F25642F2564002591
:10009A00643A25643A256420205265733D2564201C
:1000AA000054696D652053657474696E67203E3E1D
:1000BA0000494E264F555420536561726368203EAD
:1000CA003E00526573657276655F5061726B203EC1
:1000DA003E005365742064617465203E3E0053659A
:1000EA0074206D696E3D256420203E00536574209E
:1000FA00686F75723D256420203E0025642F2564B3
:10010A002F25642000696E3D2564206F75743D2596
:10011A00640052657365727665643D2564005365B3
:10012A0074206D6F6E74683D256420203E0053650F
:10013A0074206461793D256420203E005365742053
:10014A00796561723D256420203E000080C001006F
:10015A0002006600060008006800010060027000E4
:10016A000200610272000200630256010000F89464
:10017A00EE27ECBBF1E0F5BFE5BFF8E1F1BDE1BD6B
:10018A008DE0A2E0BB27ED938A95E9F780E098E03D
:10019A00A0E6ED930197E9F7E8E5F1E085919591FD
:1001AA00009761F0A591B59105901590BF01F001F6
:1001BA0005900D920197E1F7FB01F0CFEFE5EDBF56
:1001CA00E8E0EEBFC0E6D2E00C948201AA93BA93AB
:1001DA00EA93FA93EFB7EA93EBE3ED1571F4DD24B2
:1001EA00EB1549F4BB24E7E1EA1519F4AA24C394F0
:1001FA0001C0A39401C0B39401C0D394A09160023A
:10020A00A73034F4EFE1EC1514F40E94FB060FC09A
:10021A00A0916002AC3031F4EDE1EC1514F40E94C7
:10022A00FB0605C0EEE1EC1514F40E94FB06A09152
:10023A006002AD3044F0E1E0E09360020E940307FF
:10024A003196FE93EE93E991EFBFF991E991B99155
:10025A00A99118950E94080721FE07C00E9462060C
:10026A00A4E7B0E00E94160717C09394F3013196F1
:10027A003F0131970E941C072CF0EAE0E8199E2EF4
:10028A00689401C0E89421F8E0E0E9151CF099248B
:10029A00689401C0E89420F822C00E94080720FE52
:1002AA0007C00E946206A8E7B0E00E94160717C0BE
:1002BA009A94F20131962F013197E0E0E9151CF08A
:1002CA009924689401C0E89420F80E941C072CF035
:1002DA00EAE0E8199E2E689401C0E89421F8E991B1
:1002EA00EFBFF991E991B991A99199918991799180
:1002FA006991F990199009901895A297EBB7E06C5B
:10030A00EBBFEBE0E5BFE0E0E4BFE0ECEABFA0E171
:10031A000E94B2060E9462060E942807ACE2B1E07F
:10032A000E940808E8E0E2BDE5E0E5BDE0E0E4BDE2
:10033A00E3BDE0E4E9BFEFE1EBBB0E942D07CE2E5F
:10034A0078949818CA9903C0CA9BFECF6FD00E94AE
:10035A00320781F10E942D07A0E0B0E0F0E0EE0F35
:10036A00FF1FAE0FBF1FF2010E9456080E942D0701
:10037A00AEE3B0E0F0E0EE0FFF1FAE0FBF1FF301D8
:10038A000E9456080E942D07EF5F0E945E080E9495
:10039A002D07EF3128F0ACE7B0E0E0E00E945E08FC
:1003AA000E94320739F00E946206ADE7B0E00E946F
:1003BA009F06F6CFFE017196FA93EA93E9E8F0E018
:1003CA00FA93EA93E92D0E9442070E944707E091B7
:1003DA0060020E944207EC2D0E94420780E10E94BF
:1003EA00EC0564960E945007E9E9F0E0FA93EA9373
:1003FA00EA2D0E944207EB2D0E944207ED2D0E9432
:10040A004207E82D0E94420780E10E94EC056496AB
:10041A000E946206DE0151960E9490060E942807F9
:10042A000E9454070E9457078DCFFFCF1A9310E0FE
:10043A00103031F40E946206ABEAB0E00E949F06D7
:10044A00113031F40E946206ABEBB0E00E949F06C5
:10045A00123031F40E946206ACECB0E00E949F06B2
:10046A00133031F40E946206ACEDB0E00E949F06A0
:10047A00CB9906C0CB9BFECF1F5F143008F010E06B
:10048A00CC9904C0CC9BFECFE0E025C00E945B075C
:10049A000E94640719F0CA9BFECF1FD00E945B0717
:1004AA000E94690719F0CA9BFECF78D00E945B07A9
:1004BA000E946E0719F0CA9BFECF37D10E945B07D4
:1004CA00E3E00E942508E02119F0CA9BFECF5FD124
:1004DA000E945707ADCF19910895FF926197FF24A3
:1004EA00F0FC0BC00E945007E8EEF0E0FA93EA93A2
:1004FA00EB2D0E9442070E947307F0FE0BC00E9478
:10050A005007E6EFF0E0FA93EA93EA2D0E944207D9
:10051A000E9473070E947A070E94640739F0C99BF8
:10052A00FECFB394EBE3EB150CF4BB240E948507D2
:10053A000E94640741F0C89BFECFBA94E0E0BE1661
:10054A0014F4EBE3BE2E0E947A070E94690739F081
:10055A00C99BFECFA394E7E1EA150CF4AA240E94F2
:10056A0085070E94690741F0C89BFECFAA94E0E084
:10057A00AE1614F4E7E1AE2ECB9904C0CB9BFECFA6
:10058A00E1E0FE26CC9904C0CC9BFECFE0E003C09C
:10059A000E945707A5CF6196FF900895FF92A297F0
:1005AA001A930A93FF24109160020E942D070E2FBE
:1005BA00C9993BC0C99BFECF0F5F0E942D07A02F90
:1005CA000E9434080E94900731F00E942D070E2FD6
:1005DA0011506894F0F8A12FE6E00E942A080E2E26
:1005EA00A02FEFE10E94950711F00E949C07A12F0E
:1005FA00E6E00E9434080E2EA02FEEE10E94950735
:10060A0011F00E949C07A12FECE00E9425080E2EF3
:10061A00A02FEDE10E94950711F00E949C0710306F
:10062A0009F41CE01D3008F011E0C89934C0C89BD9
:10063A00FECF0150A02FE0E00E9425080E949007FB
:10064A0091F01150103009F41CE01D3008F011E04F
:10065A00173008F40FE1173008F00EE11C3009F4E6
:10066A000DE16894F0F80E942D07A02F0E942F0830
:10067A000E2EA0E0F0FCA1E00E94690731F00E9472
:10068A002D070E2F1F5FE894F0F8103009F41CE0D4
:10069A001D3008F011E0FE017396FA93EA93E5E043
:1006AA00F1E0FA93EA930E944707E12FFF276627B2
:1006BA0077270E944108E02FFF27662777270E94A5
:1006CA0041088CE00E94EC056096FE013296FA938E
:1006DA00EA93EFE0F1E0FA93EA93E02FA0E0B0E0CA
:1006EA000E94A107E02FAEE3B0E00E94A10788E0D4
:1006FA000E94EC052C960E946206DE0153960E9427
:10070A0090060E942807DE0112960E949006CC9954
:10071A0004C0CC9BFECFE0E003C00E94570748CF3D
:10072A0019810881A496FF90089561970E94500745
:10073A00ECE1F1E0FA93EA93E82D0E9442070E9465
:10074A007307C99904C0C99BFECF83949A94A82DB4
:10075A00EAE0B0E0A7FDBFEFF0E0AE17BF0714F084
:10076A00E9E08E2EC89904C0C89BFECF8A94939460
:10077A00E0E0E8150CF08824CC9904C0CC9BFECFAD
:10078A00E0E003C00E945707D1CF619608956197B0
:10079A001A9310E0113061F40E94AD07E8E2F1E02B
:1007AA00FA93EA93E09160020E9442070E94B2071C
:1007BA00103059F40E94AD07E8E3F1E0FA93EA93A6
:1007CA00EC2D0E9442070E94B207123051F40E9497
:1007DA00AD07E6E4F1E0FA93EA930E9447070E9424
:1007EA00B2070E94BC070E94690771F0C99BFECF3D
:1007FA00E0916002EF5FE0936002A0916002AD3089
:10080A001CF0E1E0E09360020E94C5070E946907BC
:10081A0071F0C89BFECFE0916002E150E093600264
:10082A00A0916002A1301CF4ECE0E09360020E9407
:10083A00BC070E94640769F0C99BFECFC394EC2DE4
:10084A00ACE7B0E00E945E08EFE1EC1514F4E1E0D9
:10085A00CE2E0E94C5070E94640769F0C89BFECF8E
:10086A00CA94EC2DACE7B0E00E945E08E1E0CE1637
:10087A0014F4EFE1CE2E0E94C5070E946E0799F08C
:10088A00C89BFECF0E9403073197FE93EE93A09177
:10089A006102B0916202119734F4E4E1F5E0E09369
:1008AA006102F09362020E94BC070E946E0739F04F
:1008BA00C99BFECF0E9403073196FE93EE93CB9914
:1008CA0006C0CB9BFECF1F5F133008F010E0CC9917
:1008DA0004C0CC9BFECFE0E003C00E9457075ACF6A
:1008EA00188162960895BA93AA931A930A93AA81D1
:1008FA00BB8112960E943908309759F1AA81BB81AF
:10090A0014960E9439088F01309761F00230E0E0B6
:10091A001E0798F0F80131978F01AA81BB811496BE
:10092A00ED93FC93AA81BB811296ED91FD913196CC
:10093A00FE93EE933197AC81A083AA81BB810E947A
:10094A003908FF232AF0ED91FD913196FE93EE933B
:10095A0006C0AA81BB81EFEFFFEFED93FC931981EB
:10096A00088125960895BA93AA9326970E946F083C
:10097A0010E0AC85BD85E0E0F0E0ED93FC93EA89F8
:10098A00FB893196EA8BFB8B3197E4912E2FE0306D
:10099A0009F415C1E12FE03039F4253211F411E0E0
:1009AA0002C00E94CE070AC1E130A9F4253219F427
:1009BA000E94CE0702C112E040E000E02D3211F49D
:1009CA0001E0FCC02B3211F44BE2F8C0203211F4E2
:1009DA0040E2F4C002C0E23039F450E013E02033C0
:1009EA0011F40068EBC003C0E33009F0E7C020331C
:1009FA0010F02A3308F007C0AAE05A9F502DE22FC0
:100A0A00E0535E0FDBC0E22FE33649F40E94D507BC
:100A1A00E889F989A481AA930E94DB07CEC0E3374B
:100A2A0041F40E94D5070E94E1070E94E2061E2FA8
:100A3A000AC0E03761F40E94D5070E94E1070E94CC
:100A4A00EE061E2F086002600F7730E034C0E436ED
:100A5A0011F0E93611F4046002C0E53731F4E4E537
:100A6A00F0E0EE83FF8315E00CC0E83511F408606E
:100A7A0003C0E83709F0A1C0EEE5F0E0EE83FF839A
:100A8A0014E002FF14C00E94D5070E94EB07AB8551
:100A9A00AA233AF4EA85FB850E941608EA87FB87AF
:100AAA004DE2403011F01F5F01C00B7F04C00E946D
:100ABA00D5070E94EB0700FD11C0151778F407FF50
:100ACA0008C002FF04C00B7F242F115001C020E38D
:100ADA0001C020E20E94CE075150EFCF312F01FF13
:100AEA0017C03030A1F003FF06C0EE81FF812591C7
:100AFA00EE83FF8305C0AE81BF812D91AE83BF8394
:100B0A000E94CE07503009F051503150EACF4BC005
:100B1A0020E3EE81FF810E943D08E887F987EE8194
:100B2A00FF813296EE83FF83E885F985AA85BB8526
:100B3A00AE17BF0750F02F5FA885B985EA85FB85F8
:100B4A00EA1BFB0BEA87FB87EFCF2A3328F003FF68
:100B5A0002C0295F01C0295D04FD1AC0213320F4B7
:100B6A00A885B985119709F409C0531710F000FF39
:100B7A0001C013C020E207FF0BC020E3006102FF9F
:100B8A0007C00B7F4A930E94DB07503009F051508F
:100B9A000E94CE07503009F051503150A885B985CE
:100BAA00129708F0B5CF00FF08C0503031F051500D
:100BBA00E0E2EA930E94DB07F8CF10E0E0CEAC85D2
:100BCA00BD850E9439080E94760864960895FF92AE
:100BDA00F82E26970E9471080E94F307309719F49D
:100BEA00EFEFFFEF23C0DE0116960E9412088D0177
:100BFA000E94F307EE83FF83E0E0E887E987DE01DE
:100C0A001A960E9412080E943908FA93EA931A93D4
:100C1A000A93E8E7F4E0FA93EA93DE011A96A3DE70
:100C2A009F01AE81BF81E0E0EC93F9010E94780850
:100C3A002A96FF900895AA93E881E07111F0C39A69
:100C4A0001C0C398E881E07211F0C49A01C0C49847
:100C5A00E881E07411F0C59A01C0C598E881E0788E
:100C6A0011F0C69A01C0C6988DE08A95F1F7C29A2A
:100C7A008DE08A95F1F7C2988DE08A95F1F79BC0CD
:100C8A00AA93A881D8DFE881E295E883A881D3DF17
:100C9A0085E88A95F1F78FC0AA93E881F0E0ED59CB
:100CAA00FD4FE081A981AE0FEBDFE981E093670296
:100CBA00E881E093680222960895A2E00E94FA076A
:100CCA00ACE0DEDFA1E00E94FA07E0E0E093680210
:100CDA00E09367020895AA93A881AA3031F0E091BF
:100CEA006902A0916702AE1760F0E0E0EA93A09172
:100CFA006802AF5FA0936802CFDFA881AA3009F427
:100D0A005AC0E0916702EF5FE0936702C09AA88138
:100D1A00B7DFC09850C0BA93AA931A93A981BA812F
:100D2A00ED91A983BA831E2FE03019F0A12FD3DFEA
:100D3A00F5CF10C0BA93AA931A93E981FA81319632
:100D4A00E983FA833197E4911E2FE03019F0A12F3D
:100D5A00C2DFF3CF188123960895AA93BB9ABC9A4F
:100D6A00BD9ABE9ABA9AB89AB99AC298C098C198C6
:100D7A00E881E0936902E058E0936502E881E05473
:100D8A00E0936602A4E1B0E00E9408080E9400080D
:100D9A000E9400080E940008A0E24DDF88EC90E063
:100DAA000197F1F7A8E26CDFA4E06ADFA5E868DF43
:100DBA00A6E066DF82DF21960895BA93AA93A991E5
:100DCA00B991EE27FF276D91662311F03196FBCF7B
:100DDA000895BA93AA93AA27BB27E991F991059096
:100DEA00002011F01196FBCFFD010895E1E0CE2E0F
:100DFA00E0916002EF5FE09360020895A1E6B2E03D
:100E0A00ED91FD9108950A921A92FA926A937A9351
:100E1A008A939A93AA93BA93EA93FA93EFB7EA93C7
:100E2A0008950E949F06A4EFB1E00C940808A92D2A
:100E3A00B0E0A7FDBFEFE82DF0E0E7FDFFEFAE0F52
:100E4A00BF1F1A970895E0E0EA93A1E00C945106B7
:100E5A00ACE7B0E00E944A080895AA2DE0E00E949B
:100E6A0025080E2EAB2DE0E00E9425080E22AD2D9E
:100E7A00E0E00E942508E02108950E941A080E94D5
:100E8A0041080895E0916102F09162020E942008EF
:100E9A000E9441080895FE01FA93EA930895DE013B
:100EAA000C949006A9E1B0E00C940808A0E0CA9955
:100EBA00A1E0E0E00E9425080E2EA12F0895E0E0AF
:100ECA000E942508E0210895E1E00E942508E0211A
:100EDA000895E2E00E942508E021089584E00E9436
:100EEA00EC0528960E946206DACFA0E0C999A1E033
:100EFA00E0E00E9425080E2EA0E0F0FCA1E0089593
:100F0A00A0E0C899A1E0E0E00E9425080E2EA0E02A
:100F1A00F0FCA1E008950E2EA0E0F0FCA1E0CFCFF6
:100F2A000E9434080E22A0E0F0FCA1E0CDCF01E03F
:100F3A001F5FE894F0F80895F0E0EE0FFF1FAE0F80
:100F4A00BF1F0E944608662777270E944108089516
:100F5A00FE013196FA93EA93089584E00E94EC0523
:100F6A0028960E946206DE0111960C949006A0E073
:100F7A00C999A1E0E0E00E9425080E2EA12F08954C
:100F8A00A0E0C899A1E0E0E00E9425080E2EA12F5A
:100F9A0008952A93AD85BE85EF85F8890995089548
:100FAA00E889F9893497E88BF98B0895AD85BE8570
:100FBA00EF85F88909950895A889B98914960E9438
:100FCA003908EE83FF83AE81BF810895A889B98964
:100FDA0014960E943908EA87FB870895DE011C9659
:100FEA000E9412080E94390808950E944506A3E04B
:100FFA00B0E00C940808A0E30E94200688EC90E078
:10100A000197F1F70895109639F0A89580ED97E0C9
:10101A000197F1F71197C9F708950024AF0DB01D94
:10102A000895F195E195F0400895FE2FFF0FFF0B0B
:10103A006F2F7F2F08956F2F660F660B762F0895F7
:10104A00EA17E1E009F0EE270895EA17E1E008F46B
:10105A00EE270895AE17E1E008F0EE270895EA17A3
:10106A00E1E008F0EE270895ED91FC9111970895BB
:10107A000590F491E02D08957A936A93FA93EA938E
:10108A000895119602D0FE2F1197E199FECFFF9392
:10109A00FFB7F894AEBBBFBBE09AEDB3FFBFFF91B9
:1010AA00089507D01196EF93EF2F03D0EF91119780
:1010BA000895E19B02C0A895FCCF9FB7F894AEBBF8
:1010CA00BFBBE09A8DB3E81719F0EDBBE29AE19A3B
:1010DA009FBF08955A934A933A932A931A930A936D
:1010EA0008955D814C813B812A8119810881089587
:00000001FF
