:0E0000000C94BC000C943A010C9453010C9427
:10000E0000000C9400000C94EB000C9400000C9477
:10001E0000000C9400000C9400000C9400000C9452
:10002E0000000C9400000C9400000C9400000C9442
:10003E0000000C9400000C9400000C9400000C9432
:10004E0000000C9400001027E80364000A00010071
:10005E00001000011000010000000064000000000C
:10006E000000010001007A05736176696E672064F5
:10007E00617461005A3D25642025642F25642F2567
:10008E00640025643A25643A25642020523D256497
:10009E0020002046756C6C0020456D700054696D13
:1000AE00652053657474696E67203E3E00494E2686
:1000BE004F555420536561726368203E3E00526571
:1000CE0073657276655F5061726B203E3E005365BC
:1000DE00742064617461203E3E00536574206D6926
:1000EE006E3D256420203E0053657420686F757246
:1000FE003D256420203E0025642F25642F25642095
:10010E0000696E3D2564206F75743D25640052654F
:10011E007365727665643D256400536574206D6F5A
:10012E006E74683D256420203E0053657420646122
:10013E00793D256420203E005365742079656172F7
:10014E003D256420203E000080C0010002006600B4
:10015E000A000400680001006002720002006102E1
:10016E0074000200630256010000F894EE27ECBB07
:10017E00F1E0F5BFE5BFF8E1F1BDE1BD8DE0A2E034
:10018E00BB27ED938A95E9F780E098E0A0E6ED9322
:10019E000197E9F7E8E5F1E085919591009761F017
:1001AE00A591B59105901590BF01F00105900D92A6
:1001BE000197E1F7FB01F0CFEFE5EDBFE8E0EEBF11
:1001CE00C0E6D2E00C9472010A92AA93BA93EA9313
:1001DE00FA93EFB7EA93EBE3ED1571F4DD24EB152B
:1001EE0049F4BB24E7E1EA1519F4AA24C39401C02B
:1001FE00A39401C0B39401C0D394AC2DEEE10E9440
:10020E00EF060E941F08E02111F00E94F606AC2DA9
:10021E00EFE10E94EF060E941A08E02111F00E9401
:10022E00F606AC2DEDE10E941F080E2EA091600285
:10023E00ECE00E941508E02111F00E94F606A09154
:10024E006002AD3044F0E1E0E09360020E94FE06F1
:10025E003196FE93EE93E991EFBFF991E991B99141
:10026E00A991099018950E9403075394F4013196B1
:10027E004F010E940A072CF0E4E6E4195E2E689402
:10028E0001C0E89421F8E0E0E5151CF055246894CF
:10029E0001C0E89420F818C00E9403075A94F30195
:1002AE0031963F01E0E0E5151CF05524689401C03D
:1002BE00E89420F80E940A072CF0E4E6E4195E2E7A
:1002CE00689401C0E89421F8E991EFBFF991E991A2
:1002DE00B991A9911895A297EBB7E06CEBBFEBE043
:1002EE00E5BFE0E0E4BFE0ECEABFA0E10E94A606B5
:1002FE000E9456060E941807ACE2B1E00E94F80771
:10030E00E8E0E2BDE5E0E5BDE0E0E4BDE3BDE0E44C
:10031E00E9BFEFE1EBBB0E941D07CE2E7894541877
:10032E00CA9903C0CA9BFECF7BD00E94220781F1DF
:10033E000E941D07A0E0B0E0F0E0EE0FFF1FAE0F31
:10034E00BF1FF3010E9450080E941D07AEE3B0E0EC
:10035E00F0E0EE0FFF1FAE0FBF1FF4010E9450081A
:10036E000E941D07EF5F0E9458080E941D07EF3183
:10037E0028F0ACE7B0E0E0E00E9458080E942207A7
:10038E0039F00E945606A6E7B0E00E949306F6CF1B
:10039E00FE017196FA93EA93E2E8F0E0FA93EA939B
:1003AE00E52D0E9432070E943707E09160020E94FD
:1003BE003207EC2D0E94320780E10E94E005649620
:1003CE000E944007E0E9F0E0FA93EA93EA2D0E94DA
:1003DE003207EB2D0E943207ED2D0E943207E42DDD
:1003EE000E94320780E10E94E00564960E94560644
:1003FE00DE0151960E94840620FE04C0A0EAB0E001
:10040E000E94930621FE04C0A6EAB0E00E94930665
:10041E000E9418070E9444070E94470781CFFFCF12
:10042E001A9310E0103031F40E945606ABEAB0E099
:10043E000E949306113031F40E945606ABEBB0E0E9
:10044E000E949306123031F40E945606ACECB0E0D6
:10045E000E949306133031F40E945606ACEDB0E0C4
:10046E000E949306CB9906C0CB9BFECF1F5F143024
:10047E0008F010E0CC9904C0CC9BFECFE0E025C084
:10048E000E944B070E94540719F0CA9BFECF1FD043
:10049E000E944B070E94590719F0CA9BFECF78D0D5
:1004AE000E944B070E945E0719F0CA9BFECF37D100
:1004BE000E944B07E3E00E941508E02119F0CA9B49
:1004CE00FECF57D10E944707ADCF19910895FF92E5
:1004DE006197FF24F0FC0BC00E944007E8EEF0E0AD
:1004EE00FA93EA93EB2D0E9432070E946307F0FE07
:1004FE000BC00E944007E6EFF0E0FA93EA93EA2D74
:10050E000E9432070E9463070E946A070E945407E6
:10051E0039F0C99BFECFB394EBE3EB150CF4BB247F
:10052E000E9475070E94540741F0C89BFECFBA94F3
:10053E00E0E0BE1614F4EBE3BE2E0E946A070E94A2
:10054E00590739F0C99BFECFA394E7E1EA150CF4E5
:10055E00AA240E9475070E94590741F0C89BFECF3E
:10056E00AA94E0E0AE1614F4E7E1AE2ECB9904C0E7
:10057E00CB9BFECFE1E0FE26CC9904C0CC9BFECFF8
:10058E00E0E003C00E944707A5CF6196FF90089553
:10059E00FF92A2971A930A93FF24109160020E9471
:1005AE001D070E2FC9993BC0C99BFECF0F5F0E943E
:1005BE001D07A02F0E942E080E94800731F00E9476
:1005CE001D070E2F11506894F0F8A12FE6E00E943F
:1005DE0024080E2EA02FEFE10E94850711F00E9435
:1005EE008C07A12FE6E00E942E080E2EA02FEEE122
:1005FE000E94850711F00E948C07A12FECE00E944B
:10060E0015080E2EA02FEDE10E94850711F00E9415
:10061E008C07103009F41CE01D3008F011E0C89969
:10062E0034C0C89BFECF0150A02FE0E00E941508F9
:10063E000E94800791F01150103009F41CE01D301B
:10064E0008F011E0173008F40FE1173008F00EE152
:10065E001C3009F40DE16894F0F80E941D07A02FDC
:10066E000E9429080E2EA0E0F0FCA1E00E9459077E
:10067E0031F00E941D070E2F1F5FE894F0F8103026
:10068E0009F41CE01D3008F011E0FE017396FA9398
:10069E00EA93E5E0F1E0FA93EA930E943707E12F3F
:1006AE00FF27662777270E943B08E02FFF27662744
:1006BE0077270E943B088CE00E94E0056096FE01C1
:1006CE003296FA93EA93EFE0F1E0FA93EA93E02F91
:1006DE00A0E0B0E00E949107E02FAEE3B0E00E94F0
:1006EE00910788E00E94E0052C960E945606DE01D6
:1006FE0053960E9484060E941807DE0112960E94ED
:10070E008406CC9904C0CC9BFECFE0E003C00E94CF
:10071E00470748CF19810881A496FF9008956197E5
:10072E000E944007ECE1F1E0FA93EA93E42D0E9477
:10073E0032070E946307C99903C0C99BFECF439439
:10074E00E4E64E1614F0E3E64E2EC89903C0C89B9D
:10075E00FECF4A94E0E0E4150CF04424CC9904C09A
:10076E00CC9BFECFE0E003C00E944707D9CF619635
:10077E00089561971A9310E0113061F40E949D075D
:10078E00E8E2F1E0FA93EA93E09160020E94320708
:10079E000E94A207103059F40E949D07E8E3F1E091
:1007AE00FA93EA93EC2D0E9432070E94A2071230B0
:1007BE0051F40E949D07E6E4F1E0FA93EA930E9459
:1007CE0037070E94A2070E94AC070E94590771F0DA
:1007DE00C99BFECFE0916002EF5FE0936002A091B3
:1007EE006002AD301CF0E1E0E09360020E94B507BC
:1007FE000E94590771F0C89BFECFE0916002E15054
:10080E00E0936002A0916002A1301CF4ECE0E09352
:10081E0060020E94AC070E94540769F0C99BFECF8C
:10082E00C394EC2DACE7B0E00E945808EFE1EC1554
:10083E0014F4E1E0CE2E0E94B5070E94540769F031
:10084E00C89BFECFCA94EC2DACE7B0E00E945808CE
:10085E00E1E0CE1614F4EFE1CE2E0E94B5070E9411
:10086E005E0799F0C89BFECF0E94FE063197FE935D
:10087E00EE93A0916102B0916202119734F4E4E11B
:10088E00F5E0E0936102F09362020E94AC070E94D1
:10089E005E0739F0C99BFECF0E94FE063196FE938D
:1008AE00EE93CB9906C0CB9BFECF1F5F133008F0A3
:1008BE0010E0CC9904C0CC9BFECFE0E003C00E94B8
:1008CE0047075ACF188162960895BA93AA931A933E
:1008DE000A93AA81BB8112960E943308309759F170
:1008EE00AA81BB8114960E9433088F01309761F064
:1008FE000230E0E01E0798F0F80131978F01AA81CF
:10090E00BB811496ED93FC93AA81BB811296ED9157
:10091E00FD913196FE93EE933197AC81A083AA811F
:10092E00BB810E943308FF232AF0ED91FD91319691
:10093E00FE93EE9306C0AA81BB81EFEFFFEFED931E
:10094E00FC931981088125960895BA93AA93269748
:10095E000E94690810E0AC85BD85E0E0F0E0ED9303
:10096E00FC93EA89FB893196EA8BFB8B3197E491F4
:10097E002E2FE03009F415C1E12FE03039F4253285
:10098E0011F411E002C00E94BE070AC1E130A9F4C1
:10099E00253219F40E94BE0702C112E040E000E0C9
:1009AE002D3211F401E0FCC02B3211F44BE2F8C0F1
:1009BE00203211F440E2F4C002C0E23039F450E0CB
:1009CE0013E0203311F40068EBC003C0E33009F0EC
:1009DE00E7C0203310F02A3308F007C0AAE05A9F70
:1009EE00502DE22FE0535E0FDBC0E22FE33649F4C9
:1009FE000E94C507E889F989A481AA930E94CB07B2
:100A0E00CEC0E33741F40E94C5070E94D1070E9471
:100A1E00D6061E2F0AC0E03761F40E94C5070E9459
:100A2E00D1070E94E2061E2F086002600F7730E0A9
:100A3E0034C0E43611F0E93611F4046002C0E53733
:100A4E0031F4E4E5F0E0EE83FF8315E00CC0E83509
:100A5E0011F4086003C0E83709F0A1C0EEE5F0E03C
:100A6E00EE83FF8314E002FF14C00E94C5070E94AC
:100A7E00DB07AB85AA233AF4EA85FB850E940608BC
:100A8E00EA87FB874DE2403011F01F5F01C00B7FFC
:100A9E0004C00E94C5070E94DB0700FD11C0151798
:100AAE0078F407FF08C002FF04C00B7F242F1150FB
:100ABE0001C020E301C020E20E94BE075150EFCFDB
:100ACE00312F01FF17C03030A1F003FF06C0EE81B9
:100ADE00FF812591EE83FF8305C0AE81BF812D91ED
:100AEE00AE83BF830E94BE07503009F05150315083
:100AFE00EACF4BC020E3EE81FF810E943708E887E2
:100B0E00F987EE81FF813296EE83FF83E885F985C2
:100B1E00AA85BB85AE17BF0750F02F5FA885B98594
:100B2E00EA85FB85EA1BFB0BEA87FB87EFCF2A33AF
:100B3E0028F003FF02C0295F01C0295D04FD1AC021
:100B4E00213320F4A885B985119709F409C05317EC
:100B5E0010F000FF01C013C020E207FF0BC020E31E
:100B6E00006102FF07C00B7F4A930E94CB075030F3
:100B7E0009F051500E94BE07503009F051503150CB
:100B8E00A885B985129708F0B5CF00FF08C0503080
:100B9E0031F05150E0E2EA930E94CB07F8CF10E01B
:100BAE00E0CEAC85BD850E9433080E947008649625
:100BBE000895FF92F82E26970E946B080E94E30775
:100BCE00309719F4EFEFFFEF23C0DE0116960E9467
:100BDE0002088D010E94E307EE83FF83E0E0E887C1
:100BEE00E987DE011A960E9402080E943308FA93E2
:100BFE00EA931A930A93ECE6F4E0FA93EA93DE0191
:100C0E001A96A3DE9F01AE81BF81E0E0EC93F9015D
:100C1E000E9472082A96FF900895AA93E881E071C7
:100C2E0011F0C39A01C0C398E881E07211F0C49A22
:100C3E0001C0C498E881E07411F0C59A01C0C5984E
:100C4E00E881E07811F0C69A01C0C6988DE08A95C9
:100C5E00F1F7C29A8DE08A95F1F7C2988DE08A95E8
:100C6E00F1F79BC0AA93A881D8DFE881E295E883CB
:100C7E00A881D3DF85E88A95F1F78FC0AA93E88122
:100C8E00F0E0ED59FD4FE081A981AE0FEBDFE98178
:100C9E00E0936702E881E093680222960895A2E04D
:100CAE000E94EA07ACE0DEDFA1E00E94EA07E0E086
:100CBE00E0936802E09367020895AA93A881AA3090
:100CCE0031F0E0916902A0916702AE1760F0E0E0AA
:100CDE00EA93A0916802AF5FA0936802CFDFA8816C
:100CEE00AA3009F45AC0E0916702EF5FE093670201
:100CFE00C09AA881B7DFC09850C0BA93AA931A932E
:100D0E00A981BA81ED91A983BA831E2FE03019F023
:100D1E00A12FD3DFF5CF10C0BA93AA931A93E9810E
:100D2E00FA813196E983FA833197E4911E2FE030F0
:100D3E0019F0A12FC2DFF3CF188123960895AA933D
:100D4E00BB9ABC9ABD9ABE9ABA9AB89AB99AC298E8
:100D5E00C098C198E881E0936902E058E09365027B
:100D6E00E881E054E0936602A4E1B0E00E94F80747
:100D7E000E94F0070E94F0070E94F007A0E24DDFEC
:100D8E0088EC90E00197F1F7A8E26CDFA4E06ADF4F
:100D9E00A5E868DFA6E066DF82DF21960895BA93A4
:100DAE00AA93A991B991EE27FF276D91662311F0B1
:100DBE003196FBCF0895BA93AA93AA27BB27E99140
:100DCE00F9910590002011F01196FBCFFD010895C9
:100DDE000E941F080E2EA0916002E6E00895E1E049
:100DEE00CE2EE0916002EF5FE09360020895A1E6DF
:100DFE00B2E0ED91FD910895AA93BA93EA93FA9316
:100E0E00EFB7EA930895A52DB0E0A7FDBFEFE42D4F
:100E1E00F0E0E7FDFFEFAE0FBF1FA436E0E0BE0728
:100E2E000895E0E0EA93A1E00C944506ACE7B0E04B
:100E3E000E9444080895AA2DE0E00E9415080E2E87
:100E4E00AB2DE0E00E9415080E22AD2DE0E00E94D1
:100E5E001508E02108950E940A080E943B08089593
:100E6E00E0916102F09162020E9410080E943B081C
:100E7E000895FE01FA93EA930895DE010C94840618
:100E8E00A9E1B0E00C94F807A0E0CA99A1E0E0E077
:100E9E000E9415080E2EA12F0895E0E00E9415085D
:100EAE00E0210895E1E00E941508E0210895E2E0B6
:100EBE000E941508E021089584E00E94E00528961E
:100ECE000E945606DACFA0E0C999A1E0E0E00E94A8
:100EDE0015080E2EA0E0F0FCA1E00895A0E0C89940
:100EEE00A1E0E0E00E9415080E2EA0E0F0FCA1E0CB
:100EFE0008950E2EA0E0F0FCA1E0CFCF0E942E08A8
:100F0E000E22A0E0F0FCA1E0CDCF01E01F5FE8943F
:100F1E00F0F80895F0E0EE0FFF1FAE0FBF1F0E9416
:100F2E004008662777270E943B080895FE013196F8
:100F3E00FA93EA93089584E00E94E00528960E94B1
:100F4E005606DE0111960C948406A0E0C999A1E024
:100F5E00E0E00E9415080E2EA12F0895A0E0C8997A
:100F6E00A1E0E0E00E9415080E2EA12F08952A930D
:100F7E00AD85BE85EF85F88909950895E889F989CB
:100F8E003497E88BF98B0895AD85BE85EF85F8898A
:100F9E0009950895A889B98914960E943308EE839D
:100FAE00FF83AE81BF810895A889B98914960E94E6
:100FBE003308EA87FB870895DE011C960E9402081B
:100FCE000E94330808950E943906A3E0B0E00C9405
:100FDE00F807A0E30E94140688EC90E00197F1F761
:100FEE000895109639F0A89580ED97E00197F1F7E6
:100FFE001197C9F708950024AF0DB01D0895F1950E
:10100E00E195F0400895FE2FFF0FFF0B6F2F7F2FFE
:10101E0008956F2F660F660B762F0895EA17E1E09D
:10102E0009F0EE270895EA17E1E00CF4EE27089593
:10103E00EA17E1E00CF0EE270895EA17E1E008F474
:10104E00EE270895AE17E1E008F0EE270895EA17AF
:10105E00E1E008F0EE270895ED91FC9111970895C7
:10106E000590F491E02D08957A936A93FA93EA939A
:10107E000895119602D0FE2F1197E199FECFFF939E
:10108E00FFB7F894AEBBBFBBE09AEDB3FFBFFF91C5
:10109E00089507D01196EF93EF2F03D0EF9111978C
:1010AE000895E19B02C0A895FCCF9FB7F894AEBB04
:1010BE00BFBBE09A8DB3E81719F0EDBBE29AE19A47
:1010CE009FBF08955A934A933A932A931A930A9379
:1010DE0008955D814C813B812A8119810881089593
:00000001FF
