:020000000C945E
:10000200D4000C9461010C9484010C9400000C94B3
:1000120000000C9403010C9400000C9400000C945A
:1000220000000C9400000C9400000C9400000C944E
:1000320000000C9400000C9400000C9400000C943E
:1000420000000C9400000C9400000C9400000C942E
:1000520000001027E80364000A00010000100001FC
:10006200100001000200000000000A00000032003F
:100072000A003B0017001D000C007A05456D7074E4
:10008200790046756C6C00736176696E67206461F5
:10009200746100433D25642025642F25642F256467
:1000A2000025643A25643A25642020523D256420C7
:1000B2000054696D652053657474696E67203E3E15
:1000C20000494E264F555420536561726368203EA5
:1000D2003E00526573657276655F5061726B203EB9
:1000E2003E005365742064617465203E3E00536592
:1000F20074206D696E3D256420203E005365742096
:10010200686F75723D256420203E004F7574206F24
:100112006620696E6465782E00696E3D2564206FE5
:1001220075743D256420256420256400526573653D
:10013200727665643D256400536574206D6F6E743C
:10014200683D256420203E00536574206461793D3A
:10015200256420203E0053657420796561723D2537
:100162006420203E000080C00100020066000A00F8
:10017200040068000100F80274000100FA0276002F
:100182000100FC0278000100FE027A000200000376
:100192007C000E0060020D010E006E020D010200D5
:1001A200020368010000F894EE27ECBBF1E0F5BF12
:1001B200E5BFF8E1F1BDE1BD8DE0A2E0BB27ED9323
:1001C2008A95E9F780E098E0A0E6ED930197E9F7D8
:1001D200EAE6F1E085919591009761F0A591B591DC
:1001E20005901590BF01F00105900D920197E1F77E
:1001F200FB01F0CFEFE5EDBFE8E0EEBFC0E6D2E0F5
:100202000C94B401AA93BA93EA93FA93EFB7EA93E0
:10021200EBE3F0E0EC15FD0511F5CC24DD240E94A2
:100222005907DB97C9F4E0E0E093F802E093F902A2
:100232000E945E07579741F4E0E0E093FA02E093F0
:10024200FB02ACEFB2E002C0AAEFB2E0ED91FD9189
:100252003196FE93EE9302C00E94630703C0F6013B
:1002620031966F010E946B07179738F40E9470074E
:10027200909710F00E94750711C00E946B071C979F
:1002820039F40E9470075E9710F00E94750706C04D
:100292000E9470075F9710F00E9475070E946B071B
:1002A2001D9738F00E9483070E948A073196FE93B9
:1002B200EE93E991EFBFF991E991B991A99118955E
:1002C2000E948F0721FE07C00E94C706AEE7B0E07A
:1002D2000E949D0717C08394F30131963F01319725
:1002E2000E94A3072CF0EAE0EB198E2E689401C05D
:1002F200E89421F8E0E0E8151CF08824689401C035
:10030200E89420F822C00E948F0720FE07C00E94B6
:10031200C706A4E8B0E00E949D0717C08A94F201C4
:1003220031962F013197E0E0E8151CF0882468949B
:1003320001C0E89420F80E94A3072CF0EAE0EB1930
:100342008E2E689401C0E89421F8E991EFBFF991EB
:10035200E991B991A9919991899179916991F990CC
:10036200199009901895A297EBB7E06CEBBFEBE000
:10037200E5BFE0E0E4BFE0ECEABFA0E10E941007C5
:100382000E94C7060E94AF070E94B407E8E0E2BDE0
:10039200E5E0E5BDE0E0E4BDE3BDE0E4E9BFEFE1B7
:1003A200EBBB78948B18CA9903C0CA9BFECF74D05A
:1003B2000E94B807D1F1E92D0E94CB0740825182F9
:1003C200E92D0E94D30760827182EFE19E1610F13F
:1003D2002197E0E0E883A881AF31D0F4E8810E9460
:1003E200CB070F01A881BB27AA0FBB1FA258BD4F85
:1003F2000E94DB070E94D3070F01A881BB27AA0F27
:10040200BB1FA454BD4F0E94DB07EF5FE883E3CF1D
:10041200219601C093940E94B80739F00E94C70642
:10042200A9E8B0E00E94FD06F6CFFE017196FA93AC
:10043200EA93E5E9F0E0FA93EA93E82D0E94E207F5
:100442000E94E7070E94F0070E94F90780E10E94DC
:10045200530664960E940208E3EAF0E00E9406084E
:100462000E941108F601662777270E94FE08EB2DED
:100472000E94E20780E10E94530664960E94C7062A
:10048200DE0151960E94EE060E94AF070E941A08F2
:100492000E941D0888CFFFCF1A9310E0103031F46C
:1004A2000E94C706A3EBB0E00E94FD06113031F4B2
:1004B2000E94C706A3ECB0E00E94FD06123031F4A0
:1004C2000E94C706A4EDB0E00E94FD06133031F48D
:1004D2000E94C706A4EEB0E00E94FD06CB9906C0BA
:1004E200CB9BFECF1F5F143008F010E0CC9904C004
:1004F200CC9BFECFE0E025C00E9421080E942A0882
:1005020019F0CA9BFECF1FD00E9421080E942F081B
:1005120019F0CA9BFECF98D00E9421080E9434088D
:1005220019F0CA9BFECF6BD10E942108E3E00E9422
:10053200EB08E02119F0CA9BFECF93D10E941D085F
:10054200ADCF19910895FF926197FF24F0FC0AC084
:100552000E940208E0EFF0E0FA93EA930E94110889
:100562000E943908F0FE08C00E940208EEEFF0E097
:100572000E9406080E9439080E9440080E942A0828
:1005820069F0C99BFECF0E9463070E945907DC975E
:1005920028F0E0E0E093F802E093F9020E944B08B1
:1005A2000E942A0899F0C89BFECFE091F802F091D0
:1005B200F902309739F4EBE3F0E0E093F802F093BC
:1005C200F90204C0A8EFB2E00E9456080E94400857
:1005D2000E942F0879F0C99BFECFAAEFB2E00E94D9
:1005E2005C080E945E07589728F0E0E0E093FA0268
:1005F200E093FB020E944B080E942F0899F0C89BCF
:10060200FECFE091FA02F091FB02309739F4E7E174
:10061200F0E0E093FA02F093FB0204C0AAEFB2E02A
:100622000E945608CB9904C0CB9BFECFE1E0FE2688
:10063200CC9904C0CC9BFECFE0E003C00E941D0811
:1006420085CF6196FF900895A4970E9403090091B7
:100652000003109101032091FE023091FF024091AC
:10066200FC025091FD02E92DF0E0EE83FF83C9996F
:100672003BC0C99BFECFAE81BF815E9749F40E9409
:10068200C706A0E6B2E00E94EE060E94B4072CC0A4
:100692004F5F5F4FEE81FF813196EE83FF832730FC
:1006A200E0E03E073CF44032E0E05E0714F00E94D6
:1006B200620812C0ECE0F0E0E217F30739F44E31C1
:1006C200E0E05E0714F00E94620806C04F31E0E0ED
:1006D2005E0714F00E9462082D30E0E03E0724F02D
:1006E20021E030E00F5F1F4FC89943C0C89BFECF87
:1006F200EE81FF81309749F40E94C706AEE6B2E070
:100702000E94EE060E94B40734C0EE81FF81319749
:10071200EE83FF83E1E0F0E0E417F50741F5E2172D
:10072200F30729F42CE030E00150104002C02150C0
:1007320030402130E0E03E0724F02730E0E03E0781
:100742000CF002C04FE150E02730E0E03E0724F019
:100752002C30E0E03E070CF002C04EE150E0ECE04D
:10076200F0E0E217F30711F44DE150E002C041500E
:100772005040FE017996FA93EA93EAE9F0E0FA939F
:10078200EA93F8010E946708F9010E946708FA01DA
:100792000E9467088CE00E9453066096FE0138961C
:1007A200FA93EA93EBE1F1E0FA93EA93EA85FB85A7
:1007B200ACE7B2E00E946C08EE85FF85AAEBB2E0DE
:1007C2000E946C0888E00E9453062C960E94C7067D
:1007D200DE0159960E94EE060E94AF07DE011896CE
:1007E2000E94EE06CC9904C0CC9BFECFE0E003C091
:1007F2000E941D083CCF0E940A09AA96089561979B
:100802000E940208EEE2F1E0FA93EA93EB2D0E94D5
:10081200E2070E943908C99904C0C99BFECFB3946C
:100822008A94AB2DEAE0B0E0A7FDBFEFF0E0AE178F
:10083200BF0714F0E9E0BE2EC89904C0C89BFECFE2
:10084200BA948394E0E0EB150CF0BB24CC9904C07D
:10085200CC9BFECFE0E003C00E941D08D1CF619681
:10086200089561971A9310E0113051F40E947308B1
:10087200EAE3F1E0FA93EA930E94F0070E94780813
:10088200103051F40E947308EAE4F1E0FA93EA931B
:100892000E94F9070E947808123051F40E947308EE
:1008A200E8E5F1E0FA93EA930E94E7070E947808EC
:1008B2000E9482080E942F0861F0C99BFECFAEEF12
:1008C200B2E00E945C080E946B071D9710F00E9424
:1008D20083070E948B080E942F0881F0C89BFECFDD
:1008E200AEEFB2E00E9456080E946B07119730F4F7
:1008F200ECE0F0E0E093FE02F093FF020E94820837
:100902000E942A0891F0C99BFECFACEFB2E00E9490
:100912005C089090FC020E947007909730F0E1E032
:10092200F0E0E093FC02F093FD020E948B080E942B
:100932002A0891F0C89BFECFACEFB2E00E945608A5
:100942009090FC020E947007119730F4EFE1F0E002
:10095200E093FC02F093FD020E948B080E9434088F
:1009620099F0C89BFECF0E948A073197FE93EE93BF
:10097200A0910003B0910103119730F4E4E1F5E096
:10098200E0930003F09301030E9482080E9434085E
:1009920039F0C99BFECF0E948A073196FE93EE93EF
:1009A200CB9906C0CB9BFECF1F5F133008F010E03F
:1009B200CC9904C0CC9BFECFE0E003C00E941D088E
:1009C20053CF188162960895BA93AA931A930A9301
:1009D200AA81BB8112960E94F608309729F1AA815A
:1009E200BB8114960E94F6088F01309761F00230A5
:1009F200E0E01E0780F0F80131978F01AA81BB81E8
:100A02001496ED93FC93AA81BB8112960E945C0816
:100A12003197AC81A083AA81BB810E94F608FF2393
:100A220012F00E945C0806C0AA81BB81EFEFFFEFC3
:100A3200ED93FC931981088125960895BA93AA93A0
:100A420026970E94030910E0AC85BD85E0E0F0E046
:100A5200ED93FC93EA89FB893196EA8BFB8B319704
:100A6200E4912E2FE03009F415C1E12FE03039F482
:100A7200253211F411E002C00E9494080AC1E1304B
:100A8200A9F4253219F40E94940802C112E040E050
:100A920000E02D3211F401E0FCC02B3211F44BE2E4
:100AA200F8C0203211F440E2F4C002C0E23039F45E
:100AB20050E013E0203311F40068EBC003C0E330D0
:100AC20009F0E7C0203310F02A3308F007C0AAE08B
:100AD2005A9F502DE22FE0535E0FDBC0E22FE33628
:100AE20049F40E949B08E889F989A481AA930E948B
:100AF200A108CEC0E33741F40E949B080E94A708D8
:100B02000E9440071E2F0AC0E03761F40E949B0832
:100B12000E94A7080E944C071E2F086002600F77F0
:100B220030E034C0E43611F0E93611F4046002C05A
:100B3200E53731F4E4E5F0E0EE83FF8315E00CC025
:100B4200E83511F4086003C0E83709F0A1C0EEE50A
:100B5200F0E0EE83FF8314E002FF14C00E949B08C2
:100B62000E94B108AB85AA233AF4EA85FB850E946C
:100B7200DC08EA87FB874DE2403011F01F5F01C0BD
:100B82000B7F04C00E949B080E94B10800FD11C0A7
:100B9200151778F407FF08C002FF04C00B7F242F4B
:100BA200115001C020E301C020E20E94940851507C
:100BB200EFCF312F01FF17C03030A1F003FF06C085
:100BC200EE81FF812591EE83FF8305C0AE81BF8157
:100BD2002D91AE83BF830E949408503009F051508A
:100BE2003150EACF4BC020E3EE81FF810E94FA0828
:100BF200E887F987EE81FF813296EE83FF83E885ED
:100C0200F985AA85BB85AE17BF0750F02F5FA8856F
:100C1200B985EA85FB85EA1BFB0BEA87FB87EFCFE9
:100C22002A3328F003FF02C0295F01C0295D04FDB9
:100C32001AC0213320F4A885B985119709F409C097
:100C4200531710F000FF01C013C020E207FF0BC0D2
:100C520020E3006102FF07C00B7F4A930E94A108B4
:100C6200503009F051500E949408503009F0515010
:100C72003150A885B985129708F0B5CF00FF08C09A
:100C8200503031F05150E0E2EA930E94A108F8CFCF
:100C920010E0E0CEAC85BD850E94F6080E940A09EC
:100CA20064960895FF92F82E26970E9405090E94E5
:100CB200B908309719F4EFEFFFEF23C0DE01169663
:100CC2000E94D8088D010E94B908EE83FF83E0E0FC
:100CD200E887E987DE011A960E94D8080E94F60882
:100CE200FA93EA931A930A93E5EEF4E0FA93EA93FD
:100CF200DE011A96A3DE9F01AE81BF81E0E0EC9394
:100D0200F9010E940C092A96FF900895AA93E8819E
:100D1200E07111F0C39A01C0C398E881E07211F04A
:100D2200C49A01C0C498E881E07411F0C59A01C068
:100D3200C598E881E07811F0C69A01C0C6988DE0A6
:100D42008A95F1F7C29A8DE08A95F1F7C2988DE003
:100D52008A95F1F792C0AA93A881D8DFE881E2953B
:100D6200E883A881D3DF85E88A95F1F786C0AA9344
:100D7200E881F0E0EE5FFC4FE081A981AE0FEBDF8E
:100D8200A980E881E093060322960895A2E00E94DA
:100D9200C008ACE0E0DFA1E00E94C008E0E0E09320
:100DA2000603AE2E0895AA93A881AA3021F0E091FD
:100DB2000703AE1660F0E0E0EA93A0910603AF5F8E
:100DC200A0930603D4DFA881AA3009F456C0A394E5
:100DD200C09AA881C0DFC09850C0BA93AA931A9350
:100DE200A981BA81ED91A983BA831E2FE03019F04F
:100DF200A12FD9DFF5CF10C0BA93AA931A93E98134
:100E0200FA813196E983FA833197E4911E2FE0301B
:100E120019F0A12FC8DFF3CF188123960895AA9362
:100E2200BB9ABC9ABD9ABE9ABA9AB89AB99AC29813
:100E3200C098C198E881E0930703E058E093040367
:100E4200E881E054E0930503A4E1B0E00E94CE08FB
:100E52000E94C6080E94C6080E94C608A0E256DF89
:100E620088EC90E00197F1F7A8E275DFA4E073DF68
:100E7200A5E871DFA6E06FDF89DF21960895BA93B6
:100E8200AA93A991B991EE27FF276D91662311F0DC
:100E92003196FBCF0895BA93AA93AA27BB27E9916B
:100EA200F9910590002011F01196FBCFFD010895F4
:100EB200A091F802B091F9020895A091FA02B091BE
:100EC200FB020895A8EFB2E0ED91FD913196FE93F9
:100ED200EE930895A091FE02B091FF020895A091B1
:100EE200FC02B091FD020895E1E0F0E0E093FC0223
:100EF200F093FD02AEEFB2E0ED91FD913196FE93DB
:100F0200EE930895E1E0F0E0E093FE02F093FF0239
:100F12000895A0E0B3E0ED91FD9108950A921A922E
:100F2200FA926A937A938A939A93AA93BA93EA93D8
:100F3200FA93EFB7EA9308950E94FD06A4EFB1E099
:100F42000C94CE08A82DB0E0A7FDBFEFEB2DF0E08A
:100F5200E7FDFFEFAE0FBF1F1A970895E0E0EA9397
:100F6200A1E00C94B806ACE2B1E00C94CE08A5DF87
:100F7200E0E0F0E00E94F0080E2E9ADFE0E0F0E000
:100F82000E94F0080E22D601E0E0F0E00E94F00894
:100F9200E0210895ACE7B2E0F0E0EE0FFF1FEA0FA8
:100FA200FB1F0895AAEBB2E0F0E0EE0FFF1FEA0F7D
:100FB200FB1F08950E94F608D001ED93FC93E8818F
:100FC20008950E94E0080E94FE080895E09100033F
:100FD200F0910103662777270E94FE080895E091A9
:100FE200FE02F091FF02662777270E94FE0808950D
:100FF200E091FC02F091FD02662777270E94FE082D
:101002000895FE01FA93EA930895FA93EA93E09120
:10101200FA02F091FB02662777270E94FE080895E4
:10102200E091F802F091F902662777270E94FE0804
:101032000895DE010C94EE06A9E1B0E00C94CE080E
:10104200A0E0CA99A1E0E0E00E94EB080E2EA12FD9
:101052000895E0E00E94EB08E0210895E1E00E949B
:10106200EB08E0210895E2E00E94EB08E0210895F8
:1010720084E00E94530628960E94C706DACFA0E0B9
:10108200C999A1E0E0E00E94EB080E2EA0E0F0FC7E
:10109200A1E00895A0E0C899A1E0E0E00E94EB0879
:1010A2000E2EA0E0F0FCA1E00895ED91FD913197A4
:1010B200FE93EE930895ED91FD913196FE93EE939A
:1010C200089541E050E02F5F3F4F08950E94E608E7
:1010D2000E94FE080895EE0FFF1FAE0FBF1F0E9471
:1010E200F608F4CFFE013196FA93EA93089584E06C
:1010F2000E94530628960E94C706DE0111960C94A0
:10110200EE06A0E0C999A1E0E0E00E94EB080E2EF5
:10111200A12F0895A0E0C899A1E0E0E00E94EB08A9
:101122000E2EA12F08952A93AD85BE85EF85F889ED
:1011320009950895E889F9893497E88BF98B089520
:10114200AD85BE85EF85F88909950895A889B98985
:1011520014960E94F608EE83FF83AE81BF81089544
:10116200A889B98914960E94F608EA87FB87089530
:10117200DE011C960E94D8080E94F60808950E947B
:10118200AC06A3E0B0E00C94CE08A0E30E94870670
:1011920088EC90E00197F1F70895109639F0A89540
:1011A20080ED97E00197F1F71197C9F708950024B0
:1011B200AF0DB01D0895F195E195F0400895FE2F11
:1011C200FF0FFF0B6F2F7F2F08956F2F660F660B98
:1011D200762F0895EA17E1E009F0EE270895EA175D
:1011E200FB07E1E009F0EE270895ED91FC911197DC
:1011F20008950590F491E02D08957A936A93FA93F5
:10120200EA9308955A934A933A932A931A930A9324
:1012120008955D814C813B812A811981088108955D
:00000001FF
