:040000000C94C50097
:100004000C944F010C9472010C9400000C940000A9
:100014000C94F4000C9400000C9400000C94000068
:100024000C9400000C9400000C9400000C9400004C
:100034000C9400000C9400000C9400000C9400003C
:100044000C9400000C9400000C9400000C9400002C
:100054001027E80364000A000100001000011000EA
:100064000100020000000000000A32003B000A0008
:1000740017001D000C007A05456D707479004675F3
:100084006C6C00736176696E67206461746100430F
:100094003D25642025642F25642F25640025643ABA
:1000A40025643A25642020523D2564200054696D5E
:1000B400652053657474696E67203E3E00494E2680
:1000C4004F555420536561726368203E3E0052656B
:1000D40073657276655F5061726B203E3E005365B6
:1000E400742064617465203E3E00536574206D691C
:1000F4006E3D256420203E0053657420686F757240
:100104003D256420203E0025642F25642F2564208E
:1001140000696E3D2564206F75743D256400526549
:100124007365727665643D256400536574206D6F54
:100134006E74683D256420203E005365742064611C
:10014400793D256420203E005365742079656172F1
:100154003D256420203E000080C0010002006600AE
:100164000A000400680001006002740001006202D9
:100174007600010064027800020066027A00020040
:1001840068025C010000F894EE27ECBBF1E0F5BFD7
:10019400E5BFF8E1F1BDE1BD8DE0A2E0BB27ED9341
:1001A4008A95E9F780E098E0A0E6ED930197E9F7F6
:1001B400EEE5F1E085919591009761F0A591B591F7
:1001C40005901590BF01F00105900D920197E1F79C
:1001D400FB01F0CFEFE5EDBFE8E0EEBFC0E6D2E013
:1001E4000C94A201AA93BA93EA93FA93EFB7EA9311
:1001F400EBE3F0E0EA15FB05F9F4AA24BB24EC15C3
:10020400FD05B1F4CC24DD240E942707579741F45F
:10021400E0E0E0936002E0936102A2E6B2E002C093
:10022400A0E6B2E0ED91FD913196FE93EE9303C00A
:10023400F60131966F0103C0F50131965F010E940A
:100244002C07179738F40E943107909710F00E94FA
:10025400360711C00E942C071C9739F40E943107FD
:100264005E9710F00E94360706C00E9431075F9720
:1002740010F00E9436070E942C071D9738F00E9448
:1002840044070E944B073196FE93EE93E991EFBF2A
:10029400F991E991B991A99118950E94500721FE0D
:1002A40007C00E948E06ACE7B0E00E945E0717C04C
:1002B4009394F30131963F0131970E9464072CF027
:1002C400EAE0E8199E2E689401C0E89421F8E0E081
:1002D400E9151CF09924689401C0E89420F822C020
:1002E4000E94500720FE07C00E948E06A2E8B0E0DC
:1002F4000E945E0717C09A94F20131962F0131973C
:10030400E0E0E9151CF09924689401C0E89420F811
:100314000E9464072CF0EAE0E8199E2E689401C05C
:10032400E89421F8E991EFBFF991E991B991A99184
:100334009991899179916991F990199009901895F9
:10034400A297EBB7E06CEBBFEBE0E5BFE0E0E4BF06
:10035400E0ECEABFA0E10E94DE060E948E060E9445
:100364007007ACE2B1E00E948408E8E0E2BDE5E099
:10037400E5BDE0E0E4BDE3BDE0E4E9BFEFE1EBBBF4
:1003840078949818CA9903C0CA9BFECF69D00E947A
:10039400750781F10E948807A0E0B0E0F0E0EE0F5D
:1003A400FF1FAE0FBF1FF2010E94D3080E948807EF
:1003B400AEE3B0E0F0E0EE0FFF1FAE0FBF1FF3019E
:1003C4000E94D3080E948807EF5F0E94DB080E9406
:1003D4008807EF3128F0ACE7B0E0E0E00E94DB08EA
:1003E4000E94750739F00E948E06A7E8B0E00E94CB
:1003F400CB06F6CFFE017196FA93EA93E3E9F0E0B7
:10040400FA93EA93E92D0E948D070E9492070E94B5
:100414009B070E94A40780E10E94180664960E942C
:10042400AD07E1EAF0E00E94B107F6010E94BC07C3
:10043400F5010E94BC07E82D0E948D0780E10E940F
:10044400180664960E948E06DE0151960E94BC0630
:100454000E9470070E94C1070E94C40793CFFFCF78
:100464001A9310E0103031F40E948E06A1EBB0E034
:100474000E94CB06113031F40E948E06A1ECB0E04C
:100484000E94CB06123031F40E948E06A2EDB0E039
:100494000E94CB06133031F40E948E06A2EEB0E027
:1004A4000E94CB06CB9906C0CB9BFECF1F5F1430B6
:1004B40008F010E0CC9904C0CC9BFECFE0E025C04E
:1004C4000E94C8070E94D10719F0CA9BFECF1FD013
:1004D4000E94C8070E94D60719F0CA9BFECF90D08D
:1004E4000E94C8070E94DB0719F0CA9BFECF4FD1B8
:1004F4000E94C807E3E00E949C08E02119F0CA9B0F
:10050400FECF77D10E94C407ADCF19910895FF9211
:100514006197FF24F0FC0BC00E94AD07EEEEF0E003
:10052400FA93EA93F6010E94BC070E94E007F0FEEA
:1005340008C00E94AD07ECEFF0E00E94B1070E94F2
:10054400E0070E94E7070E94D10761F0C99BFECF34
:10055400F60131966F01EBE3F0E0EC15FD0510F4C4
:10056400CC24DD240E94F2070E94D10759F0C89BD5
:10057400FECF0C2C0D2819F4EBE3F0E002C0F601D9
:1005840031976F010E94E7070E94D60779F0C99B53
:10059400FECFA0E6B2E00E94FD070E94270758970D
:1005A40028F0E0E0E0936002E09361020E94F20729
:1005B4000E94D60799F0C89BFECFE0916002F091AB
:1005C4006102309739F4E7E1F0E0E0936002F093E0
:1005D400610204C0A0E6B2E00E940308CB9904C003
:1005E400CB9BFECFE1E0FE26CC9904C0CC9BFECF92
:1005F400E0E003C00E94C4078DCF6196FF90089588
:10060400FF92A2971A930A93FF24109164020E9406
:1006140088070E2FC9993BC0C99BFECF0F5F0E946C
:100624008807A02F0E94AB080E94090831F00E949D
:1006340088070E2F11506894F0F8A12FE6E00E946D
:10064400A1080E2EA02FEFE10E940E0811F00E94C7
:100654001508A12FE6E00E94AB080E2EA02FEEE1B4
:100664000E940E0811F00E941508A12FECE00E94D0
:100674009C080E2EA02FEDE10E940E0811F00E949E
:100684001508103009F41CE01D3008F011E0C89979
:1006940034C0C89BFECF0150A02FE0E00E949C080C
:1006A4000E94090891F01150103009F41CE01D302B
:1006B40008F011E0173008F40FE1173008F00EE1EC
:1006C4001C3009F40DE16894F0F80E948807A02F0B
:1006D4000E94A6080E2EA0E0F0FCA1E00E94D6071E
:1006E40031F00E9488070E2F1F5FE894F0F8103055
:1006F40009F41CE01D3008F011E0FE017396FA9332
:10070400EA93EBE0F1E0FA93EA930E949207E12F77
:10071400FF27662777270E94BE08E02FFF2766275A
:1007240077270E94BE088CE00E9418066096FE019E
:100734003296FA93EA93E5E1F1E0FA93EA93E02F33
:10074400A0E0B0E00E941A08E02FAEE3B0E00E94FF
:100754001A0888E00E9418062C960E948E06DE0174
:1007640053960E94BC060E947007DE0112960E94F6
:10077400BC06CC9904C0CC9BFECFE0E003C00E9431
:10078400C40748CF19810881A496FF900895619702
:100794000E94AD07E2E2F1E0FA93EA93E82D0E94A9
:1007A4008D070E94E007C99904C0C99BFECF8394BA
:1007B4009A94A82DEAE0B0E0A7FDBFEFF0E0AE17F1
:1007C400BF0714F0E9E08E2EC89904C0C89BFECF81
:1007D4008A949394E0E0E8150CF08824CC9904C042
:1007E400CC9BFECFE0E003C00E94C407D1CF61964A
:1007F400089561971A9310E0113051F40E94220871
:10080400EEE2F1E0FA93EA930E949B070E94270824
:10081400103051F40E942208EEE3F1E0FA93EA93D7
:100824000E94A4070E942708123051F40E94220853
:10083400ECE4F1E0FA93EA930E9492070E942708FD
:100844000E9431080E94D60761F0C99BFECFA4E63E
:10085400B2E00E94FD070E942C071D9710F00E9431
:1008640044070E943A080E94D60781F0C89BFECF35
:10087400A4E6B2E00E9403080E942C07119730F40A
:10088400ECE0F0E0E0936402F09365020E9431082A
:100894000E94D10781F0C99BFECFA2E6B2E00E947C
:1008A400FD070E944308909730F0E1E0F0E0E09308
:1008B4006202F09363020E943A080E94D10781F019
:1008C400C89BFECFA2E6B2E00E9403080E94430840
:1008D400119730F4EFE1F0E0E0936202F0936302E9
:1008E4000E943A080E94DB0799F0C89BFECF0E9441
:1008F4004B073197FE93EE93A0916602B091670285
:10090400119730F4E4E1F5E0E0936602F0936702B6
:100914000E9431080E94DB0739F0C99BFECF0E9478
:100924004B073196FE93EE93CB9906C0CB9BFECF3B
:100934001F5F133008F010E0CC9904C0CC9BFECFAD
:10094400E0E003C00E94C40757CF1881629608955F
:10095400BA93AA931A930A93AA81BB8112960E940E
:10096400B608309729F1AA81BB8114960E94B60873
:100974008F01309761F00230E0E01E0780F0F8014B
:1009840031978F01AA81BB811496ED93FC93AA81C0
:10099400BB8112960E94FD073197AC81A083AA8186
:1009A400BB810E94B608FF2312F00E94FD0706C017
:1009B400AA81BB81EFEFFFEFED93FC9319810881CE
:1009C40025960895BA93AA9326970E94EC0810E0FE
:1009D400AC85BD85E0E0F0E0ED93FC93EA89FB890A
:1009E4003196EA8BFB8B3197E4912E2FE03009F49A
:1009F40015C1E12FE03039F4253211F411E002C0C1
:100A04000E944A080AC1E130A9F4253219F40E946F
:100A14004A0802C112E040E000E02D3211F401E086
:100A2400FCC02B3211F44BE2F8C0203211F440E246
:100A3400F4C002C0E23039F450E013E0203311F482
:100A44000068EBC003C0E33009F0E7C0203310F0C6
:100A54002A3308F007C0AAE05A9F502DE22FE05332
:100A64005E0FDBC0E22FE33649F40E945108E889A7
:100A7400F989A481AA930E945708CEC0E33741F4B0
:100A84000E9451080E945D080E940E071E2F0AC092
:100A9400E03761F40E9451080E945D080E941A0721
:100AA4001E2F086002600F7730E034C0E43611F086
:100AB400E93611F4046002C0E53731F4E4E5F0E00E
:100AC400EE83FF8315E00CC0E83511F4086003C021
:100AD400E83709F0A1C0EEE5F0E0EE83FF8314E00F
:100AE40002FF14C00E9451080E946708AB85AA2324
:100AF4003AF4EA85FB850E949208EA87FB874DE277
:100B0400403011F01F5F01C00B7F04C00E945108E8
:100B14000E94670800FD11C0151778F407FF08C08C
:100B240002FF04C00B7F242F115001C020E301C039
:100B340020E20E944A085150EFCF312F01FF17C025
:100B44003030A1F003FF06C0EE81FF812591EE83D2
:100B5400FF8305C0AE81BF812D91AE83BF830E9408
:100B64004A08503009F051503150EACF4BC020E3CD
:100B7400EE81FF810E94BA08E887F987EE81FF8140
:100B84003296EE83FF83E885F985AA85BB85AE1787
:100B9400BF0750F02F5FA885B985EA85FB85EA1B5E
:100BA400FB0BEA87FB87EFCF2A3328F003FF02C051
:100BB400295F01C0295D04FD1AC0213320F4A885F2
:100BC400B985119709F409C0531710F000FF01C04B
:100BD40013C020E207FF0BC020E3006102FF07C03F
:100BE4000B7F4A930E945708503009F051500E94DD
:100BF4004A08503009F051503150A885B9851297F0
:100C040008F0B5CF00FF08C0503031F05150E0E299
:100C1400EA930E945708F8CF10E0E0CEAC85BD857A
:100C24000E94B6080E94F30864960895FF92F82E75
:100C340026970E94EE080E946F08309719F4EFEF90
:100C4400FFEF23C0DE0116960E948E088D010E94DC
:100C54006F08EE83FF83E0E0E887E987DE011A96F8
:100C64000E948E080E94B608FA93EA931A930A9394
:100C7400EAEAF4E0FA93EA93DE011A96A3DE9F010E
:100C8400AE81BF81E0E0EC93F9010E94F5082A9659
:100C9400FF900895AA93E881E07111F0C39A01C00E
:100CA400C398E881E07211F0C49A01C0C498E88145
:100CB400E07411F0C59A01C0C598E881E07811F09C
:100CC400C69A01C0C6988DE08A95F1F7C29A8DE064
:100CD4008A95F1F7C2988DE08A95F1F79BC0AA93A3
:100CE400A881D8DFE881E295E883A881D3DF85E88D
:100CF4008A95F1F78FC0AA93E881F0E0E859FD4F97
:100D0400E081A981AE0FEBDFE981E0936C02E88119
:100D1400E0936D0222960895A2E00E947608ACE06A
:100D2400DEDFA1E00E947608E0E0E0936D02E0934C
:100D34006C020895AA93A881AA3031F0E0916E0262
:100D4400A0916C02AE1760F0E0E0EA93A0916D020E
:100D5400AF5FA0936D02CFDFA881AA3009F45AC017
:100D6400E0916C02EF5FE0936C02C09AA881B7DF58
:100D7400C09850C0BA93AA931A93A981BA81ED91ED
:100D8400A983BA831E2FE03019F0A12FD3DFF5CF4A
:100D940010C0BA93AA931A93E981FA813196E98330
:100DA400FA833197E4911E2FE03019F0A12FC2DFAE
:100DB400F3CF188123960895AA93BB9ABC9ABD9A3F
:100DC400BE9ABA9AB89AB99AC298C098C198E8815A
:100DD400E0936E02E058E0936A02E881E054E09305
:100DE4006B02A4E1B0E00E9484080E947C080E9487
:100DF4007C080E947C08A0E24DDF88EC90E001971B
:100E0400F1F7A8E26CDFA4E06ADFA5E868DFA6E0FA
:100E140066DF82DF21960895BA93AA93A991B991C6
:100E2400EE27FF276D91662311F03196FBCF0895CD
:100E3400BA93AA93AA27BB27E991F99105900020B8
:100E440011F01196FBCFFD010895A0916002B091BD
:100E540061020895A0916402B09165020895A09181
:100E64006202B09163020895E1E0F0E0E09362026F
:100E7400F0936302A4E6B2E0ED91FD913196FE9306
:100E8400EE930895E1E0F0E0E0936402F0936502EC
:100E94000895A6E6B2E0ED91FD9108950A921A92A2
:100EA400FA926A937A938A939A93AA93BA93EA9357
:100EB400FA93EFB7EA9308950E94CB06A4EFB1E04A
:100EC4000C948408A92DB0E0A7FDBFEFE82DF0E055
:100ED400E7FDFFEFAE0FBF1F1A970895E0E0EA9316
:100EE400A1E00C947D06B1DFE0E0F0E00E94B008E0
:100EF4000E2ED601E0E0F0E00E94B0080E22D501EB
:100F0400E0E0F0E00E94B008E0210895ACE7B0E032
:100F14000E94C70808950E9496080E94BE0808957A
:100F2400E0916602F0916702662777270E94BE0867
:100F34000895E0916402F0916502662777270E9484
:100F4400BE080895E0916202F09163026627772754
:100F54000E94BE080895FE01FA93EA930895FA9355
:100F6400EA93E0916002F0916102662777270E947C
:100F7400BE080895662777270E94BE080895DE01FB
:100F84000C94BC06A9E1B0E00C948408A0E0CA99D2
:100F9400A1E0E0E00E949C080E2EA12F0895E0E05D
:100FA4000E949C08E0210895E1E00E949C08E02151
:100FB4000895E2E00E949C08E021089584E00E94E4
:100FC400180628960E948E06DACFA0E0C999A1E0FF
:100FD400E0E00E949C080E2EA0E0F0FCA1E0089541
:100FE400A0E0C899A1E0E0E00E949C080E2EA0E0D9
:100FF400F0FCA1E00895ED91FD913196FE93EE93FE
:101004000895ED91FD913197FE93EE9308950E2E80
:10101400A0E0F0FCA1E0C3CF0E94AB080E22A0E048
:10102400F0FCA1E0C1CF01E01F5FE894F0F808955F
:10103400F0E0EE0FFF1FAE0FBF1F0E94C3089ACF50
:10104400FE013196FA93EA93089584E00E9418060B
:1010540028960E948E06DE0111960C94BC06A0E030
:10106400C999A1E0E0E00E949C080E2EA12F0895EA
:10107400A0E0C899A1E0E0E00E949C080E2EA12FF8
:101084000895E0916202ACE7B0E00E94DB08E7CE8D
:101094002A93AD85BE85EF85F88909950895E88979
:1010A400F9893497E88BF98B0895AD85BE85EF8572
:1010B400F88909950895A889B98914960E94B608F3
:1010C400EE83FF83AE81BF810895A889B989149600
:1010D4000E94B608EA87FB870895DE011C960E94E9
:1010E4008E080E94B60808950E947106A3E0B0E03D
:1010F4000C948408A0E30E944C0688EC90E00197CD
:10110400F1F70895109639F0A89580ED97E00197CE
:10111400F1F71197C9F708950024AF0DB01D089594
:10112400F195E195F0400895FE2FFF0FFF0B6F2F0F
:101134007F2F0895EA17E1E009F0EE270895EA17F2
:10114400E1E008F4EE270895AE17E1E008F0EE2799
:101154000895EA17E1E008F0EE270895EA17FB077F
:10116400E1E009F0EE270895ED91FC9111970895BF
:101174000590F491E02D08957A936A93FA93EA9393
:101184000895119602D0FE2F1197E199FECFFF9397
:10119400FFB7F894AEBBBFBBE09AEDB3FFBFFF91BE
:1011A400089507D01196EF93EF2F03D0EF91119785
:1011B4000895E19B02C0A895FCCF9FB7F894AEBBFD
:1011C400BFBBE09A8DB3E81719F0EDBBE29AE19A40
:1011D4009FBF08955A934A933A932A931A930A9372
:1011E40008955D814C813B812A811981088108958C
:00000001FF
