:0A0000000C94C0000C944A010C940B
:10000A006D010C9400000C9400000C94EF000C9409
:10001A0000000C9400000C9400000C9400000C9456
:10002A0000000C9400000C9400000C9400000C9446
:10003A0000000C9400000C9400000C9400000C9436
:10004A0000000C9400000C9400001027E8036400E0
:10005A000A00010000100001100001000200000067
:10006A000000000A32003B000A0017001D000C00C5
:10007A007A05456D7074790046756C6C007361760B
:10008A00696E67206461746100433D2564202564BC
:10009A002F25642F25640025643A25643A256420B7
:1000AA0020523D2564200054696D6520536574749F
:1000BA00696E67203E3E00494E264F5554205365CF
:1000CA0061726368203E3E00526573657276655FB1
:1000DA005061726B203E3E00536574206461746502
:1000EA00203E3E00536574206D696E3D25642020D4
:1000FA003E0053657420686F75723D256420203E6A
:10010A0000696E3D2564206F75743D256400526553
:10011A007365727665643D256400536574206D6F5E
:10012A006E74683D256420203E0053657420646126
:10013A00793D256420203E005365742079656172FB
:10014A003D256420203E000080C0010002006600B8
:10015A000A000400680001006002740001006202E3
:10016A007600010064027800020066027A0002004A
:10017A00680252010000F894EE27ECBBF1E0F5BFEB
:10018A00E5BFF8E1F1BDE1BD8DE0A2E0BB27ED934B
:10019A008A95E9F780E098E0A0E6ED930197E9F700
:1001AA00E4E5F1E085919591009761F0A591B5910B
:1001BA0005901590BF01F00105900D920197E1F7A6
:1001CA00FB01F0CFEFE5EDBFE8E0EEBFC0E6D2E01D
:1001DA000C949D01AA93BA93EA93FA93EFB7EA9320
:1001EA00EBE3F0E0EA15FB05F9F4AA24BB24EC15CD
:1001FA00FD05B1F4CC24DD240E942307579741F46E
:10020A00E0E0E0936002E0936102A2E6B2E002C09D
:10021A00A0E6B2E0ED91FD913196FE93EE9303C014
:10022A00F60131966F0103C0F50131965F010E9414
:10023A002807179738F40E942D07909710F00E940C
:10024A00320711C00E9428071C9739F40E942D0713
:10025A005E9710F00E94320706C00E942D075F9732
:10026A0010F00E9432070E9428071D9738F00E945A
:10027A0040070E9447073196FE93EE93E991EFBF3C
:10028A00F991E991B991A99118950E944C0721FE1B
:10029A0007C00E948A06ACE7B0E00E945A0717C05E
:1002AA009394F30131963F0131970E9460072CF035
:1002BA00EAE0E8199E2E689401C0E89421F8E0E08B
:1002CA00E9151CF09924689401C0E89420F822C02A
:1002DA000E944C0720FE07C00E948A06A2E8B0E0EE
:1002EA000E945A0717C09A94F20131962F0131974A
:1002FA00E0E0E9151CF09924689401C0E89420F81C
:10030A000E9460072CF0EAE0E8199E2E689401C06A
:10031A00E89421F8E991EFBFF991E991B991A9918E
:10032A009991899179916991F99019900990189503
:10033A00A297EBB7E06CEBBFEBE0E5BFE0E0E4BF10
:10034A00E0ECEABFA0E10E94DA060E948A060E9457
:10035A006C07ACE2B1E00E949108E8E0E2BDE5E09A
:10036A00E5BDE0E0E4BDE3BDE0E4E9BFEFE1EBBBFE
:10037A0078949818CA9903C0CA9BFECF7BD00E9472
:10038A00710709F441C00E948407EF31E0F0219718
:10039A00E0E0E883A881AF31A0F4E8810E948907F0
:1003AA000E948F07AE5FBF4F0E9497070E949E0769
:1003BA000E948F07AE5BBF4F0E949707EF5FE883EB
:1003CA00E9CF219605C00E948407EF5F0E94DE08EC
:1003DA000E9484070E948907AE0FBF1FF2010E9484
:1003EA00D6080E9484070E949E07AE0FBF1FF30122
:1003FA000E94D6080E94710739F00E948A06A7E86F
:10040A00B0E00E94C706F6CFFE017196FA93EA930E
:10041A00E3E9F0E0FA93EA93E92D0E94A4070E9427
:10042A00A9070E94B2070E94BB0780E10E94140636
:10043A0064960E94C407E1EAF0E00E94C807F60148
:10044A000E94D307F5010E94D307E82D0E94A40752
:10045A0080E10E94140664960E948A06DE01519683
:10046A000E94B8060E946C070E94D8070E94DB0708
:10047A0081CFFFCF1A9310E0103031F40E948A0620
:10048A00A1EBB0E00E94C706113031F40E948A063F
:10049A00A1ECB0E00E94C706123031F40E948A062D
:1004AA00A2EDB0E00E94C706133031F40E948A061A
:1004BA00A2EEB0E00E94C706CB9906C0CB9BFECF46
:1004CA001F5F143008F010E0CC9904C0CC9BFECF1B
:1004DA00E0E025C00E94DF070E94E80719F0CA9BE6
:1004EA00FECF1FD00E94DF070E94ED0719F0CA9BBA
:1004FA00FECF90D00E94DF070E94F20719F0CA9B34
:10050A00FECF3ED10E94DF07E3E00E94AE08E02161
:10051A0019F0CA9BFECF66D10E94DB07ADCF1991B5
:10052A000895FF926197FF24F0FC0BC00E94C40754
:10053A00EEEEF0E0FA93EA93F6010E94D3070E94E6
:10054A00F707F0FE08C00E94C407ECEFF0E00E9433
:10055A00C8070E94F7070E94FE070E94E80761F099
:10056A00C99BFECFF60131966F01EBE3F0E0EC1583
:10057A00FD0510F4CC24DD240E9409080E94E80736
:10058A0059F0C89BFECF0C2C0D2819F4EBE3F0E0D0
:10059A0002C0F60131976F010E94FE070E94ED0723
:1005AA0079F0C99BFECFA0E6B2E00E9414080E942F
:1005BA002307589728F0E0E0E0936002E093610295
:1005CA000E9409080E94ED0799F0C89BFECFE091AE
:1005DA006002F0916102309739F4E7E1F0E0E093CC
:1005EA006002F093610204C0A0E6B2E00E941A0819
:1005FA00CB9904C0CB9BFECFE1E0FE26CC9904C088
:10060A00CC9BFECFE0E003C00E94DB078DCF619652
:10061A00FF900895FF92A2970E94EF08FF2400918D
:10062A00660210916702209164023091650240913E
:10063A00620250916302C99929C0C99BFECF4F5FDC
:10064A005F4F2730E0E03E073CF44032E0E05E07CF
:10065A0014F00E94200812C0ECE0F0E0E217F30761
:10066A0039F44E31E0E05E0714F00E94200806C01B
:10067A004F31E0E05E0714F00E9420082D30E0E0E0
:10068A003E0724F021E030E00F5F1F4FC89931C0C8
:10069A00C89BFECFE1E0F0E0E417F50741F5E21769
:1006AA00F30729F42CE030E00150104002C0215039
:1006BA0030402130E0E03E0724F02730E0E03E07FA
:1006CA000CF002C04FE150E02730E0E03E0724F092
:1006DA002C30E0E03E070CF002C04EE150E0ECE0C6
:1006EA00F0E0E217F30711F44DE150E002C0415087
:1006FA005040FE017796FA93EA93E8E9F0E0FA931C
:10070A00EA93F8010E942508F9010E942508FA01D6
:10071A000E9425088CE00E9414066096FE01369617
:10072A00FA93EA93EBE0F1E0FA93EA930E948407E2
:10073A000E9489070E942A080E9484070E949E0735
:10074A000E942A0888E00E9414062C960E948A06B3
:10075A00DE0157960E94B8060E946C07DE011696C3
:10076A000E94B806CC9904C0CC9BFECFE0E003C03F
:10077A000E94DB0760CF0E94F608A896FF900895B2
:10078A0061970E94C407E8E1F1E0FA93EA93E82D41
:10079A000E94A4070E94F707C99904C0C99BFECF0B
:1007AA0083949A94A82DEAE0B0E0A7FDBFEFF0E0A9
:1007BA00AE17BF0714F0E9E08E2EC89904C0C89B93
:1007CA00FECF8A949394E0E0E8150CF08824CC9943
:1007DA0004C0CC9BFECFE0E003C00E94DB07D1CF70
:1007EA006196089561971A9310E0113051F40E94AE
:1007FA002F08E4E2F1E0FA93EA930E94B2070E941A
:10080A003408103051F40E942F08E4E3F1E0FA931F
:10081A00EA930E94BB070E943408123051F40E94E6
:10082A002F08E2E4F1E0FA93EA930E94A9070E94F2
:10083A0034080E943E080E94ED0761F0C99BFECF72
:10084A00A4E6B2E00E9414080E9428071D9710F03F
:10085A000E9440070E9447080E94ED0781F0C89B4A
:10086A00FECFA4E6B2E00E941A080E942807119758
:10087A0030F4ECE0F0E0E0936402F09365020E9449
:10088A003E080E94E80781F0C99BFECFA2E6B2E0CB
:10089A000E9414080E945008909730F0E1E0F0E0BE
:1008AA00E0936202F09363020E9447080E94E807FD
:1008BA0081F0C89BFECFA2E6B2E00E941A080E940D
:1008CA005008119730F4EFE1F0E0E0936202F09300
:1008DA0063020E9447080E94F20799F0C89BFECF64
:1008EA000E9447073197FE93EE93A0916602B0915A
:1008FA006702119730F4E4E1F5E0E0936602F093C1
:10090A0067020E943E080E94F20739F0C99BFECF97
:10091A000E9447073196FE93EE93CB9906C0CB9B74
:10092A00FECF1F5F133008F010E0CC9904C0CC9BB7
:10093A00FECFE0E003C00E94DB0757CF1881629622
:10094A000895BA93AA931A930A93AA81BB8112961D
:10095A000E94B908309729F1AA81BB8114960E9496
:10096A00B9088F01309761F00230E0E01E0780F08D
:10097A00F80131978F01AA81BB811496ED93FC93FC
:10098A00AA81BB8112960E9414083197AC81A08378
:10099A00AA81BB810E94B908FF2312F00E941408A1
:1009AA0006C0AA81BB81EFEFFFEFED93FC9319819B
:1009BA00088125960895BA93AA9326970E94EF086C
:1009CA0010E0AC85BD85E0E0F0E0ED93FC93EA89A8
:1009DA00FB893196EA8BFB8B3197E4912E2FE0301D
:1009EA0009F415C1E12FE03039F4253211F411E090
:1009FA0002C00E9457080AC1E130A9F4253219F44D
:100A0A000E94570802C112E040E000E02D3211F4C2
:100A1A0001E0FCC02B3211F44BE2F8C0203211F491
:100A2A0040E2F4C002C0E23039F450E013E020336F
:100A3A0011F40068EBC003C0E33009F0E7C02033CB
:100A4A0010F02A3308F007C0AAE05A9F502DE22F6F
:100A5A00E0535E0FDBC0E22FE33649F40E945E08E2
:100A6A00E889F989A481AA930E946408CEC0E33771
:100A7A0041F40E945E080E946A080E940A071E2F1B
:100A8A000AC0E03761F40E945E080E946A080E9468
:100A9A0016071E2F086002600F7730E034C0E43674
:100AAA0011F0E93611F4046002C0E53731F4E4E5E7
:100ABA00F0E0EE83FF8315E00CC0E83511F408601E
:100ACA0003C0E83709F0A1C0EEE5F0E0EE83FF834A
:100ADA0014E002FF14C00E945E080E947408AB85ED
:100AEA00AA233AF4EA85FB850E949F08EA87FB87D6
:100AFA004DE2403011F01F5F01C00B7F04C00E941D
:100B0A005E080E94740800FD11C0151778F407FFEB
:100B1A0008C002FF04C00B7F242F115001C020E33C
:100B2A0001C020E20E9457085150EFCF312F01FF38
:100B3A0017C03030A1F003FF06C0EE81FF81259176
:100B4A00EE83FF8305C0AE81BF812D91AE83BF8343
:100B5A000E945708503009F051503150EACF4BC02B
:100B6A0020E3EE81FF810E94BD08E887F987EE81C4
:100B7A00FF813296EE83FF83E885F985AA85BB85D6
:100B8A00AE17BF0750F02F5FA885B985EA85FB85A8
:100B9A00EA1BFB0BEA87FB87EFCF2A3328F003FF18
:100BAA0002C0295F01C0295D04FD1AC0213320F467
:100BBA00A885B985119709F409C0531710F000FFE9
:100BCA0001C013C020E207FF0BC020E3006102FF4F
:100BDA0007C00B7F4A930E946408503009F05150B5
:100BEA000E945708503009F051503150A885B985F4
:100BFA00129708F0B5CF00FF08C0503031F05150BD
:100C0A00E0E2EA930E946408F8CF10E0E0CEAC85F7
:100C1A00BD850E94B9080E94F60864960895FF925D
:100C2A00F82E26970E94F1080E947C08309719F442
:100C3A00EFEFFFEF23C0DE0116960E949B088D019D
:100C4A000E947C08EE83FF83E0E0E887E987DE0103
:100C5A001A960E949B080E94B908FA93EA931A937B
:100C6A000A93E6EAF4E0FA93EA93DE011A96A3DE1F
:100C7A009F01AE81BF81E0E0EC93F9010E94F80880
:100C8A002A96FF900895AA93E881E07111F0C39A19
:100C9A0001C0C398E881E07211F0C49A01C0C498F7
:100CAA00E881E07411F0C59A01C0C598E881E0783E
:100CBA0011F0C69A01C0C6988DE08A95F1F7C29ADA
:100CCA008DE08A95F1F7C2988DE08A95F1F79BC07D
:100CDA00AA93A881D8DFE881E295E883A881D3DFC7
:100CEA0085E88A95F1F78FC0AA93E881F0E0E85980
:100CFA00FD4FE081A981AE0FEBDFE981E0936C0241
:100D0A00E881E0936D0222960895A2E00E9483088A
:100D1A00ACE0DEDFA1E00E948308E0E0E0936D0230
:100D2A00E0936C020895AA93A881AA3031F0E09169
:100D3A006E02A0916C02AE1760F0E0E0EA93A09117
:100D4A006D02AF5FA0936D02CFDFA881AA3009F4CC
:100D5A005AC0E0916C02EF5FE0936C02C09AA881DE
:100D6A00B7DFC09850C0BA93AA931A93A981BA81DF
:100D7A00ED91A983BA831E2FE03019F0A12FD3DF9A
:100D8A00F5CF10C0BA93AA931A93E981FA813196E2
:100D9A00E983FA833197E4911E2FE03019F0A12FED
:100DAA00C2DFF3CF188123960895AA93BB9ABC9AFF
:100DBA00BD9ABE9ABA9AB89AB99AC298C098C19876
:100DCA00E881E0936E02E058E0936A02E881E05419
:100DDA00E0936B02A4E1B0E00E9491080E948908A6
:100DEA000E9489080E948908A0E24DDF88EC90E001
:100DFA000197F1F7A8E26CDFA4E06ADFA5E868DFF3
:100E0A00A6E066DF82DF21960895BA93AA93A99194
:100E1A00B991EE27FF276D91662311F03196FBCF2A
:100E2A000895BA93AA93AA27BB27E991F991059045
:100E3A00002011F01196FBCFFD010895A0916002E8
:100E4A00B09161020895A0916402B091650208957B
:100E5A00A0916202B09163020895E1E0F0E0E093AC
:100E6A006202F0936302A4E6B2E0ED91FD9131963D
:100E7A00FE93EE930895E1E0F0E0E0936402F093CC
:100E8A0065020895A6E6B2E0ED91FD9108950A92F1
:100E9A001A92FA926A937A938A939A93AA93BA9332
:100EAA00EA93FA93EFB7EA9308950E94C706A4EF6C
:100EBA00B1E00C949108A92DB0E0A7FDBFEFE82D91
:100ECA00F0E0E7FDFFEFAE0FBF1F1A970895E0E0CD
:100EDA00EA93A1E00C947906B1DFE0E0F0E00E9429
:100EEA00B3080E2ED601E0E0F0E00E94B3080E220D
:100EFA00D501E0E0F0E00E94B308E0210895A0E8FF
:100F0A00B0E00E94CA080895A0E0B0E0F0E0EE0F59
:100F1A00FF1F0895EA0FFB1F0F01A881BB27AA0F25
:100F2A00BB1F08950E94C608D0010E94D608E88116
:100F3A000895A0E4B0E0F0E0EE0FFF1F08950E94CC
:100F4A00A3080E94C1080895E0916602F091670221
:100F5A00662777270E94C1080895E0916402F091FC
:100F6A006502662777270E94C1080895E091620208
:100F7A00F0916302662777270E94C1080895FE014F
:100F8A00FA93EA930895FA93EA93E0916002F09152
:100F9A006102662777270E94C10808956627772786
:100FAA000E94C1080895DE010C94B806A9E1B0E0D8
:100FBA000C949108A0E0CA99A1E0E0E00E94AE0872
:100FCA000E2EA12F0895E0E00E94AE08E0210895B8
:100FDA00E1E00E94AE08E0210895E2E00E94AE0836
:100FEA00E021089584E00E94140628960E948A0649
:100FFA00DACFA0E0C999A1E0E0E00E94AE080E2E87
:10100A00A0E0F0FCA1E00895A0E0C899A1E0E0E02A
:10101A000E94AE080E2EA0E0F0FCA1E00895ED912A
:10102A00FD913196FE93EE930895ED91FD913197DE
:10103A00FE93EE93089541E050E02F5F3F4F0895ED
:10104A000E94A9080E94C1080895AE0FBF1F0E94FE
:10105A00C608A4CFFE013196FA93EA93089584E074
:10106A000E94140628960E948A06DE0111960C94A4
:10107A00B806A0E0C999A1E0E0E00E94AE080E2EF1
:10108A00A12F0895A0E0C899A1E0E0E00E94AE086F
:10109A000E2EA12F0895E0916202A0E8B0E00E940E
:1010AA00DE08D6CE2A93AD85BE85EF85F8890995E7
:1010BA000895E889F9893497E88BF98B0895AD8505
:1010CA00BE85EF85F88909950895A889B989149686
:1010DA000E94B908EE83FF83AE81BF810895A88973
:1010EA00B98914960E94B908EA87FB870895DE0138
:1010FA001C960E949B080E94B90808950E946D06DA
:10110A00A3E0B0E00C949108A0E30E94480688ECA2
:10111A0090E00197F1F70895109639F0A89580EDBF
:10112A0097E00197F1F71197C9F708950024AF0DD9
:10113A00B01D0895F195E195F0400895FE2FFF0F37
:10114A00FF0B6F2F7F2F08956F2F660F660B762F79
:10115A000895EA17E1E009F0EE270895EA17FB0778
:10116A00E1E009F0EE270895ED91FC9111970895B9
:10117A000590F491E02D08957A936A93FA93EA938D
:10118A000895119602D0FE2F1197E199FECFFF9391
:10119A00FFB7F894AEBBBFBBE09AEDB3FFBFFF91B8
:1011AA00089507D01196EF93EF2F03D0EF9111977F
:1011BA000895E19B02C0A895FCCF9FB7F894AEBBF7
:1011CA00BFBBE09A8DB3E81719F0EDBBE29AE19A3A
:1011DA009FBF08955A934A933A932A931A930A936C
:1011EA0008955D814C813B812A8119810881089586
:00000001FF
