:060000000C94BC000C94FE
:100006002F010C9452010C9400000C9400000C94E7
:10001600EB000C9400000C9400000C9400000C946F
:1000260000000C9400000C9400000C9400000C944A
:1000360000000C9400000C9400000C9400000C943A
:1000460000000C9400000C9400000C940000102793
:10005600E80364000A00010000100001100001001E
:100066000200000A173B0C0A0A000C007A05456DCF
:10007600700046756C6C00736176696E672064610A
:100086007461004361703D25642025642F25642F2B
:1000960025640025643A25643A2564202052657358
:1000A6003D2564200054696D652053657474696E3E
:1000B60067203E3E00494E264F55542053656172D7
:1000C6006368203E3E00526573657276655F5061D7
:1000D600726B203E3E005365742064617461203E5D
:1000E6003E00536574206D696E3D256420203E00F8
:1000F60053657420686F75723D256420203E002587
:10010600642F25642F25642000696E3D2564206FC9
:1001160075743D25640052657365727665643D2588
:100126006400536574206D6F6E74683D25642020ED
:100136003E00536574206461793D256420203E00AD
:1001460053657420796561723D256420203E000068
:1001560080C0010002006600060008006800010079
:100166006002700002006102720002006302560122
:100176000000F894EE27ECBBF1E0F5BFE5BFF8E12F
:10018600F1BDE1BD8DE0A2E0BB27ED938A95E9F7CD
:1001960080E098E0A0E6ED930197E9F7E8E5F1E065
:1001A60085919591009761F0A591B591059015906F
:1001B600BF01F00105900D920197E1F7FB01F0CF29
:1001C600EFE5EDBFE8E0EEBFC0E6D2E00C948201B9
:1001D600AA93BA93EA93FA93EFB7EA93EBE3ED1592
:1001E60071F4DD24EB1549F4BB24E7E1EA1519F4B3
:1001F600AA24C39401C0A39401C0B39401C0D394AC
:10020600A0916002A73034F4EFE1EC1514F40E94DB
:10021600F9060FC0A0916002AC3031F4EDE1EC15A7
:1002260014F40E94F90605C0EEE1EC1514F40E94E0
:10023600F906A0916002AD3044F0E1E0E09360027F
:100246000E9401073196FE93EE93E991EFBFF99173
:10025600E991B991A99118950E94060721FE07C058
:100266000E946006A4E7B0E00E94140717C09394AA
:10027600F30131963F0131970E941A072CF0EAE00C
:10028600E8199E2E689401C0E89421F8E0E0E9158B
:100296001CF09924689401C0E89420F822C00E94BA
:1002A600060720FE07C00E946006A8E7B0E00E948D
:1002B600140717C09A94F20131962F013197E0E0A6
:1002C600E9151CF09924689401C0E89420F80E946E
:1002D6001A072CF0EAE0E8199E2E689401C0E8940B
:1002E60021F8E991EFBFF991E991B991A991999115
:1002F600899179916991F990199009901895A29729
:10030600EBB7E06CEBBFEBE0E5BFE0E0E4BFE0ECB1
:10031600EABFA0E10E94B0060E9460060E9426077E
:10032600ACE2B1E00E940608E8E0E2BDE5E0E5BD2A
:10033600E0E0E4BDE3BDE0E4E9BFEFE1EBBB0E9432
:100346002B07CE2E78949818CA9903C0CA9BFECF65
:100356006FD00E94300781F10E942B07A0E0B0E029
:10036600F0E0EE0FFF1FAE0FBF1FF2010E94540810
:100376000E942B07AEE3B0E0F0E0EE0FFF1FAE0FDA
:10038600BF1FF3010E9454080E942B07EF5F0E94D3
:100396005C080E942B07EF3128F0ACE7B0E0E0E004
:1003A6000E945C080E94300739F00E946006ADE7A3
:1003B600B0E00E949D06F6CFFE017196FA93EA938D
:1003C600E9E8F0E0FA93EA93E92D0E9440070E94DB
:1003D6004507E09160020E944007EC2D0E9440070D
:1003E60080E10E94EA0564960E944E07E9E9F0E082
:1003F600FA93EA93EA2D0E944007EB2D0E944007EC
:10040600ED2D0E944007E82D0E94400780E10E94E2
:10041600EA0564960E946006DE0151960E948E06E9
:100426000E9426070E9452070E9455078DCFFFCFD4
:100436001A9310E0103031F40E946006ABEAB0E087
:100446000E949D06113031F40E946006ABEBB0E0CD
:100456000E949D06123031F40E946006ACECB0E0BA
:100466000E949D06133031F40E946006ACEDB0E0A8
:100476000E949D06CB9906C0CB9BFECF1F5F143012
:1004860008F010E0CC9904C0CC9BFECFE0E025C07C
:100496000E9459070E94620719F0CA9BFECF1FD01F
:1004A6000E9459070E94670719F0CA9BFECF78D0B1
:1004B6000E9459070E946C0719F0CA9BFECF37D1DC
:1004C6000E945907E3E00E942308E02119F0CA9B25
:1004D600FECF5DD10E945507ADCF19910895FF92C9
:1004E6006197FF24F0FC0BC00E944E07E8EEF0E097
:1004F600FA93EA93EB2D0E9440070E947107F0FEE3
:100506000BC00E944E07E6EFF0E0FA93EA93EA2D5D
:100516000E9440070E9471070E9478070E946207A6
:1005260039F0C99BFECFB394EBE3EB150CF4BB2477
:100536000E9483070E94620741F0C89BFECFBA94CF
:10054600E0E0BE1614F4EBE3BE2E0E9478070E948C
:10055600670739F0C99BFECFA394E7E1EA150CF4CF
:10056600AA240E9483070E94670741F0C89BFECF1A
:10057600AA94E0E0AE1614F4E7E1AE2ECB9904C0DF
:10058600CB9BFECFE1E0FE26CC9904C0CC9BFECFF0
:10059600E0E003C00E945507A5CF6196FF9008953D
:1005A600FF92A2971A930A93FF24109160020E9469
:1005B6002B070E2FC9993BC0C99BFECF0F5F0E9428
:1005C6002B07A02F0E9432080E948E0731F00E944E
:1005D6002B070E2F11506894F0F8A12FE6E00E9429
:1005E60028080E2EA02FEFE10E94930711F00E941B
:1005F6009A07A12FE6E00E9432080E2EA02FEEE108
:100606000E94930711F00E949A07A12FECE00E9426
:1006160023080E2EA02FEDE10E94930711F00E94F1
:100626009A07103009F41CE01D3008F011E0C89953
:1006360034C0C89BFECF0150A02FE0E00E942308E3
:100646000E948E0791F01150103009F41CE01D3005
:1006560008F011E0173008F40FE1173008F00EE14A
:100666001C3009F40DE16894F0F80E942B07A02FC6
:100676000E942D080E2EA0E0F0FCA1E00E94670764
:1006860031F00E942B070E2F1F5FE894F0F8103010
:1006960009F41CE01D3008F011E0FE017396FA9390
:1006A600EA93E5E0F1E0FA93EA930E944507E12F29
:1006B600FF27662777270E943F08E02FFF27662738
:1006C60077270E943F088CE00E94EA056096FE01AB
:1006D6003296FA93EA93EFE0F1E0FA93EA93E02F89
:1006E600A0E0B0E00E949F07E02FAEE3B0E00E94DA
:1006F6009F0788E00E94EA052C960E946006DE01AC
:1007060053960E948E060E942607DE0112960E94CC
:100716008E06CC9904C0CC9BFECFE0E003C00E94BD
:10072600550748CF19810881A496FF9008956197CF
:100736000E944E07ECE1F1E0FA93EA93E82D0E945D
:1007460040070E947107C99903C0C99BFECF8394D5
:10075600A82DEAE0B0E0A7FDBFEFF0E0AE17BF07B7
:1007660014F0E3E68E2EC89903C0C89BFECF8A9488
:10077600E0E0E8150CF08824CC9904C0CC9BFECFB1
:10078600E0E003C00E945507D3CF619608956197B4
:100796001A9310E0113061F40E94AB07E8E2F1E031
:1007A600FA93EA93E09160020E9440070E94B00724
:1007B600103059F40E94AB07E8E3F1E0FA93EA93AC
:1007C600EC2D0E9440070E94B007123051F40E949F
:1007D600AB07E6E4F1E0FA93EA930E9445070E942C
:1007E600B0070E94BA070E94670771F0C99BFECF47
:1007F600E0916002EF5FE0936002A0916002AD308D
:100806001CF0E1E0E09360020E94C3070E946707C4
:1008160071F0C89BFECFE0916002E150E093600268
:10082600A0916002A1301CF4ECE0E09360020E940B
:10083600BA070E94620769F0C99BFECFC394EC2DEC
:10084600ACE7B0E00E945C08EFE1EC1514F4E1E0DF
:10085600CE2E0E94C3070E94620769F0C89BFECF96
:10086600CA94EC2DACE7B0E00E945C08E1E0CE163D
:1008760014F4EFE1CE2E0E94C3070E946C0799F094
:10088600C89BFECF0E9401073197FE93EE93A0917D
:100896006102B0916202119734F4E4E1F5E0E0936D
:1008A6006102F09362020E94BA070E946C0739F057
:1008B600C99BFECF0E9401073196FE93EE93CB991A
:1008C60006C0CB9BFECF1F5F133008F010E0CC991B
:1008D60004C0CC9BFECFE0E003C00E9455075ACF70
:1008E600188162960895BA93AA931A930A93AA81D5
:1008F600BB8112960E943708309759F1AA81BB81B5
:1009060014960E9437088F01309761F00230E0E0BC
:100916001E0798F0F80131978F01AA81BB811496C2
:10092600ED93FC93AA81BB811296ED91FD913196D0
:10093600FE93EE933197AC81A083AA81BB810E947E
:100946003708FF232AF0ED91FD913196FE93EE9341
:1009560006C0AA81BB81EFEFFFEFED93FC931981EF
:10096600088125960895BA93AA9326970E946D0842
:1009760010E0AC85BD85E0E0F0E0ED93FC93EA89FC
:10098600FB893196EA8BFB8B3197E4912E2FE03071
:1009960009F415C1E12FE03039F4253211F411E0E4
:1009A60002C00E94CC070AC1E130A9F4253219F42D
:1009B6000E94CC0702C112E040E000E02D3211F4A3
:1009C60001E0FCC02B3211F44BE2F8C0203211F4E6
:1009D60040E2F4C002C0E23039F450E013E02033C4
:1009E60011F40068EBC003C0E33009F0E7C0203320
:1009F60010F02A3308F007C0AAE05A9F502DE22FC4
:100A0600E0535E0FDBC0E22FE33649F40E94D307C2
:100A1600E889F989A481AA930E94D907CEC0E33751
:100A260041F40E94D3070E94DF070E94E0061E2FB2
:100A36000AC0E03761F40E94D3070E94DF070E94D4
:100A4600EC061E2F086002600F7730E034C0E436F3
:100A560011F0E93611F4046002C0E53731F4E4E53B
:100A6600F0E0EE83FF8315E00CC0E83511F4086072
:100A760003C0E83709F0A1C0EEE5F0E0EE83FF839E
:100A860014E002FF14C00E94D3070E94E907AB8559
:100A9600AA233AF4EA85FB850E941408EA87FB87B5
:100AA6004DE2403011F01F5F01C00B7F04C00E9471
:100AB600D3070E94E90700FD11C0151778F407FF58
:100AC60008C002FF04C00B7F242F115001C020E391
:100AD60001C020E20E94CC075150EFCF312F01FF19
:100AE60017C03030A1F003FF06C0EE81FF812591CB
:100AF600EE83FF8305C0AE81BF812D91AE83BF8398
:100B06000E94CC07503009F051503150EACF4BC00B
:100B160020E3EE81FF810E943B08E887F987EE819A
:100B2600FF813296EE83FF83E885F985AA85BB852A
:100B3600AE17BF0750F02F5FA885B985EA85FB85FC
:100B4600EA1BFB0BEA87FB87EFCF2A3328F003FF6C
:100B560002C0295F01C0295D04FD1AC0213320F4BB
:100B6600A885B985119709F409C0531710F000FF3D
:100B760001C013C020E207FF0BC020E3006102FFA3
:100B860007C00B7F4A930E94D907503009F0515095
:100B96000E94CC07503009F051503150A885B985D4
:100BA600129708F0B5CF00FF08C0503031F0515011
:100BB600E0E2EA930E94D907F8CF10E0E0CEAC85D8
:100BC600BD850E9437080E94740864960895FF92B6
:100BD600F82E26970E946F080E94F107309719F4A5
:100BE600EFEFFFEF23C0DE0116960E9410088D017D
:100BF6000E94F107EE83FF83E0E0E887E987DE01E4
:100C06001A960E9410080E943708FA93EA931A93DC
:100C16000A93E6E7F4E0FA93EA93DE011A96A3DE76
:100C26009F01AE81BF81E0E0EC93F9010E94760856
:100C36002A96FF900895AA93E881E07111F0C39A6D
:100C460001C0C398E881E07211F0C49A01C0C4984B
:100C5600E881E07411F0C59A01C0C598E881E07892
:100C660011F0C69A01C0C6988DE08A95F1F7C29A2E
:100C76008DE08A95F1F7C2988DE08A95F1F79BC0D1
:100C8600AA93A881D8DFE881E295E883A881D3DF1B
:100C960085E88A95F1F78FC0AA93E881F0E0ED59CF
:100CA600FD4FE081A981AE0FEBDFE981E09367029A
:100CB600E881E093680222960895A2E00E94F80770
:100CC600ACE0DEDFA1E00E94F807E0E0E093680216
:100CD600E09367020895AA93A881AA3031F0E091C3
:100CE6006902A0916702AE1760F0E0E0EA93A09176
:100CF6006802AF5FA0936802CFDFA881AA3009F42B
:100D06005AC0E0916702EF5FE0936702C09AA8813C
:100D1600B7DFC09850C0BA93AA931A93A981BA8133
:100D2600ED91A983BA831E2FE03019F0A12FD3DFEE
:100D3600F5CF10C0BA93AA931A93E981FA81319636
:100D4600E983FA833197E4911E2FE03019F0A12F41
:100D5600C2DFF3CF188123960895AA93BB9ABC9A53
:100D6600BD9ABE9ABA9AB89AB99AC298C098C198CA
:100D7600E881E0936902E058E0936502E881E05477
:100D8600E0936602A4E1B0E00E9406080E94FE0716
:100D96000E94FE070E94FE07A0E24DDF88EC90E06D
:100DA6000197F1F7A8E26CDFA4E06ADFA5E868DF47
:100DB600A6E066DF82DF21960895BA93AA93A991E9
:100DC600B991EE27FF276D91662311F03196FBCF7F
:100DD6000895BA93AA93AA27BB27E991F99105909A
:100DE600002011F01196FBCFFD010895E1E0CE2E13
:100DF600E0916002EF5FE09360020895A1E6B2E041
:100E0600ED91FD9108950A921A92FA926A937A9355
:100E16008A939A93AA93BA93EA93FA93EFB7EA93CB
:100E260008950E949D06A4EFB1E00C940608A92D32
:100E3600B0E0A7FDBFEFE82DF0E0E7FDFFEFAE0F56
:100E4600BF1F1A970895E0E0EA93A1E00C944F06BD
:100E5600ACE7B0E00E9448080895AA2DE0E00E94A1
:100E660023080E2EAB2DE0E00E9423080E22AD2DA6
:100E7600E0E00E942308E02108950E9418080E94DD
:100E86003F080895E0916102F09162020E941E08F7
:100E96000E943F080895FE01FA93EA930895DE0141
:100EA6000C948E06A9E1B0E00C940608A0E0CA995D
:100EB600A1E0E0E00E9423080E2EA12F0895E0E0B5
:100EC6000E942308E0210895E1E00E942308E02122
:100ED6000895E2E00E942308E021089584E00E943C
:100EE600EA0528960E946006DACFA0E0C999A1E03B
:100EF600E0E00E9423080E2EA0E0F0FCA1E0089599
:100F0600A0E0C899A1E0E0E00E9423080E2EA0E030
:100F1600F0FCA1E008950E2EA0E0F0FCA1E0CFCFFA
:100F26000E9432080E22A0E0F0FCA1E0CDCF01E045
:100F36001F5FE894F0F80895F0E0EE0FFF1FAE0F84
:100F4600BF1F0E944408662777270E943F0808951E
:100F5600FE013196FA93EA93089584E00E94EA0529
:100F660028960E946006DE0111960C948E06A0E07B
:100F7600C999A1E0E0E00E9423080E2EA12F089552
:100F8600A0E0C899A1E0E0E00E9423080E2EA12F60
:100F960008952A93AD85BE85EF85F889099508954C
:100FA600E889F9893497E88BF98B0895AD85BE8574
:100FB600EF85F88909950895A889B98914960E943C
:100FC6003708EE83FF83AE81BF810895A889B9896A
:100FD60014960E943708EA87FB870895DE011C965F
:100FE6000E9410080E94370808950E944306A3E055
:100FF600B0E00C940608A0E30E941E0688EC90E080
:101006000197F1F70895109639F0A89580ED97E0CD
:101016000197F1F71197C9F708950024AF0DB01D98
:101026000895F195E195F0400895FE2FFF0FFF0B0F
:101036006F2F7F2F08956F2F660F660B762F0895FB
:10104600EA17E1E009F0EE270895EA17E1E008F46F
:10105600EE270895AE17E1E008F0EE270895EA17A7
:10106600E1E008F0EE270895ED91FC9111970895BF
:101076000590F491E02D08957A936A93FA93EA9392
:101086000895119602D0FE2F1197E199FECFFF9396
:10109600FFB7F894AEBBBFBBE09AEDB3FFBFFF91BD
:1010A600089507D01196EF93EF2F03D0EF91119784
:1010B6000895E19B02C0A895FCCF9FB7F894AEBBFC
:1010C600BFBBE09A8DB3E81719F0EDBBE29AE19A3F
:1010D6009FBF08955A934A933A932A931A930A9371
:1010E60008955D814C813B812A811981088108958B
:00000001FF
