:100000000C94BD000C943B010C9454010C94000022
:100010000C9400000C94EC000C9400000C94000074
:100020000C9400000C9400000C9400000C94000050
:100030000C9400000C9400000C9400000C94000040
:100040000C9400000C9400000C9400000C94000030
:100050000C9400001027E80364000A00010000105F
:100060000001100001000000006400000000173BC8
:100070000C0A0C007A05736176696E6720646174FE
:1000800061004361703D25642025642F25642F2580
:10009000640025643A25643A25642020523D256495
:1000A00020002046756C6C0020456D700054696D11
:1000B000652053657474696E67203E3E00494E2684
:1000C0004F555420536561726368203E3E0052656F
:1000D00073657276655F5061726B203E3E005365BA
:1000E000742064617461203E3E00536574206D6924
:1000F0006E3D256420203E0053657420686F757244
:100100003D256420203E0025642F25642F25642092
:1001100000696E3D2564206F75743D25640052654D
:100120007365727665643D256400536574206D6F58
:100130006E74683D256420203E0053657420646120
:10014000793D256420203E005365742079656172F5
:100150003D256420203E000080C0010002006600B2
:100160000A000400680001006002720002006102DF
:1001700074000200630258010000F894EE27ECBB03
:10018000F1E0F5BFE5BFF8E1F1BDE1BD8DE0A2E032
:10019000BB27ED938A95E9F780E098E0A0E6ED9320
:1001A0000197E9F7EAE5F1E085919591009761F013
:1001B000A591B59105901590BF01F00105900D92A4
:1001C0000197E1F7FB01F0CFEFE5EDBFE8E0EEBF0F
:1001D000C0E6D2E00C9473010A92AA93BA93EA9310
:1001E000FA93EFB7EA93EBE3ED1571F4DD24EB1529
:1001F00049F4BB24E7E1EA1519F4AA24C39401C029
:10020000A39401C0B39401C0D394AC2DEEE10E943D
:10021000F0060E942008E02111F00E94F706AC2DA4
:10022000EFE10E94F0060E941B08E02111F00E94FD
:10023000F706AC2DEDE10E9420080E2EA091600281
:10024000ECE00E941608E02111F00E94F706A09150
:100250006002AD3044F0E1E0E09360020E94FF06EE
:100260003196FE93EE93E991EFBFF991E991B9913F
:10027000A991099018950E9404075394F4013196AE
:100280004F010E940B072CF0E4E6E4195E2E6894FF
:1002900001C0E89421F8E0E0E5151CF055246894CD
:1002A00001C0E89420F818C00E9404075A94F30192
:1002B00031963F01E0E0E5151CF05524689401C03B
:1002C000E89420F80E940B072CF0E4E6E4195E2E77
:1002D000689401C0E89421F8E991EFBFF991E991A0
:1002E000B991A9911895A297EBB7E06CEBBFEBE041
:1002F000E5BFE0E0E4BFE0ECEABFA0E10E94A706B2
:100300000E9457060E941907ACE2B1E00E94F9076B
:10031000E8E0E2BDE5E0E5BDE0E0E4BDE3BDE0E44A
:10032000E9BFEFE1EBBB0E941E07CE2E7894541874
:10033000CA9903C0CA9BFECF7BD00E94230781F1DC
:100340000E941E07A0E0B0E0F0E0EE0FFF1FAE0F2E
:10035000BF1FF3010E9451080E941E07AEE3B0E0E8
:10036000F0E0EE0FFF1FAE0FBF1FF4010E94510817
:100370000E941E07EF5F0E9459080E941E07EF317E
:1003800028F0ACE7B0E0E0E00E9459080E942307A3
:1003900039F00E945706A6E7B0E00E949406F6CF17
:1003A000FE017196FA93EA93E2E8F0E0FA93EA9399
:1003B000E52D0E9433070E943807E09160020E94F9
:1003C0003307EC2D0E94330780E10E94E10564961B
:1003D0000E944107E2E9F0E0FA93EA93EA2D0E94D5
:1003E0003307EB2D0E943307ED2D0E943307E42DD8
:1003F0000E94330780E10E94E10564960E9457063F
:10040000DE0151960E94850620FE04C0A2EAB0E0FB
:100410000E94940621FE04C0A8EAB0E00E9494065F
:100420000E9419070E9445070E94480781CFFFCF0D
:100430001A9310E0103031F40E945706ADEAB0E094
:100440000E949406113031F40E945706ADEBB0E0E3
:100450000E949406123031F40E945706AEECB0E0D0
:100460000E949406133031F40E945706AEEDB0E0BE
:100470000E949406CB9906C0CB9BFECF1F5F143021
:1004800008F010E0CC9904C0CC9BFECFE0E025C082
:100490000E944C070E94550719F0CA9BFECF1FD03F
:1004A0000E944C070E945A0719F0CA9BFECF78D0D1
:1004B0000E944C070E945F0719F0CA9BFECF37D1FC
:1004C0000E944C07E3E00E941608E02119F0CA9B45
:1004D000FECF57D10E944807ADCF19910895FF92E2
:1004E0006197FF24F0FC0BC00E944107EAEEF0E0A8
:1004F000FA93EA93EB2D0E9433070E946407F0FE03
:100500000BC00E944107E8EFF0E0FA93EA93EA2D6E
:100510000E9433070E9464070E946B070E945507E0
:1005200039F0C99BFECFB394EBE3EB150CF4BB247D
:100530000E9476070E94550741F0C89BFECFBA94EF
:10054000E0E0BE1614F4EBE3BE2E0E946B070E949F
:100550005A0739F0C99BFECFA394E7E1EA150CF4E2
:10056000AA240E9476070E945A0741F0C89BFECF3A
:10057000AA94E0E0AE1614F4E7E1AE2ECB9904C0E5
:10058000CB9BFECFE1E0FE26CC9904C0CC9BFECFF6
:10059000E0E003C00E944807A5CF6196FF90089550
:1005A000FF92A2971A930A93FF24109160020E946F
:1005B0001E070E2FC9993BC0C99BFECF0F5F0E943B
:1005C0001E07A02F0E942F080E94810731F00E9471
:1005D0001E070E2F11506894F0F8A12FE6E00E943C
:1005E00025080E2EA02FEFE10E94860711F00E9431
:1005F0008D07A12FE6E00E942F080E2EA02FEEE11E
:100600000E94860711F00E948D07A12FECE00E9446
:1006100016080E2EA02FEDE10E94860711F00E9411
:100620008D07103009F41CE01D3008F011E0C89966
:1006300034C0C89BFECF0150A02FE0E00E941608F6
:100640000E94810791F01150103009F41CE01D3018
:1006500008F011E0173008F40FE1173008F00EE150
:100660001C3009F40DE16894F0F80E941E07A02FD9
:100670000E942A080E2EA0E0F0FCA1E00E945A077A
:1006800031F00E941E070E2F1F5FE894F0F8103023
:1006900009F41CE01D3008F011E0FE017396FA9396
:1006A000EA93E7E0F1E0FA93EA930E943807E12F3A
:1006B000FF27662777270E943C08E02FFF27662741
:1006C00077270E943C088CE00E94E1056096FE01BD
:1006D0003296FA93EA93E1E1F1E0FA93EA93E02F9C
:1006E000A0E0B0E00E949207E02FAEE3B0E00E94ED
:1006F000920788E00E94E1052C960E945706DE01D1
:1007000053960E9485060E941907DE0112960E94E8
:100710008506CC9904C0CC9BFECFE0E003C00E94CC
:10072000480748CF19810881A496FF9008956197E2
:100730000E944107EEE1F1E0FA93EA93E42D0E9472
:1007400033070E946407C99903C0C99BFECF439435
:10075000E4E64E1614F0E3E64E2EC89903C0C89B9B
:10076000FECF4A94E0E0E4150CF04424CC9904C098
:10077000CC9BFECFE0E003C00E944807D9CF619632
:10078000089561971A9310E0113061F40E949E075A
:10079000EAE2F1E0FA93EA93E09160020E94330703
:1007A0000E94A307103059F40E949E07EAE3F1E08B
:1007B000FA93EA93EC2D0E9433070E94A3071230AC
:1007C00051F40E949E07E8E4F1E0FA93EA930E9454
:1007D00038070E94A3070E94AD070E945A0771F0D4
:1007E000C99BFECFE0916002EF5FE0936002A091B1
:1007F0006002AD301CF0E1E0E09360020E94B607B9
:100800000E945A0771F0C89BFECFE0916002E15050
:10081000E0936002A0916002A1301CF4ECE0E09350
:1008200060020E94AD070E94550769F0C99BFECF88
:10083000C394EC2DACE7B0E00E945908EFE1EC1551
:1008400014F4E1E0CE2E0E94B6070E94550769F02D
:10085000C89BFECFCA94EC2DACE7B0E00E945908CB
:10086000E1E0CE1614F4EFE1CE2E0E94B6070E940E
:100870005F0799F0C89BFECF0E94FF063197FE9359
:10088000EE93A0916102B0916202119734F4E4E119
:10089000F5E0E0936102F09362020E94AD070E94CE
:1008A0005F0739F0C99BFECF0E94FF063196FE9389
:1008B000EE93CB9906C0CB9BFECF1F5F133008F0A1
:1008C00010E0CC9904C0CC9BFECFE0E003C00E94B6
:1008D00048075ACF188162960895BA93AA931A933B
:1008E0000A93AA81BB8112960E943408309759F16D
:1008F000AA81BB8114960E9434088F01309761F061
:100900000230E0E01E0798F0F80131978F01AA81CC
:10091000BB811496ED93FC93AA81BB811296ED9155
:10092000FD913196FE93EE933197AC81A083AA811D
:10093000BB810E943408FF232AF0ED91FD9131968E
:10094000FE93EE9306C0AA81BB81EFEFFFEFED931C
:10095000FC931981088125960895BA93AA93269746
:100960000E946A0810E0AC85BD85E0E0F0E0ED9300
:10097000FC93EA89FB893196EA8BFB8B3197E491F2
:100980002E2FE03009F415C1E12FE03039F4253283
:1009900011F411E002C00E94BF070AC1E130A9F4BE
:1009A000253219F40E94BF0702C112E040E000E0C6
:1009B0002D3211F401E0FCC02B3211F44BE2F8C0EF
:1009C000203211F440E2F4C002C0E23039F450E0C9
:1009D00013E0203311F40068EBC003C0E33009F0EA
:1009E000E7C0203310F02A3308F007C0AAE05A9F6E
:1009F000502DE22FE0535E0FDBC0E22FE33649F4C7
:100A00000E94C607E889F989A481AA930E94CC07AD
:100A1000CEC0E33741F40E94C6070E94D2070E946D
:100A2000D7061E2F0AC0E03761F40E94C6070E9455
:100A3000D2070E94E3061E2F086002600F7730E0A5
:100A400034C0E43611F0E93611F4046002C0E53731
:100A500031F4E4E5F0E0EE83FF8315E00CC0E83507
:100A600011F4086003C0E83709F0A1C0EEE5F0E03A
:100A7000EE83FF8314E002FF14C00E94C6070E94A9
:100A8000DC07AB85AA233AF4EA85FB850E940708B8
:100A9000EA87FB874DE2403011F01F5F01C00B7FFA
:100AA00004C00E94C6070E94DC0700FD11C0151794
:100AB00078F407FF08C002FF04C00B7F242F1150F9
:100AC00001C020E301C020E20E94BF075150EFCFD8
:100AD000312F01FF17C03030A1F003FF06C0EE81B7
:100AE000FF812591EE83FF8305C0AE81BF812D91EB
:100AF000AE83BF830E94BF07503009F05150315080
:100B0000EACF4BC020E3EE81FF810E943808E887DE
:100B1000F987EE81FF813296EE83FF83E885F985C0
:100B2000AA85BB85AE17BF0750F02F5FA885B98592
:100B3000EA85FB85EA1BFB0BEA87FB87EFCF2A33AD
:100B400028F003FF02C0295F01C0295D04FD1AC01F
:100B5000213320F4A885B985119709F409C05317EA
:100B600010F000FF01C013C020E207FF0BC020E31C
:100B7000006102FF07C00B7F4A930E94CC075030F0
:100B800009F051500E94BF07503009F051503150C8
:100B9000A885B985129708F0B5CF00FF08C050307E
:100BA00031F05150E0E2EA930E94CC07F8CF10E018
:100BB000E0CEAC85BD850E9434080E947108649621
:100BC0000895FF92F82E26970E946C080E94E40771
:100BD000309719F4EFEFFFEF23C0DE0116960E9465
:100BE00003088D010E94E407EE83FF83E0E0E887BD
:100BF000E987DE011A960E9403080E943408FA93DE
:100C0000EA931A930A93EDE6F4E0FA93EA93DE018D
:100C10001A96A3DE9F01AE81BF81E0E0EC93F9015B
:100C20000E9473082A96FF900895AA93E881E071C4
:100C300011F0C39A01C0C398E881E07211F0C49A20
:100C400001C0C498E881E07411F0C59A01C0C5984C
:100C5000E881E07811F0C69A01C0C6988DE08A95C7
:100C6000F1F7C29A8DE08A95F1F7C2988DE08A95E6
:100C7000F1F79BC0AA93A881D8DFE881E295E883C9
:100C8000A881D3DF85E88A95F1F78FC0AA93E88120
:100C9000F0E0ED59FD4FE081A981AE0FEBDFE98176
:100CA000E0936702E881E093680222960895A2E04B
:100CB0000E94EB07ACE0DEDFA1E00E94EB07E0E082
:100CC000E0936802E09367020895AA93A881AA308E
:100CD00031F0E0916902A0916702AE1760F0E0E0A8
:100CE000EA93A0916802AF5FA0936802CFDFA8816A
:100CF000AA3009F45AC0E0916702EF5FE0936702FF
:100D0000C09AA881B7DFC09850C0BA93AA931A932B
:100D1000A981BA81ED91A983BA831E2FE03019F021
:100D2000A12FD3DFF5CF10C0BA93AA931A93E9810C
:100D3000FA813196E983FA833197E4911E2FE030EE
:100D400019F0A12FC2DFF3CF188123960895AA933B
:100D5000BB9ABC9ABD9ABE9ABA9AB89AB99AC298E6
:100D6000C098C198E881E0936902E058E093650279
:100D7000E881E054E0936602A4E1B0E00E94F90744
:100D80000E94F1070E94F1070E94F107A0E24DDFE7
:100D900088EC90E00197F1F7A8E26CDFA4E06ADF4D
:100DA000A5E868DFA6E066DF82DF21960895BA93A2
:100DB000AA93A991B991EE27FF276D91662311F0AF
:100DC0003196FBCF0895BA93AA93AA27BB27E9913E
:100DD000F9910590002011F01196FBCFFD010895C7
:100DE0000E9420080E2EA0916002E6E00895E1E046
:100DF000CE2EE0916002EF5FE09360020895A1E6DD
:100E0000B2E0ED91FD910895AA93BA93EA93FA9313
:100E1000EFB7EA930895A52DB0E0A7FDBFEFE42D4D
:100E2000F0E0E7FDFFEFAE0FBF1FA436E0E0BE0726
:100E30000895E0E0EA93A1E00C944606ACE7B0E048
:100E40000E9445080895AA2DE0E00E9416080E2E83
:100E5000AB2DE0E00E9416080E22AD2DE0E00E94CE
:100E60001608E02108950E940B080E943C0808958E
:100E7000E0916102F09162020E9411080E943C0818
:100E80000895FE01FA93EA930895DE010C94850615
:100E9000A9E1B0E00C94F907A0E0CA99A1E0E0E074
:100EA0000E9416080E2EA12F0895E0E00E94160859
:100EB000E0210895E1E00E941608E0210895E2E0B3
:100EC0000E941608E021089584E00E94E10528961A
:100ED0000E945706DACFA0E0C999A1E0E0E00E94A5
:100EE00016080E2EA0E0F0FCA1E00895A0E0C8993D
:100EF000A1E0E0E00E9416080E2EA0E0F0FCA1E0C8
:100F000008950E2EA0E0F0FCA1E0CFCF0E942F08A4
:100F10000E22A0E0F0FCA1E0CDCF01E01F5FE8943D
:100F2000F0F80895F0E0EE0FFF1FAE0FBF1F0E9414
:100F30004108662777270E943C080895FE013196F4
:100F4000FA93EA93089584E00E94E10528960E94AE
:100F50005706DE0111960C948506A0E0C999A1E020
:100F6000E0E00E9416080E2EA12F0895A0E0C89977
:100F7000A1E0E0E00E9416080E2EA12F08952A930A
:100F8000AD85BE85EF85F88909950895E889F989C9
:100F90003497E88BF98B0895AD85BE85EF85F88988
:100FA00009950895A889B98914960E943408EE839A
:100FB000FF83AE81BF810895A889B98914960E94E4
:100FC0003408EA87FB870895DE011C960E94030817
:100FD0000E94340808950E943A06A3E0B0E00C9401
:100FE000F907A0E30E94150688EC90E00197F1F75D
:100FF0000895109639F0A89580ED97E00197F1F7E4
:101000001197C9F708950024AF0DB01D0895F1950B
:10101000E195F0400895FE2FFF0FFF0B6F2F7F2FFC
:1010200008956F2F660F660B762F0895EA17E1E09B
:1010300009F0EE270895EA17E1E00CF4EE27089591
:10104000EA17E1E00CF0EE270895EA17E1E008F472
:10105000EE270895AE17E1E008F0EE270895EA17AD
:10106000E1E008F0EE270895ED91FC9111970895C5
:101070000590F491E02D08957A936A93FA93EA9398
:101080000895119602D0FE2F1197E199FECFFF939C
:10109000FFB7F894AEBBBFBBE09AEDB3FFBFFF91C3
:1010A000089507D01196EF93EF2F03D0EF9111978A
:1010B0000895E19B02C0A895FCCF9FB7F894AEBB02
:1010C000BFBBE09A8DB3E81719F0EDBBE29AE19A45
:1010D0009FBF08955A934A933A932A931A930A9377
:1010E00008955D814C813B812A8119810881089591
:00000001FF
