:040000000C94C70095
:100004000C9445010C945E010C9400000C940000C7
:100014000C94F6000C9400000C9400000C94000066
:100024000C9400000C9400000C9400000C9400004C
:100034000C9400000C9400000C9400000C9400003C
:100044000C9400000C9400000C9400000C9400002C
:100054001027E80364000A000100001000011000EA
:1000640001000000006400000000173A01320300A0
:1000740072054D656C65632E6972005061726B691F
:100084006E67204142432000736176696E67206485
:10009400617461005A3D25642025642F25642F2551
:1000A400640025643A25643A25642020523D256481
:1000B40020002046756C6C0020456D700054696DFD
:1000C400652053657474696E67203E3E00494E2670
:1000D4004F555420536561726368203E3E0052655B
:1000E40073657276655F5061726B203E3E005365A6
:1000F400742064617461203E3E00536574206D6910
:100104006E3D256420203E0053657420686F75722F
:100114003D256420203E0025642F25642F2564207E
:1001240000696E3D2564206F75743D256400526539
:100134007365727665643D256400536574206D6F44
:100144006E74683D256420203E005365742064610C
:10015400793D256420203E005365742079656172E1
:100164003D256420203E000080C00100020066009E
:100174000A000400680001006002720002006102CB
:100184007400020063026C010000F894EE27ECBBDB
:10019400F1E0F5BFE5BFF8E1F1BDE1BD8DE0A2E01E
:1001A400BB27ED938A95E9F780E098E0A0E6ED930C
:1001B4000197E9F7EEE6F1E085919591009761F0FA
:1001C400A591B59105901590BF01F00105900D9290
:1001D4000197E1F7FB01F0CFEFE5EDBFE8E0EEBFFB
:1001E400C0E6D2E00C947D010A92AA93BA93EA93F2
:1001F400FA93EFB7EA93EBE3ED1571F4DD24EB1515
:1002040049F4BB24E7E1EA1519F4AA24C39401C014
:10021400A39401C0B39401C0D394AC2DEEE10E9429
:1002240002070E943208E02111F00E940907AC2D58
:10023400EFE10E9402070E942D08E02111F00E94C4
:100244000907AC2DEDE10E9432080E2EA091600248
:10025400ECE00E942808E02111F00E940907A09117
:100264006002AD3044F0E1E0E09360020E941107C7
:100274003196FE93EE93E991EFBFF991E991B9912B
:10028400A991099018950E9416075394F401319688
:100294004F010E941D072CF0E4E6E4195E2E6894D9
:1002A40001C0E89421F8E0E0E5151CF055246894B9
:1002B40001C0E89420F818C00E9416075A94F3016C
:1002C40031963F01E0E0E5151CF05524689401C027
:1002D400E89420F80E941D072CF0E4E6E4195E2E51
:1002E400689401C0E89421F8E991EFBFF991E9918C
:1002F400B991A9911895A297EBB7E06CEBBFEBE02D
:10030400E5BFE0E0E4BFE0ECEABFA0E10E94B9068B
:100314000E946906A6E7B0E00E94A6060E942B0789
:10032400AFE7B0E00E94A606ACE2B1E00E940B0881
:10033400E8E0E2BDE5E0E5BDE0E0E4BDE3BDE0E426
:10034400E9BFEFE1EBBB0E943007CE2E789454183E
:10035400CA9903C0CA9BFECF7BD00E94350781F1A6
:100364000E943007A0E0B0E0F0E0EE0FFF1FAE0FF8
:10037400BF1FF3010E9463080E943007AEE3B0E0A0
:10038400F0E0EE0FFF1FAE0FBF1FF4010E946308E1
:100394000E943007EF5F0E946B080E943007EF3124
:1003A40028F0ACE7B0E0E0E00E946B080E9435075B
:1003B40039F00E946906ACE8B0E00E94A606F6CFC8
:1003C400FE017196FA93EA93E8E9F0E0FA93EA936E
:1003D400E52D0E9445070E944A07E09160020E94B1
:1003E4004507EC2D0E94450780E10E94F3056496C1
:1003F4000E945307E6EAF0E0FA93EA93EA2D0E949A
:100404004507EB2D0E944507ED2D0E944507E42D7D
:100414000E94450780E10E94F30564960E946906E4
:10042400DE0151960E94970620FE04C0A6EBB0E0C0
:100434000E94A60621FE04C0ACEBB0E00E94A60612
:100444000E942B070E9457070E945A0781CFFFCFB3
:100454001A9310E0103031F40E946906A1ECB0E068
:100464000E94A606113031F40E946906A1EDB0E0A5
:100474000E94A606123031F40E946906A2EEB0E092
:100484000E94A606133031F40E946906A2EFB0E080
:100494000E94A606CB9906C0CB9BFECF1F5F1430EB
:1004A40008F010E0CC9904C0CC9BFECFE0E025C05E
:1004B4000E945E070E94670719F0CA9BFECF1FD0F7
:1004C4000E945E070E946C0719F0CA9BFECF78D089
:1004D4000E945E070E94710719F0CA9BFECF37D1B4
:1004E4000E945E07E3E00E942808E02119F0CA9BFD
:1004F400FECF57D10E945A07ADCF19910895FF92AC
:100504006197FF24F0FC0BC00E945307EEEFF0E06C
:10051400FA93EA93EB2D0E9445070E947607F0FEBA
:100524000BC00E945307ECE0F1E0FA93EA93EA2D42
:100534000E9445070E9476070E947D070E94670774
:1005440039F0C99BFECFB394EBE3EB150CF4BB2459
:100554000E9488070E94670741F0C89BFECFBA94A7
:10056400E0E0BE1614F4EBE3BE2E0E947D070E9469
:100574006C0739F0C99BFECFA394E7E1EA150CF4AC
:10058400AA240E9488070E946C0741F0C89BFECFF2
:10059400AA94E0E0AE1614F4E7E1AE2ECB9904C0C1
:1005A400CB9BFECFE1E0FE26CC9904C0CC9BFECFD2
:1005B400E0E003C00E945A07A5CF6196FF9008951A
:1005C400FF92A2971A930A93FF24109160020E944B
:1005D40030070E2FC9993BC0C99BFECF0F5F0E9405
:1005E4003007A02F0E9441080E94930731F00E9417
:1005F40030070E2F11506894F0F8A12FE6E00E9406
:1006040037080E2EA02FEFE10E94980711F00E94E8
:100614009F07A12FE6E00E9441080E2EA02FEEE1D5
:100624000E94980711F00E949F07A12FECE00E94FE
:1006340028080E2EA02FEDE10E94980711F00E94C9
:100644009F07103009F41CE01D3008F011E0C89930
:1006540034C0C89BFECF0150A02FE0E00E942808C0
:100664000E94930791F01150103009F41CE01D30E2
:1006740008F011E0173008F40FE1173008F00EE12C
:100684001C3009F40DE16894F0F80E943007A02FA3
:100694000E943C080E2EA0E0F0FCA1E00E946C0732
:1006A40031F00E9430070E2F1F5FE894F0F81030ED
:1006B40009F41CE01D3008F011E0FE017396FA9372
:1006C400EA93EBE1F1E0FA93EA930E944A07E12FFF
:1006D400FF27662777270E944E08E02FFF2766270B
:1006E40077270E944E088CE00E94F3056096FE0175
:1006F4003296FA93EA93E5E2F1E0FA93EA93E02F73
:10070400A0E0B0E00E94A407E02FAEE3B0E00E94B6
:10071400A40788E00E94F3052C960E946906DE0176
:1007240053960E9497060E942B07DE0112960E94A0
:100734009706CC9904C0CC9BFECFE0E003C00E9496
:100744005A0748CF19810881A496FF9008956197AC
:100754000E945307E2E3F1E0FA93EA93E42D0E9446
:1007640045070E947607C99903C0C99BFECF4394ED
:10077400E4E64E1614F0E3E64E2EC89903C0C89B77
:10078400FECF4A94E0E0E4150CF04424CC9904C074
:10079400CC9BFECFE0E003C00E945A07D9CF6196FC
:1007A400089561971A9310E0113061F40E94B00724
:1007B400EEE3F1E0FA93EA93E09160020E944507C8
:1007C4000E94B507103059F40E94B007EEE4F1E03E
:1007D400FA93EA93EC2D0E9445070E94B507123064
:1007E40051F40E94B007ECE5F1E0FA93EA930E9419
:1007F4004A070E94B5070E94BF070E946C0771F068
:10080400C99BFECFE0916002EF5FE0936002A0918C
:100814006002AD301CF0E1E0E09360020E94C80782
:100824000E946C0771F0C89BFECFE0916002E1501A
:10083400E0936002A0916002A1301CF4ECE0E0932C
:1008440060020E94BF070E94670769F0C99BFECF40
:10085400C394EC2DACE7B0E00E946B08EFE1EC151B
:1008640014F4E1E0CE2E0E94C8070E94670769F0E5
:10087400C89BFECFCA94EC2DACE7B0E00E946B0895
:10088400E1E0CE1614F4EFE1CE2E0E94C8070E94D8
:10089400710799F0C89BFECF0E9411073197FE9310
:1008A400EE93A0916102B0916202119734F4E4E1F5
:1008B400F5E0E0936102F09362020E94BF070E9498
:1008C400710739F0C99BFECF0E9411073196FE9340
:1008D400EE93CB9906C0CB9BFECF1F5F133008F07D
:1008E40010E0CC9904C0CC9BFECFE0E003C00E9492
:1008F4005A075ACF188162960895BA93AA931A9305
:100904000A93AA81BB8112960E944608309759F136
:10091400AA81BB8114960E9446088F01309761F02A
:100924000230E0E01E0798F0F80131978F01AA81A8
:10093400BB811496ED93FC93AA81BB811296ED9131
:10094400FD913196FE93EE933197AC81A083AA81F9
:10095400BB810E944608FF232AF0ED91FD91319658
:10096400FE93EE9306C0AA81BB81EFEFFFEFED93F8
:10097400FC931981088125960895BA93AA93269722
:100984000E947C0810E0AC85BD85E0E0F0E0ED93CA
:10099400FC93EA89FB893196EA8BFB8B3197E491CE
:1009A4002E2FE03009F415C1E12FE03039F425325F
:1009B40011F411E002C00E94D1070AC1E130A9F488
:1009C400253219F40E94D10702C112E040E000E090
:1009D4002D3211F401E0FCC02B3211F44BE2F8C0CB
:1009E400203211F440E2F4C002C0E23039F450E0A5
:1009F40013E0203311F40068EBC003C0E33009F0C6
:100A0400E7C0203310F02A3308F007C0AAE05A9F49
:100A1400502DE22FE0535E0FDBC0E22FE33649F4A2
:100A24000E94D807E889F989A481AA930E94DE0765
:100A3400CEC0E33741F40E94D8070E94E4070E9425
:100A4400E9061E2F0AC0E03761F40E94D8070E940D
:100A5400E4070E94F5061E2F086002600F7730E05D
:100A640034C0E43611F0E93611F4046002C0E5370D
:100A740031F4E4E5F0E0EE83FF8315E00CC0E835E3
:100A840011F4086003C0E83709F0A1C0EEE5F0E016
:100A9400EE83FF8314E002FF14C00E94D8070E9473
:100AA400EE07AB85AA233AF4EA85FB850E94190870
:100AB400EA87FB874DE2403011F01F5F01C00B7FD6
:100AC40004C00E94D8070E94EE0700FD11C015174C
:100AD40078F407FF08C002FF04C00B7F242F1150D5
:100AE40001C020E301C020E20E94D1075150EFCFA2
:100AF400312F01FF17C03030A1F003FF06C0EE8193
:100B0400FF812591EE83FF8305C0AE81BF812D91C6
:100B1400AE83BF830E94D107503009F05150315049
:100B2400EACF4BC020E3EE81FF810E944A08E887A8
:100B3400F987EE81FF813296EE83FF83E885F9859C
:100B4400AA85BB85AE17BF0750F02F5FA885B9856E
:100B5400EA85FB85EA1BFB0BEA87FB87EFCF2A3389
:100B640028F003FF02C0295F01C0295D04FD1AC0FB
:100B7400213320F4A885B985119709F409C05317C6
:100B840010F000FF01C013C020E207FF0BC020E3F8
:100B9400006102FF07C00B7F4A930E94DE075030BA
:100BA40009F051500E94D107503009F05150315092
:100BB400A885B985129708F0B5CF00FF08C050305A
:100BC40031F05150E0E2EA930E94DE07F8CF10E0E2
:100BD400E0CEAC85BD850E9446080E9483086496D9
:100BE4000895FF92F82E26970E947E080E94F60729
:100BF400309719F4EFEFFFEF23C0DE0116960E9441
:100C040015088D010E94F607EE83FF83E0E0E88774
:100C1400E987DE011A960E9415080E944608FA9395
:100C2400EA931A930A93EFE7F4E0FA93EA93DE0166
:100C34001A96A3DE9F01AE81BF81E0E0EC93F90137
:100C44000E9485082A96FF900895AA93E881E0718E
:100C540011F0C39A01C0C398E881E07211F0C49AFC
:100C640001C0C498E881E07411F0C59A01C0C59828
:100C7400E881E07811F0C69A01C0C6988DE08A95A3
:100C8400F1F7C29A8DE08A95F1F7C2988DE08A95C2
:100C9400F1F79BC0AA93A881D8DFE881E295E883A5
:100CA400A881D3DF85E88A95F1F78FC0AA93E881FC
:100CB400F0E0ED59FD4FE081A981AE0FEBDFE98152
:100CC400E0936702E881E093680222960895A2E027
:100CD4000E94FD07ACE0DEDFA1E00E94FD07E0E03A
:100CE400E0936802E09367020895AA93A881AA306A
:100CF40031F0E0916902A0916702AE1760F0E0E084
:100D0400EA93A0916802AF5FA0936802CFDFA88145
:100D1400AA3009F45AC0E0916702EF5FE0936702DA
:100D2400C09AA881B7DFC09850C0BA93AA931A9307
:100D3400A981BA81ED91A983BA831E2FE03019F0FD
:100D4400A12FD3DFF5CF10C0BA93AA931A93E981E8
:100D5400FA813196E983FA833197E4911E2FE030CA
:100D640019F0A12FC2DFF3CF188123960895AA9317
:100D7400BB9ABC9ABD9ABE9ABA9AB89AB99AC298C2
:100D8400C098C198E881E0936902E058E093650255
:100D9400E881E054E0936602A4E1B0E00E940B080D
:100DA4000E9403080E9403080E940308A0E24DDF8A
:100DB40088EC90E00197F1F7A8E26CDFA4E06ADF29
:100DC400A5E868DFA6E066DF82DF21960895BA937E
:100DD400AA93A991B991EE27FF276D91662311F08B
:100DE4003196FBCF0895BA93AA93AA27BB27E9911A
:100DF400F9910590002011F01196FBCFFD010895A3
:100E04000E9432080E2EA0916002E6E00895E1E00F
:100E1400CE2EE0916002EF5FE09360020895A1E6B8
:100E2400B2E0ED91FD910895AA93BA93EA93FA93EF
:100E3400EFB7EA930895A52DB0E0A7FDBFEFE42D29
:100E4400F0E0E7FDFFEFAE0FBF1FA436E0E0BE0702
:100E54000895E0E0EA93A1E00C945806ACE7B0E012
:100E64000E9457080895AA2DE0E00E9428080E2E3B
:100E7400AB2DE0E00E9428080E22AD2DE0E00E9498
:100E84002808E02108950E941D080E944E08089534
:100E9400E0916102F09162020E9423080E944E08D0
:100EA4000895FE01FA93EA930895DE010C949706DF
:100EB400A9E1B0E00C940B08A0E0CA99A1E0E0E03D
:100EC4000E9428080E2EA12F0895E0E00E94280811
:100ED400E0210895E1E00E942808E0210895E2E07D
:100EE4000E942808E021089584E00E94F3052896D2
:100EF4000E946906DACFA0E0C999A1E0E0E00E946F
:100F040028080E2EA0E0F0FCA1E00895A0E0C89906
:100F1400A1E0E0E00E9428080E2EA0E0F0FCA1E091
:100F240008950E2EA0E0F0FCA1E0CFCF0E9441086E
:100F34000E22A0E0F0FCA1E0CDCF01E01F5FE89419
:100F4400F0F80895F0E0EE0FFF1FAE0FBF1F0E94F0
:100F54005308662777270E944E080895FE013196AC
:100F6400FA93EA93089584E00E94F30528960E9478
:100F74006906DE0111960C949706A0E0C999A1E0D8
:100F8400E0E00E9428080E2EA12F0895A0E0C89941
:100F9400A1E0E0E00E9428080E2EA12F08952A93D4
:100FA400AD85BE85EF85F88909950895E889F989A5
:100FB4003497E88BF98B0895AD85BE85EF85F88964
:100FC40009950895A889B98914960E944608EE8364
:100FD400FF83AE81BF810895A889B98914960E94C0
:100FE4004608EA87FB870895DE011C960E941508CF
:100FF4000E94460808950E944C06A3E0B0E00C94B9
:101004000B08A0E30E94270688EC90E00197F1F713
:101014000895109639F0A89580ED97E00197F1F7BF
:101024001197C9F708950024AF0DB01D0895F195E7
:10103400E195F0400895FE2FFF0FFF0B6F2F7F2FD8
:1010440008956F2F660F660B762F0895EA17E1E077
:1010540009F0EE270895EA17E1E00CF4EE2708956D
:10106400EA17E1E00CF0EE270895EA17E1E008F44E
:10107400EE270895AE17E1E008F0EE270895EA1789
:10108400E1E008F0EE270895ED91FC9111970895A1
:101094000590F491E02D08957A936A93FA93EA9374
:1010A4000895119602D0FE2F1197E199FECFFF9378
:1010B400FFB7F894AEBBBFBBE09AEDB3FFBFFF919F
:1010C400089507D01196EF93EF2F03D0EF91119766
:1010D4000895E19B02C0A895FCCF9FB7F894AEBBDE
:1010E400BFBBE09A8DB3E81719F0EDBBE29AE19A21
:1010F4009FBF08955A934A933A932A931A930A9353
:1011040008955D814C813B812A811981088108956C
:00000001FF
