:0A0000000C94C5000C944F010C9401
:10000A0072010C9400000C9400000C94F4000C94FF
:10001A0000000C9400000C9400000C9400000C9456
:10002A0000000C9400000C9400000C9400000C9446
:10003A0000000C9400000C9400000C9400000C9436
:10004A0000000C9400000C9400001027E8036400E0
:10005A000A00010000100001100001000200000067
:10006A000000000A32003B000A0017001D000C00C5
:10007A007A05456D7074790046756C6C007361760B
:10008A00696E67206461746100433D2564202564BC
:10009A002F25642F25640025643A25643A256420B7
:1000AA0020523D2564200054696D6520536574749F
:1000BA00696E67203E3E00494E264F5554205365CF
:1000CA0061726368203E3E00526573657276655FB1
:1000DA005061726B203E3E00536574206461746502
:1000EA00203E3E00536574206D696E3D25642020D4
:1000FA003E0053657420686F75723D256420203E6A
:10010A000025642F25642F25642000696E3D25642F
:10011A00206F75743D256400526573657276656457
:10012A003D256400536574206D6F6E74683D2564C7
:10013A0020203E00536574206461793D25642020A7
:10014A003E0053657420796561723D256420203E26
:10015A00000080C00100020066000A000400680076
:10016A00010060027400010062027600010064026C
:10017A007800020066027A00020068025C01000050
:10018A00F894EE27ECBBF1E0F5BFE5BFF8E1F1BD6D
:10019A00E1BD8DE0A2E0BB27ED938A95E9F780E007
:1001AA0098E0A0E6ED930197E9F7EEE5F1E0859195
:1001BA009591009761F0A591B59105901590BF01B1
:1001CA00F00105900D920197E1F7FB01F0CFEFE501
:1001DA00EDBFE8E0EEBFC0E6D2E00C94A201AA931C
:1001EA00BA93EA93FA93EFB7EA93EBE3F0E0EA15EE
:1001FA00FB05F9F4AA24BB24EC15FD05B1F4CC24C3
:10020A00DD240E942407579741F4E0E0E09360025E
:10021A00E0936102A2E6B2E002C0A0E6B2E0ED918C
:10022A00FD913196FE93EE9303C0F60131966F016C
:10023A0003C0F50131965F010E942907179738F428
:10024A000E942E07909710F00E94330711C00E9457
:10025A0029071C9739F40E942E075E9710F00E9416
:10026A00330706C00E942E075F9710F00E943307DB
:10027A000E9429071D9738F00E9441070E944807EB
:10028A003196FE93EE93E991EFBFF991E991B99115
:10029A00A99118950E944D0721FE07C00E948B065E
:1002AA00ACE7B0E00E945B0717C09394F301319664
:1002BA003F0131970E9461072CF0EAE0E8199E2E6F
:1002CA00689401C0E89421F8E0E0E9151CF099244B
:1002DA00689401C0E89420F822C00E944D0720FECD
:1002EA0007C00E948B06A2E8B0E00E945B0717C015
:1002FA009A94F20131962F013197E0E0E9151CF04A
:10030A009924689401C0E89420F80E9461072CF0AF
:10031A00EAE0E8199E2E689401C0E89421F8E99170
:10032A00EFBFF991E991B991A9919991899179913F
:10033A006991F990199009901895A297EBB7E06C1A
:10034A00EBBFEBE0E5BFE0E0E4BFE0ECEABFA0E131
:10035A000E94DB060E948B060E946D07ACE2B1E0A8
:10036A000E948708E8E0E2BDE5E0E5BDE0E0E4BD23
:10037A00E3BDE0E4E9BFEFE1EBBB78949818CA99D2
:10038A0003C0CA9BFECF69D00E94720781F10E9406
:10039A008507A0E0B0E0F0E0EE0FFF1FAE0FBF1F31
:1003AA00F2010E94D6080E948507AEE3B0E0F0E0B1
:1003BA00EE0FFF1FAE0FBF1FF3010E94D6080E9467
:1003CA008507EF5F0E94DE080E948507EF3128F05B
:1003DA00ACE7B0E0E0E00E94DE080E94720739F064
:1003EA000E948B06A7E8B0E00E94C806F6CFFE017D
:1003FA007196FA93EA93E3E9F0E0FA93EA93E92D26
:10040A000E948A070E948F070E9498070E94A107EC
:10041A0080E10E94150664960E94AA07E1EAF0E0CC
:10042A000E94AE07F6010E94B907F5010E94B907BA
:10043A00E82D0E948A0780E10E94150664960E94B0
:10044A008B06DE0151960E94B9060E946D070E9432
:10045A00BE070E94C10793CFFFCF1A9310E0103056
:10046A0031F40E948B06A1EBB0E00E94C80611305D
:10047A0031F40E948B06A1ECB0E00E94C80612304B
:10048A0031F40E948B06A2EDB0E00E94C806133038
:10049A0031F40E948B06A2EEB0E00E94C806CB9906
:1004AA0006C0CB9BFECF1F5F143008F010E0CC993A
:1004BA0004C0CC9BFECFE0E025C00E94C5070E9485
:1004CA00CE0719F0CA9BFECF1FD00E94C5070E9413
:1004DA00D30719F0CA9BFECF90D00E94C5070E948D
:1004EA00D80719F0CA9BFECF4CD10E94C507E3E09A
:1004FA000E949F08E02119F0CA9BFECF74D10E9486
:10050A00C107ADCF19910895FF926197FF24F0FCBE
:10051A000BC00E94AA07EEEEF0E0FA93EA93F60106
:10052A000E94B9070E94DD07F0FE08C00E94AA07D0
:10053A00ECEFF0E00E94AE070E94DD070E94E4079C
:10054A000E94CE0761F0C99BFECFF60131966F017A
:10055A00EBE3F0E0EC15FD0510F4CC24DD240E9459
:10056A00EF070E94CE0759F0C89BFECF0C2C0D282E
:10057A0019F4EBE3F0E002C0F60131976F010E9433
:10058A00E4070E94D30779F0C99BFECFA0E6B2E048
:10059A000E94FA070E942407589728F0E0E0E093A7
:1005AA006002E09361020E94EF070E94D30799F06C
:1005BA00C89BFECFE0916002F0916102309739F456
:1005CA00E7E1F0E0E0936002F093610204C0A0E684
:1005DA00B2E00E940008CB9904C0CB9BFECFE1E0B9
:1005EA00FE26CC9904C0CC9BFECFE0E003C00E945B
:1005FA00C1078DCF6196FF900895FF92A2970E943E
:10060A00F108FF2410916602009164020E94850796
:10061A003E2FC9993BC0C99BFECF3F5F0E94850709
:10062A00A32F0E94AE080E94060831F00E94850797
:10063A003E2F01506894F0F8A02FE6E00E94A4082B
:10064A000E2EA32FEFE10E940B0811F00E94120850
:10065A00A02FE6E00E94AE080E2EA32FEEE10E9424
:10066A000B0811F00E941208A02FECE00E949F08CC
:10067A000E2EA32FEDE10E940B0811F00E94120822
:10068A00003009F40CE00D3008F001E0C89934C0DC
:10069A00C89BFECF3150A32FE0E00E949F080E9422
:1006AA00060891F00150003009F40CE00D3008F012
:1006BA0001E0073008F43FE1073008F03EE10C3072
:1006CA0009F43DE16894F0F80E948507A32F0E947F
:1006DA00A9080E2EA0E0F0FCA1E00E94D30731F099
:1006EA000E9485073E2F0F5FE894F0F8003009F466
:1006FA000CE00D3008F001E0FE017596FA93EA93DA
:10070A00EBE0F1E0FA93EA93E12F0E941708E02F59
:10071A000E941708E32F0E9417088CE00E94150612
:10072A006096FE013496FA93EA93E5E1F1E0FA93D2
:10073A00EA93E32FA0E0B0E00E941D08E32FAEE3A6
:10074A00B0E00E941D0888E00E9415062C960E94BF
:10075A008B06DE0155960E94B9060E946D07DE01DE
:10076A0014960E94B906CC9904C0CC9BFECFE0E057
:10077A0003C00E94C1074DCF0E94F808A696FF90B9
:10078A00089561970E94AA07E2E2F1E0FA93EA93D8
:10079A00E82D0E948A070E94DD07C99904C0C99BF7
:1007AA00FECF83949A94A82DEAE0B0E0A7FDBFEFAC
:1007BA00F0E0AE17BF0714F0E9E08E2EC89904C026
:1007CA00C89BFECF8A949394E0E0E8150CF0882445
:1007DA00CC9904C0CC9BFECFE0E003C00E94C107C5
:1007EA00D1CF6196089561971A9310E0113051F4B0
:1007FA000E942508EEE2F1E0FA93EA930E94980734
:10080A000E942A08103051F40E942508EEE3F1E014
:10081A00FA93EA930E94A1070E942A08123051F41F
:10082A000E942508ECE4F1E0FA93EA930E948F070C
:10083A000E942A080E9434080E94D30761F0C99BCB
:10084A00FECFA4E6B2E00E94FA070E9429071D978C
:10085A0010F00E9441070E943D080E94D30781F0D0
:10086A00C89BFECFA4E6B2E00E9400080E942907B6
:10087A00119730F4ECE0F0E0E0936402F093650243
:10088A000E9434080E94CE0781F0C99BFECFA2E6DF
:10089A00B2E00E94FA070E944608909730F0E1E021
:1008AA00F0E0E0936202F09363020E943D080E9426
:1008BA00CE0781F0C89BFECFA2E6B2E00E940008F4
:1008CA000E944608119730F4EFE1F0E0E0936202EB
:1008DA00F09363020E943D080E94D80799F0C89BD2
:1008EA00FECF0E9448073197FE93EE93A0916602CD
:1008FA00B0916702119730F4E4E1F5E0E093660203
:10090A00F09367020E9434080E94D80739F0C99B05
:10091A00FECF0E9448073196FE93EE93CB9906C00C
:10092A00CB9BFECF1F5F133008F010E0CC9904C0B8
:10093A00CC9BFECFE0E003C00E94C10757CF1881CD
:10094A0062960895BA93AA931A930A93AA81BB81CD
:10095A0012960E94B908309729F1AA81BB81149690
:10096A000E94B9088F01309761F00230E0E01E075B
:10097A0080F0F80131978F01AA81BB811496ED931B
:10098A00FC93AA81BB8112960E94FA073197AC8127
:10099A00A083AA81BB810E94B908FF2312F00E949A
:1009AA00FA0706C0AA81BB81EFEFFFEFED93FC9334
:1009BA001981088125960895BA93AA9326970E94C9
:1009CA00EF0810E0AC85BD85E0E0F0E0ED93FC9324
:1009DA00EA89FB893196EA8BFB8B3197E4912E2FBA
:1009EA00E03009F415C1E12FE03039F4253211F471
:1009FA0011E002C00E944D080AC1E130A9F4253273
:100A0A0019F40E944D0802C112E040E000E02D32C4
:100A1A0011F401E0FCC02B3211F44BE2F8C0203291
:100A2A0011F440E2F4C002C0E23039F450E013E0BD
:100A3A00203311F40068EBC003C0E33009F0E7C0CB
:100A4A00203310F02A3308F007C0AAE05A9F502D2D
:100A5A00E22FE0535E0FDBC0E22FE33649F40E9437
:100A6A005408E889F989A481AA930E945A08CEC039
:100A7A00E33741F40E9454080E9460080E940B0761
:100A8A001E2F0AC0E03761F40E9454080E946008D1
:100A9A000E9417071E2F086002600F7730E034C0EB
:100AAA00E43611F0E93611F4046002C0E53731F496
:100ABA00E4E5F0E0EE83FF8315E00CC0E83511F4BD
:100ACA00086003C0E83709F0A1C0EEE5F0E0EE8364
:100ADA00FF8314E002FF14C00E9454080E946A08AF
:100AEA00AB85AA233AF4EA85FB850E949508EA8732
:100AFA00FB874DE2403011F01F5F01C00B7F04C03D
:100B0A000E9454080E946A0800FD11C0151778F463
:100B1A0007FF08C002FF04C00B7F242F115001C039
:100B2A0020E301C020E20E944D085150EFCF312F3F
:100B3A0001FF17C03030A1F003FF06C0EE81FF812C
:100B4A002591EE83FF8305C0AE81BF812D91AE83CF
:100B5A00BF830E944D08503009F051503150EACFFE
:100B6A004BC020E3EE81FF810E94BD08E887F98728
:100B7A00EE81FF813296EE83FF83E885F985AA85A7
:100B8A00BB85AE17BF0750F02F5FA885B985EA85E8
:100B9A00FB85EA1BFB0BEA87FB87EFCF2A3328F09A
:100BAA0003FF02C0295F01C0295D04FD1AC0213379
:100BBA0020F4A885B985119709F409C0531710F0D4
:100BCA0000FF01C013C020E207FF0BC020E3006151
:100BDA0002FF07C00B7F4A930E945A08503009F05F
:100BEA0051500E944D08503009F051503150A8859B
:100BFA00B985129708F0B5CF00FF08C0503031F020
:100C0A005150E0E2EA930E945A08F8CF10E0E0CE91
:100C1A00AC85BD850E94B9080E94F60864960895BD
:100C2A00FF92F82E26970E94F1080E9472083097C8
:100C3A0019F4EFEFFFEF23C0DE0116960E94910828
:100C4A008D010E947208EE83FF83E0E0E887E9875E
:100C5A00DE011A960E9491080E94B908FA93EA9353
:100C6A001A930A93E7EAF4E0FA93EA93DE011A96F2
:100C7A00A3DE9F01AE81BF81E0E0EC93F9010E94FF
:100C8A00F8082A96FF900895AA93E881E07111F076
:100C9A00C39A01C0C398E881E07211F0C49A01C0F6
:100CAA00C498E881E07411F0C59A01C0C598E8813A
:100CBA00E07811F0C69A01C0C6988DE08A95F1F7DE
:100CCA00C29A8DE08A95F1F7C2988DE08A95F1F77C
:100CDA009BC0AA93A881D8DFE881E295E883A8811E
:100CEA00D3DF85E88A95F1F78FC0AA93E881F0E00F
:100CFA00E859FD4FE081A981AE0FEBDFE981E0936E
:100D0A006C02E881E0936D0222960895A2E00E94A7
:100D1A007908ACE0DEDFA1E00E947908E0E0E09328
:100D2A006D02E0936C020895AA93A881AA3031F06B
:100D3A00E0916E02A0916C02AE1760F0E0E0EA93D7
:100D4A00A0916D02AF5FA0936D02CFDFA881AA3098
:100D5A0009F45AC0E0916C02EF5FE0936C02C09A0A
:100D6A00A881B7DFC09850C0BA93AA931A93A981F1
:100D7A00BA81ED91A983BA831E2FE03019F0A12F11
:100D8A00D3DFF5CF10C0BA93AA931A93E981FA81F7
:100D9A003196E983FA833197E4911E2FE03019F0F6
:100DAA00A12FC2DFF3CF188123960895AA93BB9A85
:100DBA00BC9ABD9ABE9ABA9AB89AB99AC298C09879
:100DCA00C198E881E0936E02E058E0936A02E881F4
:100DDA00E054E0936B02A4E1B0E00E9487080E940D
:100DEA007F080E947F080E947F08A0E24DDF88ECFE
:100DFA0090E00197F1F7A8E26CDFA4E06ADFA5E8CA
:100E0A0068DFA6E066DF82DF21960895BA93AA9387
:100E1A00A991B991EE27FF276D91662311F03196BA
:100E2A00FBCF0895BA93AA93AA27BB27E991F99110
:100E3A000590002011F01196FBCFFD010895A091B5
:100E4A006002B09161020895A0916402B0916502B6
:100E5A000895A0916202B09163020895E1E0F0E082
:100E6A00E0936202F0936302A4E6B2E0ED91FD9191
:100E7A003196FE93EE930895E1E0F0E0E093640288
:100E8A00F09365020895A6E6B2E0ED91FD9108950A
:100E9A000A921A92FA926A937A938A939A93AA93E3
:100EAA00BA93EA93FA93EFB7EA9308950E94C806B1
:100EBA00A4EFB1E00C948708A92DB0E0A7FDBFEF1D
:100ECA00E82DF0E0E7FDFFEFAE0FBF1F1A97089578
:100EDA00E0E0EA93A1E00C947A06B1DFE0E0F0E00A
:100EEA000E94B3080E2ED601E0E0F0E00E94B3089B
:100EFA000E22D501E0E0F0E00E94B308E021089557
:100F0A00ACE7B0E00E94CA0808950E9499080E94BE
:100F1A00C1080895E0916602F09167026627772773
:100F2A000E94C1080895E0916402F0916502662763
:100F3A0077270E94C1080895E0916202F091630246
:100F4A00662777270E94C1080895FE01FA93EA935B
:100F5A000895FA93EA93E0916002F091610266279C
:100F6A0077270E94C1080895662777270E94C1083B
:100F7A000895DE010C94B906A9E1B0E00C94870843
:100F8A00A0E0CA99A1E0E0E00E949F080E2EA12FDE
:100F9A000895E0E00E949F08E0210895E1E00E94A0
:100FAA009F08E0210895E2E00E949F08E021089549
:100FBA0084E00E94150628960E948B06DACFA0E0EC
:100FCA00C999A1E0E0E00E949F080E2EA0E0F0FC83
:100FDA00A1E00895A0E0C899A1E0E0E00E949F087E
:100FEA000E2EA0E0F0FCA1E00895ED91FD9131965E
:100FFA00FE93EE930895ED91FD913197FE93EE9352
:10100A0008950E2EA0E0F0FCA1E0C3CF0E94AE0826
:10101A000E22A0E0F0FCA1E0C1CF31E00F5FE8941E
:10102A00F0F80895FF27662777270E94C1080895D8
:10103A00F0E0EE0FFF1FAE0FBF1F0E94C60894CF4D
:10104A00FE013196FA93EA93089584E00E94150608
:10105A0028960E948B06DE0111960C94B906A0E030
:10106A00C999A1E0E0E00E949F080E2EA12F0895E1
:10107A00A0E0C899A1E0E0E00E949F080E2EA12FEF
:10108A000895E0916202ACE7B0E00E94DE08E1CE8A
:10109A002A93AD85BE85EF85F88909950895E88973
:1010AA00F9893497E88BF98B0895AD85BE85EF856C
:1010BA00F88909950895A889B98914960E94B908EA
:1010CA00EE83FF83AE81BF810895A889B9891496FA
:1010DA000E94B908EA87FB870895DE011C960E94E0
:1010EA0091080E94B90808950E946E06A3E0B0E034
:1010FA000C948708A0E30E94490688EC90E00197C7
:10110A00F1F70895109639F0A89580ED97E00197C8
:10111A00F1F71197C9F708950024AF0DB01D08958E
:10112A00F195E195F0400895FE2FFF0FFF0B6F2F09
:10113A007F2F0895EA17E1E009F0EE270895EA17EC
:10114A00E1E008F4EE270895AE17E1E008F0EE2793
:10115A000895EA17E1E008F0EE270895EA17FB0779
:10116A00E1E009F0EE270895ED91FC9111970895B9
:10117A000590F491E02D08957A936A93FA93EA938D
:10118A000895119602D0FE2F1197E199FECFFF9391
:10119A00FFB7F894AEBBBFBBE09AEDB3FFBFFF91B8
:1011AA00089507D01196EF93EF2F03D0EF9111977F
:1011BA000895E19B02C0A895FCCF9FB7F894AEBBF7
:1011CA00BFBBE09A8DB3E81719F0EDBBE29AE19A3A
:1011DA009FBF08955A934A933A932A931A930A936C
:1011EA0008955D814C813B812A8119810881089586
:00000001FF
