:080000000C94BD000C942601D4
:100008000C943F010C9400000C9400000C94EC003C
:100018000C9400000C9400000C9400000C94000058
:100028000C9400000C9400000C9400000C94000048
:100038000C9400000C9400000C9400000C94000038
:100048000C9400000C9400000C9400001027E803A6
:1000580064000A0001000010000110000100000007
:10006800000A173B0C0A0A000C007A0573617669CE
:100078006E672064617461004361703D25642025CA
:10008800642F25642F25640025643A25643A256485
:1000980020205265733D256420002046756C6C0055
:1000A80020456D700054696D652053657474696EE0
:1000B80067203E3E00494E264F55542053656172D5
:1000C8006368203E3E00526573657276655F5061D5
:1000D800726B203E3E005365742064617461203E5B
:1000E8003E00536574206D696E3D256420203E00F6
:1000F80053657420686F75723D256420203E002585
:10010800642F25642F25642000696E3D2564206FC7
:1001180075743D25640052657365727665643D2586
:100128006400536574206D6F6E74683D25642020EB
:100138003E00536574206461793D256420203E00AB
:1001480053657420796561723D256420203E000066
:1001580080C0010002006600060008006800010077
:10016800600270000200610272000200630258011E
:100178000000F894EE27ECBBF1E0F5BFE5BFF8E12D
:10018800F1BDE1BD8DE0A2E0BB27ED938A95E9F7CB
:1001980080E098E0A0E6ED930197E9F7EAE5F1E061
:1001A80085919591009761F0A591B591059015906D
:1001B800BF01F00105900D920197E1F7FB01F0CF27
:1001C800EFE5EDBFE8E0EEBFC0E6D2E00C945E01DB
:1001D8000E94E106EBE3ED1571F4DD24EB1549F41B
:1001E800BB24E7E1EA1519F4AA24C39401C0A39437
:1001F80001C0B39401C0D394A0916002A73034F435
:10020800EFE1EC1514F40E94E8060FC0A09160021B
:10021800AC3031F4EDE1EC1514F40E94E80605C0A9
:10022800EEE1EC1514F40E94E806A0916002AD30EE
:1002380044F0E1E0E09360020E94F0063196FE93FC
:10024800EE9331C00E94E1069394F30131963F0189
:100258000E94F5062CF0EAE0E8199E2E689401C089
:10026800E89421F8E0E0E9151CF09924689401C0AD
:10027800E89420F818C00E94E1069A94F201319699
:100288002F01E0E0E9151CF09924689401C0E89476
:1002980020F80E94F5062CF0EAE0E8199E2E6894F2
:1002A80001C0E89421F8E991EFBFF991E991B9917A
:1002B800A9911895A297EBB7E06CEBBFEBE0E5BF0F
:1002C800E0E0E4BFE0ECEABFA0E10E9498060E94EB
:1002D80048060E940107ACE2B1E00E94E707E8E0A7
:1002E800E2BDE5E0E5BDE0E0E4BDE3BDE0E4E9BF93
:1002F800EFE1EBBB0E940607CE2E78949818CA99B6
:1003080003C0CA9BFECF7BD00E940B0781F10E94DD
:100318000607A0E0B0E0F0E0EE0FFF1FAE0FBF1F32
:10032800F2010E9435080E940607AEE3B0E0F0E053
:10033800EE0FFF1FAE0FBF1FF3010E9435080E948A
:100348000607EF5F0E943D080E940607EF3128F07C
:10035800ACE7B0E0E0E00E943D080E940B0739F0EE
:100368000E944806A4E7B0E00E948506F6CFFE0189
:100378007196FA93EA93E0E8F0E0FA93EA93E92DAC
:100388000E941B070E942007E09160020E941B0741
:10039800EC2D0E941B0780E10E94D20564960E9402
:1003A8002907E0E9F0E0FA93EA93EA2D0E941B0797
:1003B800EB2D0E941B07ED2D0E941B07E82D0E94C4
:1003C8001B0780E10E94D20564960E944806DE0160
:1003D80051960E94760620FE04C0A2EAB0E00E9470
:1003E8002D0721FE04C0A8EAB0E00E942D070E9454
:1003F80001070E9433070E94360781CFFFCF1A9367
:1004080010E0103031F40E944806ADEAB0E00E94D6
:100418008506113031F40E944806ADEBB0E00E9429
:100428008506123031F40E944806AEECB0E00E9416
:100438008506133031F40E944806AEEDB0E00E9404
:100448008506CB9906C0CB9BFECF1F5F143008F002
:1004580010E0CC9904C0CC9BFECFE0E025C00E9400
:100468003A070E94430719F0CA9BFECF1FD00E948B
:100478003A070E94480719F0CA9BFECF78D00E941D
:100488003A070E944D0719F0CA9BFECF37D10E9448
:100498003A07E3E00E940408E02119F0CA9BFECF66
:1004A8005DD10E943607ADCF19910895FF926197EB
:1004B800FF24F0FC0BC00E942907EAEEF0E0FA9353
:1004C800EA93EB2D0E941B070E945207F0FE0BC017
:1004D8000E942907E8EFF0E0FA93EA93EA2D0E94D8
:1004E8001B070E9452070E9459070E94430739F0D0
:1004F800C99BFECFB394EBE3EB150CF4BB240E942D
:1005080064070E94430741F0C89BFECFBA94E0E01D
:10051800BE1614F4EBE3BE2E0E9459070E9448074A
:1005280039F0C99BFECFA394E7E1EA150CF4AA249D
:100538000E9464070E94480741F0C89BFECFAA9416
:10054800E0E0AE1614F4E7E1AE2ECB9904C0CB9BE5
:10055800FECFE1E0FE26CC9904C0CC9BFECFE0E0C4
:1005680003C00E943607A5CF6196FF900895FF92B9
:10057800A2971A930A93FF24109160020E9406071B
:100588000E2FC9993BC0C99BFECF0F5F0E9406077B
:10059800A02F0E9413080E946F0731F00E940607DF
:1005A8000E2F11506894F0F8A12FE6E00E94090878
:1005B8000E2EA02FEFE10E94740711F00E947B0716
:1005C800A12FE6E00E9413080E2EA02FEEE10E9454
:1005D800740711F00E947B07A12FECE00E94040829
:1005E8000E2EA02FEDE10E94740711F00E947B07E8
:1005F800103009F41CE01D3008F011E0C89934C02F
:10060800C89BFECF0150A02FE0E00E9404080E9482
:100618006F0791F01150103009F41CE01D3008F0FC
:1006280011E0173008F40FE1173008F00EE11C3024
:1006380009F40DE16894F0F80E940607A02F0E94C3
:100648000E080E2EA0E0F0FCA1E00E94480731F051
:100658000E9406070E2F1F5FE894F0F8103009F487
:100668001CE01D3008F011E0FE017396FA93EA933E
:10067800E7E0F1E0FA93EA930E942007E12FFF27D1
:10068800662777270E942008E02FFF27662777270D
:100698000E9420088CE00E94D2056096FE013296E6
:1006A800FA93EA93E1E1F1E0FA93EA93E02FA0E00C
:1006B800B0E00E948007E02FAEE3B0E00E94800720
:1006C80088E00E94D2052C960E944806DE015396C7
:1006D8000E9476060E940107DE0112960E947606A5
:1006E800CC9904C0CC9BFECFE0E003C00E94360743
:1006F80048CF19810881A496FF90089561970E94B8
:100708002907EEE1F1E0FA93EA93E82D0E941B072E
:100718000E945207C99903C0C99BFECF8394A82D94
:10072800EAE0B0E0A7FDBFEFF0E0AE17BF0714F0B6
:10073800E3E68E2EC89903C0C89BFECF8A94E0E0FA
:10074800E8150CF08824CC9904C0CC9BFECFE0E0DF
:1007580003C00E943607D3CF6196089561971A9314
:1007680010E0113061F40E948C07EAE2F1E0FA939C
:10077800EA93E09160020E941B070E9491071030E3
:1007880059F40E948C07EAE3F1E0FA93EA93EC2D1E
:100798000E941B070E949107123051F40E948C0797
:1007A800E8E4F1E0FA93EA930E9420070E94910797
:1007B8000E949B070E94480771F0C99BFECFE091F9
:1007C8006002EF5FE0936002A0916002AD301CF020
:1007D800E1E0E09360020E94A4070E94480771F0DC
:1007E800C89BFECFE0916002E150E0936002A091C7
:1007F8006002A1301CF4ECE0E09360020E949B07C9
:100808000E94430769F0C99BFECFC394EC2DACE767
:10081800B0E00E943D08EFE1EC1514F4E1E0CE2EC3
:100828000E94A4070E94430769F0C89BFECFCA94A0
:10083800EC2DACE7B0E00E943D08E1E0CE1614F4E0
:10084800EFE1CE2E0E94A4070E944D0799F0C89BA5
:10085800FECF0E94F0063197FE93EE93A0916102BD
:10086800B0916202119734F4E4E1F5E0E09361029B
:10087800F09362020E949B070E944D0739F0C99BC2
:10088800FECF0E94F0063196FE93EE93CB9906C0F8
:10089800CB9BFECF1F5F133008F010E0CC9904C04B
:1008A800CC9BFECFE0E003C00E9436075ACF1881E8
:1008B80062960895BA93AA931A930A93AA81BB8160
:1008C80012960E941808309759F1AA81BB81149694
:1008D8000E9418088F01309761F00230E0E01E078F
:1008E80098F0F80131978F01AA81BB811496ED9396
:1008F800FC93AA81BB811296ED91FD913196FE93EE
:10090800EE933197AC81A083AA81BB810E9418081D
:10091800FF232AF0ED91FD913196FE93EE9306C0E8
:10092800AA81BB81EFEFFFEFED93FC93198108815A
:1009380025960895BA93AA9326970E944E0810E028
:10094800AC85BD85E0E0F0E0ED93FC93EA89FB8996
:100958003196EA8BFB8B3197E4912E2FE03009F426
:1009680015C1E12FE03039F4253211F411E002C04D
:100978000E94AD070AC1E130A9F4253219F40E949A
:10098800AD0702C112E040E000E02D3211F401E0B1
:10099800FCC02B3211F44BE2F8C0203211F440E2D3
:1009A800F4C002C0E23039F450E013E0203311F40F
:1009B8000068EBC003C0E33009F0E7C0203310F053
:1009C8002A3308F007C0AAE05A9F502DE22FE053BF
:1009D8005E0FDBC0E22FE33649F40E94B407E889D2
:1009E800F989A481AA930E94BA07CEC0E33741F4DB
:1009F8000E94B4070E94C0070E94C8061E2F0AC0A2
:100A0800E03761F40E94B4070E94C0070E94D40630
:100A18001E2F086002600F7730E034C0E43611F012
:100A2800E93611F4046002C0E53731F4E4E5F0E09A
:100A3800EE83FF8315E00CC0E83511F4086003C0AD
:100A4800E83709F0A1C0EEE5F0E0EE83FF8314E09B
:100A580002FF14C00E94B4070E94CA07AB85AA23EC
:100A68003AF4EA85FB850E94F507EA87FB874DE2A1
:100A7800403011F01F5F01C00B7F04C00E94B40713
:100A88000E94CA0700FD11C0151778F407FF08C0B7
:100A980002FF04C00B7F242F115001C020E301C0C6
:100AA80020E20E94AD075150EFCF312F01FF17C050
:100AB8003030A1F003FF06C0EE81FF812591EE835F
:100AC800FF8305C0AE81BF812D91AE83BF830E9495
:100AD800AD07503009F051503150EACF4BC020E3F8
:100AE800EE81FF810E941C08E887F987EE81FF816B
:100AF8003296EE83FF83E885F985AA85BB85AE1714
:100B0800BF0750F02F5FA885B985EA85FB85EA1BEA
:100B1800FB0BEA87FB87EFCF2A3328F003FF02C0DD
:100B2800295F01C0295D04FD1AC0213320F4A8857E
:100B3800B985119709F409C0531710F000FF01C0D7
:100B480013C020E207FF0BC020E3006102FF07C0CB
:100B58000B7F4A930E94BA07503009F051500E9407
:100B6800AD07503009F051503150A885B98512971A
:100B780008F0B5CF00FF08C0503031F05150E0E226
:100B8800EA930E94BA07F8CF10E0E0CEAC85BD85A5
:100B98000E9418080E94550864960895FF92F82E3E
:100BA80026970E9450080E94D207309719F4EFEF59
:100BB800FFEF23C0DE0116960E94F1078D010E9407
:100BC800D207EE83FF83E0E0E887E987DE011A9623
:100BD8000E94F1070E941808FA93EA931A930A935D
:100BE800EEE5F4E0FA93EA93DE011A96A3DE9F019C
:100BF800AE81BF81E0E0EC93F9010E9457082A9684
:100C0800FF900895AA93E881E07111F0C39A01C09A
:100C1800C398E881E07211F0C49A01C0C498E881D1
:100C2800E07411F0C59A01C0C598E881E07811F028
:100C3800C69A01C0C6988DE08A95F1F7C29A8DE0F0
:100C48008A95F1F7C2988DE08A95F1F79BC0AA932F
:100C5800A881D8DFE881E295E883A881D3DF85E819
:100C68008A95F1F78FC0AA93E881F0E0ED59FD4F1E
:100C7800E081A981AE0FEBDFE981E0936702E881AB
:100C8800E093680222960895A2E00E94D907ACE09A
:100C9800DEDFA1E00E94D907E0E0E0936802E0937C
:100CA80067020895AA93A881AA3031F0E0916902F9
:100CB800A0916702AE1760F0E0E0EA93A0916802A5
:100CC800AF5FA0936802CFDFA881AA3009F45AC0A9
:100CD800E0916702EF5FE0936702C09AA881B7DFEF
:100CE800C09850C0BA93AA931A93A981BA81ED917A
:100CF800A983BA831E2FE03019F0A12FD3DFF5CFD7
:100D080010C0BA93AA931A93E981FA813196E983BC
:100D1800FA833197E4911E2FE03019F0A12FC2DF3A
:100D2800F3CF188123960895AA93BB9ABC9ABD9ACB
:100D3800BE9ABA9AB89AB99AC298C098C198E881E6
:100D4800E0936902E058E0936502E881E054E0939B
:100D58006602A4E1B0E00E94E7070E94DF070E9454
:100D6800DF070E94DF07A0E24DDF88EC90E00197E3
:100D7800F1F7A8E26CDFA4E06ADFA5E868DFA6E087
:100D880066DF82DF21960895BA93AA93A991B99153
:100D9800EE27FF276D91662311F03196FBCF08955A
:100DA800BA93AA93AA27BB27E991F9910590002045
:100DB80011F01196FBCFFD010895AA93BA93EA9317
:100DC800FA93EFB7EA930895E1E0CE2EE09160023E
:100DD800EF5FE09360020895A1E6B2E0ED91FD9126
:100DE8000895A92DB0E0A7FDBFEFE82DF0E0E7FDDD
:100DF800FFEFAE0FBF1F1A970895E0E0EA93A1E056
:100E08000C943706ACE7B0E00E9429080895AA2D93
:100E1800E0E00E9404080E2EAB2DE0E00E940408DA
:100E28000E22AD2DE0E00E940408E02108950E9402
:100E3800F9070E9420080895E0916102F09162028A
:100E48000E94FF070E9420080895FE01FA93EA9382
:100E580008950E948506A9E1B0E00C94E707DE0139
:100E68000C947606A9E1B0E00C94E707A0E0CA99D3
:100E7800A1E0E0E00E9404080E2EA12F0895E0E012
:100E88000E940408E0210895E1E00E940408E0219E
:100E98000895E2E00E940408E021089584E00E9499
:100EA800D20528960E944806DACFA0E0C999A1E0A9
:100EB800E0E00E9404080E2EA0E0F0FCA1E00895F6
:100EC800A0E0C899A1E0E0E00E9404080E2EA0E08E
:100ED800F0FCA1E008950E2EA0E0F0FCA1E0CFCF39
:100EE8000E9413080E22A0E0F0FCA1E0CDCF01E0A3
:100EF8001F5FE894F0F80895F0E0EE0FFF1FAE0FC3
:100F0800BF1F0E942508662777270E94200808959A
:100F1800FE013196FA93EA93089584E00E94D2057F
:100F280028960E944806DE0111960C947606A0E0E9
:100F3800C999A1E0E0E00E9404080E2EA12F0895AF
:100F4800A0E0C899A1E0E0E00E9404080E2EA12FBD
:100F580008952A93AD85BE85EF85F889099508958A
:100F6800E889F9893497E88BF98B0895AD85BE85B2
:100F7800EF85F88909950895A889B98914960E947A
:100F88001808EE83FF83AE81BF810895A889B989C7
:100F980014960E941808EA87FB870895DE011C96BC
:100FA8000E94F1070E94180808950E942B06A3E0EA
:100FB800B0E00C94E707A0E30E94060688EC90E0F6
:100FC8000197F1F70895109639F0A89580ED97E00C
:100FD8000197F1F71197C9F708950024AF0DB01DD7
:100FE8000895F195E195F0400895FE2FFF0FFF0B4E
:100FF8006F2F7F2F08956F2F660F660B762F08953A
:10100800EA17E1E009F0EE270895EA17E1E008F4AD
:10101800EE270895AE17E1E008F0EE270895EA17E5
:10102800E1E008F0EE270895ED91FC9111970895FD
:101038000590F491E02D08957A936A93FA93EA93D0
:101048000895119602D0FE2F1197E199FECFFF93D4
:10105800FFB7F894AEBBBFBBE09AEDB3FFBFFF91FB
:10106800089507D01196EF93EF2F03D0EF911197C2
:101078000895E19B02C0A895FCCF9FB7F894AEBB3A
:10108800BFBBE09A8DB3E81719F0EDBBE29AE19A7D
:101098009FBF08955A934A933A932A931A930A93AF
:1010A80008955D814C813B812A81198108810895C9
:00000001FF
